:020000021000EC
:1000000000000420DD0101000902010009020100D5
:1000100009020100090201000902010009020100B0
:1000200009020100090201000902010009020100A0
:100030000902010009020100090201000902010090
:100040000902010009020100090201000902010080
:100050000902010009020100090201000902010070
:100060000902010009020100ED310100AD5F01004C
:1000700009020100115301006D4D01009D2E010088
:1000800009020100090201002D3201002160010076
:1000900009020100090201000902010041360100C4
:1000A000090201000902010009020100E54D0100F9
:1000B0000902010009020100090201000902010010
:1000C0000902010009020100090201000902010000
:1000D00095600100096101007156010009020100EB
:1000E00009020100090201000902010009020100E0
:1000F000F13C0100090201000902010009020100AE
:1001000009020100090201000902010010B5054CB5
:10011000237833B9044B13B10448AFF300800123B3
:10012000237010BD8C01002000000000403202004E
:10013000084B10B51BB108480849AFF300800848C8
:10014000036803B910BD074B002BFBD0BDE810407E
:10015000184700BF0000000040320200900100205C
:100160008801002000000000154B002B08BF134B36
:100170009D46A3F5803A00218B460F461348144A4A
:10018000121A10F0C8FE0F4B002B00D098470E4BF0
:10019000002B00D098470020002104000D000D48DE
:1001A000002802D00C48AFF3008010F063FE20005E
:1001B000290004F021F910F0EBFD00BF0000080059
:1001C0000000042000000000000000008C0100205E
:1001D0002C0B0020000000000000000006488047B3
:1001E0000649074A074B9A42BEBF51F8040B42F832
:1001F000040BF8E7FFF7B8FFED020100783A0200C0
:10020000000000208C010020FEE700BF80B582B016
:1002100000AF00F027F878600A4BD3F808210A4BAA
:1002200013401B0A3B603B6801337A68B2FBF3F36F
:100230007B60064A7B6813607B6818460837BD46BA
:1002400080BD00BF00400E4000FF010008000020FC
:1002500080B400AF024B1846BD465DF8047B704782
:10026000005A620280B483B000AF164BD3F89430CA
:1002700003F00703032B08D0042B02D0022B08D075
:100280000BE0114B1B687B600BE04FF400437B607D
:1002900007E00E4B1B687B6003E00D4B1B687B6027
:1002A00000BF084BD3F8003103F4F8531B0A0133A5
:1002B0007A68B2FBF3F318460C37BD465DF8047B51
:1002C000704700BF00400E400400002000000020E6
:1002D0000C00002080B400AF034B1B681846BD46DD
:1002E0005DF8047B704700BF0000002080B400AFC1
:1002F000054A054BD3F8883043F47003C2F88830C0
:10030000BD465DF8047B704700ED00E080B400AFAF
:100310004FF400431846BD465DF8047B704700BFAC
:1003200080B400AF4FF47A731846BD465DF8047B85
:10033000704700BF80B400AF034B1B681846BD4632
:100340005DF8047B704700BF0400002080B487B0D4
:1003500000AFF860B9607A60FB6803F10473DA00FB
:10036000BB6813449B007B617B697A681A601C3709
:10037000BD465DF8047B704780B485B000AF7860FF
:1003800039607B6803F1C063FB60FB683A681A6000
:100390001437BD465DF8047B704700BF80B485B05C
:1003A00000AF786039607B6803F18063FB60FB68B5
:1003B0003A681A601437BD465DF8047B704700BF89
:1003C00080B584B000AFF860B9607A60F868B96849
:1003D000FFF7E4FFF8687968FFF7CEFF1037BD46F6
:1003E00080BD00BF80B489B000AF78600B46FB7061
:1003F0001346BB70BB78002B04D010237B61644B89
:10040000BB6103E000237B61624BBB617B685A6B7D
:10041000BB6913403B610023FB617B685E4A9342EA
:1004200005D15E4BFB60FB78022B40D000E0A9E0D9
:10043000022B04DC002B09D0012B1DD098E0062BE9
:100440006CD0812B7BD0032B4AD091E0FB681B68DA
:1004500003F4FE43FA691343FB61FB681B6803F076
:100460000F03FA691343FB61FB681B6803F0F00399
:10047000FA691343FB617EE0FB681B6803F0FE43EF
:100480001B0E1B02FA691343FB61FB681B6803F434
:1004900070231B0CFA691343FB61FB681B6803F4B0
:1004A00070031B0D1B01FA691343FB6163E0FB68DA
:1004B00004331B6803F4FE43FA691343FB61FB68D2
:1004C00004331B6803F00F03FA691343FB61FB68F5
:1004D00004331B6803F0F003FA691343FB614AE03D
:1004E000FB6804331B6803F0FE431B0E1B02FA6912
:1004F0001343FB61FB6804331B6803F470231B0C7C
:10050000FA691343FB61FB6804331B6803F470034F
:100510001B0D1B01FA691343FB612CE0FB680833D8
:100520001B6803F00F03FA691343FB61FB68083390
:100530001B6803F0F003FA691343FB611BE0FB68DF
:1005400004331B6803F4FE43FA691343FB61FB6841
:1005500004331B6803F00F03FA691343FB61FB6864
:1005600004331B6803F0F003FA691343FB6102E0F4
:100570000023FB6100BF7B69FA699A403B691A431B
:100580007B685A632437BD465DF8047B704700BF23
:10059000FFFF00800080FFFF002000401082E00F7E
:1005A00080B584B000AF786039603B68DB78FB725F
:1005B000FB7A002B06D12048002100F015F90346F4
:1005C000FB720EE01D4B1B6803F08003002B08D16B
:1005D0001948002100F008F94FF4FA40002100F01A
:1005E00003F97B680A229A603B681B781A063B680D
:1005F0009B781B0403F4FE031A43FB7A1B0203F4EB
:10060000FE4313433A6852781343FB603B681B79FF
:10061000002B03D0FB6843F01003FB607B68FA6893
:100620001A603B685B790548C0211A46FFF7C8FE8F
:100630001037BD4680BD00BF0024F40000200040FC
:1006400080B487B000AF78600B46FB701346BB7078
:100650007B6800221A74BB78102B02D9BB781E2B42
:1006600000D900BFBB78DB08DBB27B617B685B68CD
:10067000FA78D200D340DBB23B613B69FF2B14D147
:100680007B685A68FB78DB001946FF238B40DB430D
:100690001A407B685A607B685A68FB78DB00194611
:1006A0007B698B401A437B685A60FB78DA00BB7821
:1006B00003F007031344FB607B689A68FB68012121
:1006C00001FA03F31A437B689A60FB6818461C37EB
:1006D000BD465DF8047B704780B584B000AF78609C
:1006E00039607B6808229A603B689B787868194675
:1006F0000122FFF777FE3B685B781A063B68DB78E0
:10070000DB001343FB603B685B7C002B03D0FB6882
:1007100043F00053FB603B689B7C002B03D0FB68DD
:1007200043F00403FB603B681B7C002B03D0FB6899
:1007300043F00203FB603B68DB7C002B03D0FB68CB
:1007400043F00103FB603B689B78DBB25BB2002B9C
:1007500004DAFB6843F0E003FB6005E03B689B784C
:100760005B01FA681343FB607B68FA689A617B68F7
:10077000DB6923F4F21323F00703FB603B689B78EB
:10078000DBB25BB2002B06DA3B689B7823F0800378
:10079000FA681343FB603B681B785B04FA681343F9
:1007A000FB603B685B7D002B03D0FB6843F4804318
:1007B000FB607B68FA68DA617A683B681B7D1046EB
:1007C00003211A46FFF7C2FD3B685A687B685A62EC
:1007D0003B689A687B681A623B68DA687B689A6251
:1007E0001037BD4680BD00BF80B584B000AF7860D3
:1007F00039607B68164A934202D9154B7B6006E04C
:100800007B68B3F5FA4F02D24FF4FA437B603B6842
:10081000002B03D10F4800F0D3FA38603A687B68A8
:1008200013445A1E7B68B2FBF3F3FB60FB68002B9A
:1008300002D0FB68013BFB60FB687F2B01D97F2363
:10084000FB60FB68DBB218461037BD4680BD00BFB9
:100850000024F4004041050080B487B000AFF86088
:10086000B9607A60FB6803F10473DA00BB68134473
:100870009B007B617B697A681A601C37BD465DF816
:10088000047B704780B485B000AF786039607B68C6
:1008900003F10473DA003B6813449B00FB60FB68C0
:1008A0001B6818461437BD465DF8047B704700BFCF
:1008B00080B483B000AF78607B68012202FA03F352
:1008C00018460C37BD465DF8047B704780B500AF15
:1008D00000BF04481221FFF7D5FF0346002BF8D1D3
:1008E00080BD00BF04300E4080B500AFFFF7EEFFC3
:1008F000034B5B6803F440331B0CDBB2184680BD2E
:1009000000300E4080B584B000AF78600123FB60FA
:100910007B68124A934204D80023FB600023BB602B
:1009200008E07B680E4A934202D80123BB6001E0D5
:100930000223BB600B481021FA68FFF78DFF0949BD
:10094000084BD3F8003123F08072BB681B061343B9
:10095000C1F800311037BD4680BD00BF0048E80136
:100960000090D00300400E4080B483B000AF054B30
:100970001B687B607B6818460C37BD465DF8047BBE
:10098000704700BF1000002080B582B000AFFFF7B5
:1009900069FC7860064BD3F8003103F4F8531B0A66
:1009A00001337A6802FB03F318460837BD4680BD61
:1009B00000400E4080B582B000AF0D4800F0FCFA58
:1009C0000346FB70FB78072B05D0092B07D1FFF7F7
:1009D00049FC786006E0FFF7C7FF786002E000237B
:1009E0007B6000BF7B6818460837BD4680BD00BFEE
:1009F00006000C0080B584B000AF78607B68002BE7
:100A00001CD11B4800F0D8FA0346FB7200BFFB7AEA
:100A1000013B072B23D801A252F823F0410A010021
:100A20005F0A01005F0A01004F0A01005F0A01002E
:100A30005F0A0100470A0100570A0100002312E083
:100A40000023FB600EE0FFF78FFFF8600AE0FFF77E
:100A500041FCF86006E0FFF797FFF86002E0002332
:100A6000FB6000BFFB6818461037BD4680BD00BF65
:100A700098002E0080B487B000AF78603960264BB4
:100A80001B6C002B14BF01230023FB73224B41F688
:100A900071321A64204B5B6803F040737B61002362
:100AA0003B6113E01D4A3B69DB0013441A793B6844
:100AB000DBB29A4207D1194A3B6952F833207B686E
:100AC0009A4200D305E03B6901333B613B69042B4B
:100AD000E8D93B69052B02D103237B6105E00F4A6E
:100AE0003B69DB0013445B797B617B691B067B619F
:100AF0000949094B5B6823F040727B6913434B60E3
:100B0000FB7B002B02D0044B00221A641C37BD462D
:100B10005DF8047B704700BF00000E40481F0200D4
:100B200080B500AFFFF794FB034618460021FFF79E
:100B3000A1FF80BD80B582B000AF78603960786871
:100B40003968FFF797FF0837BD4680BD80B487B08E
:100B500000AF78600F237B617B6803333B617B6967
:100B6000FB60FA683B69934228BF1346BB60BB68D1
:100B70001B07BB60BB6818461C37BD465DF8047B8D
:100B8000704700BF80B400AF044B5B6A03F03003D2
:100B90001B091846BD465DF8047B704700400E40B7
:100BA00080B483B000AF78600649064B5B6A23F0DF
:100BB00030027B681B0113434B620C37BD465DF866
:100BC000047B704700400E4090B585B000AF786060
:100BD0000023BB607B68354A934206D0344A934277
:100BE00003D0344A934200D000E000BF786800F0A0
:100BF000E3F90346FB607B682C4A93420DD02C4AF4
:100C0000934211D02B4A934200D014E02A4BD3F8E0
:100C1000803003F00703FB600DE0274BD3F88430EE
:100C200003F00703FB6006E0234BD3F8883003F0A2
:100C30000703FB6000BFFB68042B2ED801A252F80B
:100C400023F000BF950C0100590C0100610C01005C
:100C5000710C0100690C0100FFF758FBB8601FE040
:100C6000FFF768FBB8601BE0FFF75AFBB86017E0BE
:100C7000FFF7CCFA0446104BD3F8003103F0807331
:100C80001B0E01331846FFF713FE0346B4FBF3F3C4
:100C9000BB6005E00023BB6002E00023BB6000BF37
:100CA000BB6818461437BD4690BD00BF03001C004A
:100CB0000500200002001A0000400E4080B483B0FE
:100CC00000AF78600A4BD3F8443103F00103002BE6
:100CD00000D007E000BF064BD3F840217B681340EB
:100CE000002BF8D10C37BD465DF8047B704700BF80
:100CF00000400E4080B586B000AF78600B46FB70B8
:100D000000233B617B681B0A03F00F03013B092BA7
:100D100044D801A252F823F0410D01004D0D01000D
:100D20009D0D01009D0D0100470D0100530D0100B7
:100D30005D0D01009D0D0100670D0100730D0100A7
:100D4000184B7B6118E0184B7B6115E0174B7B61FA
:100D500012E0174B7B6101233B610DE0154B7B617A
:100D600010233B6108E0144B7B614FF480333B61FF
:100D700002E0124B7B6100BF7B681B0B03F01F037B
:100D8000FB603B69002B02D03869FFF797FFFB78C7
:100D90007869F9681A46FFF75FFD00E000BF183771
:100DA000BD4680BD00400E40B0400E40C0400E40E9
:100DB000E0400E40E8400E40F0400E4050410E40F2
:100DC00080B584B000AF78607B6803F47813B3F526
:100DD000901F7AD0B3F5901F1AD8B3F5002F4DD0DD
:100DE000B3F5002F08D8B3F5003F4BD0B3F5802FF3
:100DF00035D0002B2FD0CCE0B3F5402F00F0BC80D5
:100E0000B3F5602F00F0BC80B3F5202F49D0C0E0CF
:100E1000B3F5E01F7FD0B3F5E01F09D8B3F5B01FDD
:100E20007ED0B3F5D01F4BD0B3F5A01F52D0B0E0A9
:100E3000B3F5281F60D0B3F5281F04D8B3F5001F01
:100E400000F09580A5E0B3F5301F7CD0B3F5381FD6
:100E500000F09A809DE0FFF705FAF8609CE0FFF74C
:100E600001FAF8604F4BD3F80C214F4B13401B0A8B
:100E70000133FA68B2FBF3F3FB608DE0FFF7F2F9A0
:100E8000F86089E0FFF7EEF9F860464BD3F80821E7
:100E9000454B13401B0A0133FA68B2FBF3F3FB60C6
:100EA0007AE0FFF7DFF9F8603E4BD3F8143103F432
:100EB000F8531B0A0133FA68B2FBF3F3FB606BE0F3
:100EC0003A48FFF781FEF86066E03948FFF77CFE9C
:100ED000F86061E03548FFF777FEF860314BD3F8F2
:100EE000203103F00F031846FFF7E2FC0246FB68CF
:100EF000B3FBF2F3FB604FE02C48FFF765FEF860B0
:100F0000284BD3F8203103F030031B091A46FB6845
:100F1000D340FB6040E02748FFF756FEF8603BE017
:100F20002448FFF751FEF8601E4BD3F8283103F038
:100F300030031B091846FFF7BBFC0246FB68B3FBF6
:100F4000F2F3FB6028E01B48FFF73EFEF860154B0C
:100F5000D3F8283103F440731B0A04331846FFF713
:100F6000A7FC0246FB68B3FBF2F3FB6014E01048F9
:100F7000FFF72AFEF8600FE0FFF71CFDF8600BE0BA
:100F8000FFF7F2FCF86007E00020FFF733FDF860A0
:100F900002E00023FB6000BFFB6818461037BD4627
:100FA00080BD00BF00400E4000FF010002001A009B
:100FB0000500200003001C0080B485B000AF7860FD
:100FC0000123FB737B6803F00F03BB60BB68013B2D
:100FD000072B00F2B28001A252F823F0FD0F0100AE
:100FE0002F1001005F1001003B110100A51001004E
:100FF000D51001003B110100F9100100544BD3F84A
:10100000943003F00703032B07D0042B02D0022BEC
:1010100006D008E00223FB7308E00323FB7305E01E
:101020000423FB7302E00523FB7300BF88E0484BF9
:10103000D3F8803003F00703022B06D0042B07D02F
:10104000012B08D10323FB7308E00223FB7305E0A7
:101050000A23FB7302E00123FB7300BF70E03C4BEB
:10106000D3F8843003F00703013B032B16D801A209
:1010700052F823F0851001008B1001009710010039
:10108000911001000323FB730BE00223FB7308E0C4
:101090000A23FB7305E00623FB7302E00123FB73C5
:1010A00000BF4DE02A4BD3F8883003F00703022B32
:1010B00006D0042B07D0012B08D10323FB7308E0D3
:1010C0000223FB7305E00A23FB7302E00123FB7399
:1010D00000BF35E01E4B1B6F03F00103002B04D053
:1010E000012B05D10923FB7305E00723FB7302E005
:1010F0000123FB7300BF23E0154BD3F85C3103F0F1
:101100003003102B0CD0102B02D8002B05D010E090
:10111000202B08D0302B09D00BE00123FB730BE010
:101120000723FB7308E00423FB7305E00823FB732C
:1011300002E00123FB7300BF02E00023FB7300BF4A
:10114000FB7B18461437BD465DF8047B704700BF33
:1011500000400E4080B58AB000AF78600B46FB704F
:1011600003237B62032387F823300023BB61002322
:101170007B617B68112B19D1FB78042B03D1FFF71E
:10118000A9F878610BE0FB78052B08D100F048F94D
:1011900002469B4B9A4202D900F042F978617B6982
:1011A000002B03D07869002100F076FC7B6803F007
:1011B0000F033B613B69013B072B00F2178101A242
:1011C00052F823F0E5110100AB120100C712010033
:1011D000ED130100B91201005D130100ED130100D0
:1011E0007B130100FB78023B082B00F2018101A276
:1011F00052F823F0191201002512010031120100EA
:1012000043120100F1130100F1130100F113010079
:10121000F1130100F113010004237B62002387F81E
:10122000233017E003237B62012387F8233011E08A
:1012300002237B62022387F823307248FFF762FBA8
:1012400008E001237B62032387F823306D48FFF712
:1012500059FB00BF97F8233018460121012200F006
:101260005DF9FFF75DFC7B69002B01D0FFF72EFBDA
:10127000654A7B6A53676548FFF7A2FD0346184637
:10128000FFF740FBFEF7C2FFF860FFF72DFB0346B8
:10129000F8681946FFF74EFC7B69002B04D100204B
:1012A000012100F0F9FBA8E0A7E0BB69002B01D009
:1012B000BB6900E0564BBB61BB69002B01D0BB6929
:1012C00000E0544BBB61BB69002B01D0BB6900E05F
:1012D000514BBB61FB78013B092B00F28B8001A2D3
:1012E00052F823F00D130100131301002313010022
:1012F000F5130100F513010033130100F51301008C
:10130000F5130100F51301004F1301000023FB61E9
:1013100020E000200121012200F000F90223FB61FE
:1013200018E001200121012200F0F8F80123FB61FF
:1013300010E0FEF76BFF03461846FFF7E3FA374865
:1013400002210122FFF788FA0323FB6102E0042354
:10135000FB6100BFBB69FA691A604EE0FB78072B9E
:1013600002D0092B04D048E0274B00221A6703E083
:10137000254B01221A6700BF3FE0FB78013B072B9A
:101380003AD801A252F823F0A9130100F913010081
:10139000F9130100BF130100F9130100F913010053
:1013A000AF130100CF1301000023FB6112E0042002
:1013B0000121012200F0B2F80123FB610AE00220C2
:1013C0000121012200F0AAF80223FB6102E00323BD
:1013D000FB6100BF0C490C4BD3F85C3123F03002A9
:1013E000FB691B011343C1F85C3106E000BF04E058
:1013F00000BF02E000BF00E000BF2837BD4680BD4F
:10140000002D31010148E80100400E400025080090
:1014100080400E4088400E4084400E40B0400E4058
:1014200080B400AF034B1B681846BD465DF8047BD3
:10143000704700BF0C000020B0B584B000AF7860EA
:101440001120FFF7B9FD02200021012200F066F80B
:101450007B685B7883F00103DBB2002B0ED07B68E6
:101460009B7883F00103DBB2002B07D07B68DB782D
:1014700083F00103DBB2002B00D000BF0023FB6030
:101480007B681B7C022B01D10123FB602149214B8E
:101490005B6A23F00102FB6813434B627B681B7895
:1014A0001D4808211A46FFF7D7F91A497B689B881F
:1014B000DB027A68527A1343CB62164D154B1B6BD5
:1014C00003F07F627B68DB88DB0213437A68927AE1
:1014D0001A437B681B7ADB0142EA03047B681B7AB0
:1014E0001846FFF733FB034623432B6309497B6808
:1014F0005B7B1A037B689B7B1B0113437A68D27B5F
:101500001A437B681B7B1B0413434B631037BD4698
:10151000B0BD00BF00400E4024400E4080B588B0F2
:1015200000AF0346FB710B46BB7113467B71FB7921
:10153000042B00F2A78001A252F823F099150100B4
:101540008715010063150100511501007515010093
:1015500001237B6102233B610123FB610023BB610B
:1015600025E004237B6108233B610323FB61022305
:10157000BB611CE010237B6120233B610523FB61E1
:101580000423BB6113E040237B6180233B6107237D
:10159000FB610623BB610AE04FF480737B614FF46B
:1015A00000733B610923FB610823BB6100BFBB796A
:1015B000002B5BD00023FB73FB79022B11D1FFF7CB
:1015C000E1FA0346002B0CD1304BDB6B0123FB739C
:1015D0002F4B5B6A03F00103002B02D00120FFF7C1
:1015E000DFFA2B4A7B69136600BF2A48B969FFF707
:1015F00049F90346002BF8D07B79002B35D000BF8A
:101600002448F969FFF73EF90346002BF8D0FB792F
:10161000022B2AD1FB7B002B27D01D4B5B6A03F0EA
:101620000103002B05D002202021012200F038F90F
:1016300003E00220002100F0E9F8022000F02CF87D
:10164000B860022000210122FFF768FF0220B9687C
:1016500000F05CF80E4A7B69136600BF0D48F9691B
:10166000FFF710F90346002BF8D00CE0084A3B695D
:10167000136600BF0748B969FFF704F90346002B5A
:10168000F8D100E000BF2037BD4680BD00300E40DD
:1016900000400E4090400E4080B485B000AF03463D
:1016A000FB71FB79013B032B23D801A252F823F0F5
:1016B000C1160100E5160100CD160100D916010082
:1016C000114B1B6AC3F30803FB6015E00E4B1B694B
:1016D00003F07F03FB600FE00B4B9B6903F07F037C
:1016E000FB6009E0084BD3F89C30C3F30A03FB60AE
:1016F00002E00023FB6000BFFB6818461437BD46BC
:101700005DF8047B704700BF00400E4080B584B098
:1017100000AF03463960FB71FB79013B032B6AD8AC
:1017200001A252F823F000BF39170100BB170100D6
:1017300067170100911701003B68C3F308033B6082
:1017400000BF2F481A21FFF79DF80346002BF8D160
:101750002C492C4B1B6A23F4FF7323F001033A68D6
:1017600013430B6248E03B6803F07F033B6000BF1C
:1017700023481821FFF786F80346002BF8D12149AA
:10178000204B1B6923F07F023B6813430B6133E05E
:101790003B6803F07F033B6000BF19481921FFF746
:1017A00071F80346002BF8D11649164B9B6923F0BC
:1017B0007F023B6813438B611EE0124BD3F89030DD
:1017C000104A104B5B6A23F0300343F0100353625E
:1017D0003B6803F4F063DB091846FFF7B7F9F860DC
:1017E0000849084B1A6B084B13403A681A43FB68C8
:1017F00013430B6300E000BF1037BD4680BD00BF40
:1018000040410E4000400E4000F8FF0F80B584B00C
:1018100000AF03460A46FB711346BB71FFF7B2F9EE
:101820000346002B03D14FF44003FB6016E0BB7965
:10183000202B04D0302B0AD0002B04D00BE04FF427
:101840000003FB600AE04FF44003FB6006E04FF446
:101850004003FB6002E0104BFB6000BF00BF0F4B7A
:10186000D3F89020FB681A40FB689A42F7D1FB68D6
:1018700003F48003002B0AD0084BD3F8A03003F404
:101880008063002B14BF01230023DBB200E001239F
:1018900018461037BD4680BDFF33E10700400E40BB
:1018A00080B582B000AF0346FB710B46BB71134697
:1018B0007B71FB79022B00D016E0BB79002B07D09F
:1018C0000C4B4FF48062C3F8A8200A4ABB795366D8
:1018D0007B79002B07D0FA79BB7910461946FFF7C0
:1018E00095FF034601E000BF012318460837BD46B7
:1018F00080BD00BF00400E4080B584B000AF78606E
:101900000B46FB700023FB60FB78002B01D001230A
:10191000FB607B685B00013303481946FA68FEF7F9
:101920009BFF1037BD4680BD50410E4080B483B050
:1019300000AFEFF310833B603B687B6072B67B685F
:1019400018460C37BD465DF8047B704780B483B001
:1019500000AF78607B68002B00D162B60C37BD46C3
:101960005DF8047B704700BF80B487B000AFF860BB
:10197000B9607A60FB6803F10473DA00BB68134452
:101980009B007B617B697A681A601C37BD465DF8F5
:10199000047B704780B582B000AF0346FB71FB79D2
:1019A000034800211A46FFF7DFFF0837BD4680BD18
:1019B0000CE0014080B582B000AF7860134A7B68CC
:1019C0005B7903F03F03536010497B681B78002B61
:1019D00001D0012200E000227B685B78002B01D05F
:1019E000022300E000231A437B68DB789B001A4344
:1019F0007B681B795B0113430B607B689B781846FF
:101A0000FFF7C8FF0837BD4680BD00BF00E00140BA
:101A100080B485B000AF786039607B6803F10473EF
:101A2000DA003B6813449B00FB60FB681B681846A8
:101A30001437BD465DF8047B704700BF80B500AF2A
:101A400000BF04481221FFF7E3FF0346002BF8D143
:101A500080BD00BF04300E4080B500AFFFF7EEFF41
:101A6000034B5B6803F440331B0CDBB2184680BDAC
:101A700000300E4080B483B000AF0346FB71FB79A9
:101A8000C3F102031A461023934018460C37BD4693
:101A90005DF8047B704700BF80B584B000AF78600C
:101AA0000B46FB70154BD3F8003103F4F8531B0AB7
:101AB0000133BB607B68002B07D1FEF7D3FB0246E6
:101AC000BB6803FB02F3FB6001E07B68FB600C4B2F
:101AD0001B78002B09D0FB680A4A934205D8FB7893
:101AE0000220194600F010F804E0FB7800201946A7
:101AF00000F00AF81037BD4680BD00BF00400E4020
:101B0000A8010020FF2C310190B587B000AF03463B
:101B10000A46FB711346BB711A4BD3F8003103F42C
:101B2000F8531B0A01337B61FEF79CFB3861FFF71A
:101B300093FF0346FB73FA7BFB799A4200D11EE0C8
:101B40003B697A6902FB03F3BB60FB79022B03D18B
:101B500038690221FEF7EEFF0B4CFB791846FFF7C0
:101B600089FF03462361FB79002B03D138690021EB
:101B7000FEF7E0FFBB79002B01D0FFF75FFF1C37BA
:101B8000BD4690BD00400E4000300E4080B487B08E
:101B900000AFF860B9607A60FB6803F10473DA00A3
:101BA000BB6813449B007B617B697A681A601C37B1
:101BB000BD465DF8047B704780B485B000AF7860A7
:101BC00039607B6803F1C063FB60FB683A681A60A8
:101BD0001437BD465DF8047B704700BF80B485B004
:101BE00000AF786039607B6803F18063FB60FB685D
:101BF0003A681A601437BD465DF8047B704700BF31
:101C000080B584B000AFF860B9607A60F868B968F0
:101C1000FFF7E4FFF8687968FFF7CEFF1037BD469D
:101C200080BD00BF80B582B000AF03463960FB7154
:101C3000FB79002B1CD0FB79012B19D0FB79022BEF
:101C400016D0FB79032B13D0FB79042B10D0FB7932
:101C5000052B0DD0FB79062B0AD0FB79072B07D07B
:101C6000FB79082B04D0FB79092B01D0FB790A2BD7
:101C7000FA7913465B0013441B010C3303F18043D4
:101C800003F520433A68012101FA02F21846114691
:101C9000FFF7A4FF0837BD4680BD00BF80B582B006
:101CA00000AF03463960FB71FB79002B1CD0FB7938
:101CB000012B19D0FB79022B16D0FB79032B13D003
:101CC000FB79042B10D0FB79052B0DD0FB79062B6B
:101CD0000AD0FB79072B07D0FB79082B04D0FB79BE
:101CE000092B01D0FB790A2BFA7913465B001344C8
:101CF0001B010C3303F1804303F520433A680121B3
:101D000001FA02F218461146FFF756FF0837BD46A2
:101D100080BD00BF80B586B000AFB9607A601A465A
:101D20000346FB731346BB7300237B61FB7B002BD5
:101D30001CD0FB7B012B19D0FB7B022B16D0FB7B2D
:101D4000032B13D0FB7B042B10D0FB7B052B0DD07A
:101D5000FB7B062B0AD0FB7B072B07D0FB7B082BDA
:101D600004D0FB7B092B01D0FB7B0A2B7B68072B64
:101D70000ED87B689B001A460F2303FA02F1FB7B07
:101D80007A68920093402C481A46FFF739FF10E01A
:101D90007B68083B7B617B699B001A460F2303FA33
:101DA00002F1FB7B7A699200934024481A46FFF7C0
:101DB00027FF7B68072B10D87B689B001A460323FC
:101DC00003FA02F1BB6803F003037A6892009340C0
:101DD0001B481A46FFF714FF0FE07B699B001A4669
:101DE000032303FA02F1BB6803F003037A6992004C
:101DF000934014481A46FFF703FFBB7B12487968EB
:101E00001A46FFF7C3FE97F82030104879681A4643
:101E1000FFF7BCFE0E4A7B68012101FA03F3C2F80A
:101E2000243497F824300B4879681A46FFF7AEFE41
:101E30001837BD4680BD00BF00A4004004A4004088
:101E400008A400400CA4004010A4004014A40040CA
:101E500000A0004028A4004090B585B000AFB96054
:101E60007B600346FB731346BB73FB7B002B1CD0CC
:101E7000FB7B012B19D0FB7B022B16D0FB7B032BAA
:101E800013D0FB7B042B10D0FB7B052B0DD0FB7BF1
:101E9000062B0AD0FB7B072B07D0FB7B082B04D03B
:101EA000FB7B092B01D0FB7B0A2BBB7B002B0DD0CE
:101EB0007B68002B05D0FB7B1846B968FFF7EEFE68
:101EC00004E0FB7B1846B968FFF7ACFEBB68072B44
:101ED0001CD82B4CFA7B2A48F97B0B465B000B4441
:101EE0001B0103445968BB689B0018460F238340BD
:101EF000DB430B40B97BB86880008140194313462F
:101F00005B0013441B012344596024E01C4CFA7B02
:101F10001B48F97B0B465B000B441B010344083351
:101F20001968BB6803F18043083B9B0018460F23E8
:101F30008340DB431940B87BBB6803F18043083B17
:101F40009B0000FA03F3194313465B0013441B0183
:101F5000234408331960BB7B002B0DD17B68002B19
:101F600005D0FB7B1846B968FFF798FE04E0FB7BC1
:101F70001846B968FFF756FE1437BD4690BD00BF3E
:101F800000A0004080B483B000AF0346FB71084955
:101F900097F907305B09FA7902F01F02012000FA75
:101FA00002F241F823200C37BD465DF8047B7047F0
:101FB00000E100E080B483B000AF0346FB71094943
:101FC00097F907305B09FA7902F01F02012000FA45
:101FD00002F2603341F823200C37BD465DF8047BE4
:101FE000704700BF00E100E080B483B000AF03465B
:101FF0003960FB7197F90730002B0BDA0D49FB793B
:1020000003F00F03043B3A68D2B25201D2B20B4440
:102010001A7609E0084997F907303A68D2B25201B6
:10202000D2B20B4483F800230C37BD465DF8047B25
:10203000704700BF00ED00E000E100E080B485B033
:1020400000AF786039607B6803F18063FB60FB68F8
:102050003A681A601437BD465DF8047B704700BFCC
:1020600080B582B000AF786017480121FEF742FECC
:1020700016497B681B781A067B685B781B02134342
:102080007A68927813430B60104B00221A620F4B50
:102090000022DA620D4B00225A630C4B4FF00042D3
:1020A000DA660A4B4FF0FF329A660920FFF782FF8B
:1020B0007B68DB7809201946FFF796FF0920FFF7B8
:1020C00061FF0837BD4680BD0055080000200E4066
:1020D00080B588B000AFF860B9607A60FB68DBB2A9
:1020E0001A4601239340BB614C48BB681968FA68E3
:1020F00013465B0013441B010344803319604749B6
:10210000BB685B7B1846FA6813465B0013441B01EF
:102110000B44883318604149BB689B7A1A04BB683A
:10212000DB7A1B051A43BB681B7B5B051343184610
:10213000FA6813465B0013441B010B44803358605C
:1021400036487B6823F00301FA6813465B001344AA
:102150001B01034498331960304ABB699366FFF74B
:10216000E5FB78612D492D4BDA6EBB691343CB66D5
:10217000BB681B7A002B05D02849284B5A6BBB69DA
:1021800013434B63BB685B7A002B05D02349234B79
:10219000DA6ABB691343CB62204B1B68FB61BB68E7
:1021A0001B79002B08D0BB681B79DB431B0263F44F
:1021B0007F43FA691340FB61BB685B79002B06D053
:1021C000BB685B791B021A46FB691343FB61BB6862
:1021D0009B79002B07D0BB689B79DB4363F0FF033F
:1021E000FA691340FB61BB68DB79002B05D0BB6843
:1021F000DB791A46FB691343FB61084AFB691360EC
:102200000748B969FFF71AFF044ABB69D3637869C5
:10221000FFF79CFB2037BD4680BD00BF00200E406D
:1022200028200E4080B584B000AF78607B68DBB2B8
:102230001A4601239340FB60FFF778FBB86008491A
:10224000074BDA6EFB68DB431340CB660548F96841
:10225000FFF7F4FEB868FFF779FB1037BD4680BD85
:1022600000200E4020200E4080B487B000AFF86000
:10227000B9607A60FB6803F10473DA00BB68134449
:102280009B007B617B697A681A601C37BD465DF8EC
:10229000047B704780B483B000AF78607B6803F143
:1022A0004043A3F59C239B0A18460C37BD465DF8B6
:1022B000047B704780B483B000AF786039607B687E
:1022C0001B6C03F00103002B00D006E000BF7B680D
:1022D0005A6C3B681340002BF9D10C37BD465DF8B2
:1022E000047B704780B586B000AFF860B9607A6053
:1022F000FB68294A934207D0FB68284A934203D0DF
:10230000FB68274A934200D100BFFB681B687B61D2
:102310007B6903F00703002B08D0F8680121FFF761
:10232000C9FF7B6923F00702FB681A60F868042183
:10233000FFF7C0FFFB68BA685A61F8680621FFF72B
:10234000B9FFFB6802225A60F8680221FFF7B2FF6A
:10235000FB6801225A607A68BB689A420DD0F8681F
:102360000221FFF7A7FFFB687A685A61F868062127
:10237000FFF7A0FFFB6802225A607B6903F00703A6
:10238000002B06D0F8680321FFF794FFFB687A69F9
:102390001A601837BD4680BD00E0044000E40440E8
:1023A00000E8044080B584B000AF78600B46FB7055
:1023B0007B680F4A934207D07B680E4A934203D052
:1023C0007B680D4A934200D100BF7B681B6823F0F5
:1023D0000703FB60FB78FA681343FB607868012110
:1023E000FFF768FF7B68FA681A601037BD4680BD4A
:1023F00000E0044000E4044000E8044080B582B0FE
:1024000000AF78600B46FB701346BB707B68144AC4
:10241000934207D07B68134A934203D07B68124AE9
:10242000934200D100BFFB78002B02D0012B0AD0D1
:1024300013E07B6803F16802BB78104605211A4659
:10244000FFF712FF09E07B6803F16802BB781046D2
:102450000B211A46FFF708FF00BF0837BD4680BDB5
:1024600000E0044000E4044000E8044080B586B089
:1024700000AF786039607B686F4A934207D07B6811
:102480006E4A934203D07B686D4A934200D100BFED
:102490007B68694A93427B68684A93427B68684AD2
:1024A00093427868FFF7F6FEF8607B689B6E23F432
:1024B000737323F003037B613B68DB7C1A463B6844
:1024C0001B7D9B0113437A6913437B617B687A69A7
:1024D0009A6600237B613B681B7B002B03D07B69E2
:1024E00043F400437B613B685B7B002B03D07B693B
:1024F00043F480437B613B689B7B002B03D07B696B
:1025000043F008037B613B68DB7B002B03D07B69D6
:1025100043F480737B613B681B7C002B03D07B6999
:1025200043F400737B613B685B7C9B021A467B69CA
:1025300013437B6100233B613B689B7C032B15D8D5
:1025400001A252F823F000BF5925010065250100C2
:10255000652501005F25010003233B6107E000239F
:102560003B6104E03B689B7C3B6100E000BF3B6952
:102570001B037A6913437B617B681846042101229F
:10258000FFF772FEF8680021FFF7B6F93B681B7889
:10259000023B012B1FD83B681B781A467B6913430B
:1025A0007B6178680121FFF785FE7B6810221A6045
:1025B00078680121FFF77EFEF8680121FFF79CF99A
:1025C0003B689A687B685A617B6802225A607B6824
:1025D0007A691A602DE07B681B6803F00703002B03
:1025E00008D07B6943F010027B681A60786801218B
:1025F000FFF760FE7B68184604210022FFF734FED7
:102600003B685A683B689B68786811461A46FFF732
:1026100069FE3B681B78012B0AD178680121FFF71E
:1026200049FE3B681B781A467B691A437B681A602F
:1026300000BF1837BD4680BD00E0044000E4044000
:1026400000E8044080B485B000AFF860B9607A60FB
:102650003B600949BB6803F4FE427B6803F0070353
:102660001A433B681A43FB68143341F8232014379C
:10267000BD465DF8047B704700600E4080B483B0B7
:1026800000AF78607B680D4A93420BD07B680C4AA0
:10269000934207D07B680B4A934203D07B680A4A77
:1026A000934201D1012300E0002303F00103DBB2D8
:1026B00018460C37BD465DF8047B7047008001402A
:1026C0000084014000A0014000A4014080B582B018
:1026D00000AF786039607868FFF7D0FF3B681B78FF
:1026E00083F00103DBB2002B02D07B6802225A6028
:1026F0007B6800225A623B689B781A063B68DB784D
:102700001B041A433B689B799B021A433B68DB79A5
:102710001B0213433A68127A1A433B685B78002B1A
:1027200001D0402300E000231A433B685B7A002B72
:1027300001D0802300E000231A433B689B7A002BE2
:1027400001D0202300E000231A433B68DB7A002BF2
:1027500001D0102300E000231A433B681B79002BB3
:1027600002D04FF4005300E000231A433B685B792A
:10277000002B02D04FF0805300E000231A433B6847
:102780001B7B002B01D0082300E000231A437B6849
:102790001A603B681B78002B02D07B6801225A60CC
:1027A0000837BD4680BD00BF80B584B000AFF8607B
:1027B000B9607A60F868FFF761FF7B681B789A065A
:1027C0007B685B781B061A437B689B781B041A4363
:1027D0007B68DB781B031A437B681B799B021A43D7
:1027E0007B685B791B0213437A6892791A437B6892
:1027F000DB79002B02D04FF0804300E000231A4326
:102800007B681B7A002B02D04FF0005300E00023BE
:102810001A437B685B7A002B01D0102300E0002371
:102820001A437B689B7A002B01D0042300E000232D
:102830001A43F968BB6806331B010B441A60103752
:10284000BD4680BD80B586B000AFF860B9607A60E3
:10285000BB68002B03D10A48FEF7B2FAB860BB6828
:102860005A1E7B685B00B2FBF3F37B617B691B0242
:102870007B61FB687A695A611837BD4680BD00BF2D
:102880004041050080B485B000AF78600B46FB7016
:102890007B68114A93420BD07B68104A934207D061
:1028A0007B680F4A934203D07B680E4A934200D163
:1028B00000BFFB78DB43FB60FB6803F00503FB60B4
:1028C000FB685A007B68DA60FA787B68DA60143754
:1028D000BD465DF8047B70470000014000040140E4
:1028E00000080140000C014080B582B000AF786064
:1028F00039607B683A4A93420BD07B68394A9342ED
:1029000007D07B68384A934203D07B68374A9342AA
:1029100000D100BF786800F06BF87B681A683B68EC
:102920001B8A43F001039BB219463B689B7B002B3B
:1029300002D04FF4806300E000230B431A437B680E
:102940001A607B681A683B681B7D002B02D04FF031
:10295000005300E000231A437B681A603B689B7CAD
:10296000002B07D03B68DB7C63F07F03DBB21A46A9
:102970007B689A653B681B7B43F480527B685A6096
:102980003B685A683B689B68786811461A46FFF7AF
:1029900059FF3B685B7B002B02D07B681022DA601A
:1029A0003B689B7D1B0703F0E0423B68DB7D1B051A
:1029B00003F4E0031A437B681A663B685B7D002BD7
:1029C00005D07B681B6843F480327B681A603B68E3
:1029D0001B781A467B68DA600837BD4680BD00BFA9
:1029E000000001400004014000080140000C0140CB
:1029F00080B483B000AF78607B682B4A93420BD0E1
:102A00007B682A4A934207D07B68294A934203D0C5
:102A10007B68284A934200D100BF7B6840F6AA62D7
:102A2000DA607B6800221A607B6841F205025A6016
:102A30007B6800229A607B6800225A617B680022D2
:102A4000DA647B681C4A9A647B6800225A677B6858
:102A500000229A677B680022DA677B68124A9342F9
:102A60000BD07B68114A934207D07B68104A93428F
:102A700003D07B680F4A934202D17B6800221A651B
:102A80007B6800229A657B68084A934203D07B6882
:102A9000084A934202D17B680022DA650C37BD46B2
:102AA0005DF8047B704700BF000001400004014056
:102AB00000080140000C0140F9FF010080B483B020
:102AC00000AF78600B46FB7000BF7B681B6903F0AA
:102AD0004003002BF9D0FA787B685A630C37BD4667
:102AE0005DF8047B704700BF80B485B000AFF8602C
:102AF000B9601346FB71BB68002B11D1FB79002B29
:102B000003D0FB6801221A611BE0FB6802221A61F4
:102B100000BFFB685B6803F00103002BF9D110E0F4
:102B2000FB79002B03D0FB6804221A6109E0FB68E3
:102B300008221A6100BFFB685B6803F00203002BE8
:102B4000F9D11437BD465DF8047B704780B487B077
:102B500000AF7860396000237B617B680A221A61CC
:102B600000BF7B685B6803F00303002BF9D1534B74
:102B7000D3F88C3103F00703FB603B681B78002B14
:102B800002D04F4B3B6101E04E4B3B613B681B7AEF
:102B9000062B33D801A252F823F000BFB92B010055
:102BA000C52B0100D32B0100E12B0100EF2B01000D
:102BB000FD2B0100EF2B01003B691B6803F03F0375
:102BC0007B611BE03B691B6803F47C639B097B61B1
:102BD00014E03B691B6803F47C331B0B7B610DE045
:102BE0003B691B6803F47C039B0C7B6106E03B693B
:102BF0001B6803F07C531B0E7B6100BF7B691B02CB
:102C0000FA681343FB603B681B7A062B20D801A2AD
:102C100052F823F0312C0100412C0100312C01002D
:102C2000412C0100312C0100512C0100312C0100FC
:102C3000224BD3F88C3103F0F0031B097B6107E0D2
:102C40001E4BD3F88C3103F470631B0A7B6100BF09
:102C50007B691B04FA681343FB603B685B78DA0707
:102C60003B689B781B071A433B68DB781B061A43BB
:102C70003B685B681B0403F4FE031A433B681B7A42
:102C80001B021A433B685B7A9B011A433B689B7AA1
:102C90005B011A433B68DB7A1B0113433A68127BE2
:102CA00013437B617B68FA681A637B687A691A60F0
:102CB0001C37BD465DF8047B704700BFB081E00F54
:102CC0003483E00F3883E00F80B487B000AFF86042
:102CD000B9607A60FB685B687B61FB680A221A61F5
:102CE00000BFFB685B6803F00303002BF9D1BB68EE
:102CF0005B781A03BB689B781B021A43BB68DB78BE
:102D00001B011343BA68127913433B617B68002BA4
:102D100003D1FB683A699A6002E0FB683A69DA60BD
:102D2000BB681B78002B09D07B68002B03D1FB68A4
:102D300001221A6102E0FB6804221A617B68002B01
:102D400008D17B6903F00203002B0BD0FB6804223F
:102D50001A6107E07B6903F00103002B02D0FB68D6
:102D600001221A611C37BD465DF8047B704700BF25
:102D700080B586B000AFF8600B467A60FB72FB68E6
:102D8000194A934201D9184BFB60FB7A83F0010387
:102D9000DBB2002B02D0154B3B6109E07B68002BB6
:102DA00002D07B683B6103E01148FEF709F8386107
:102DB00000237B610BE07B6901333A69B2FBF3F2DC
:102DC000FB689A4200D805E07B6901337B617B692F
:102DD0007F2BF0D97B697F2B01D97F237B617B69B6
:102DE00018461837BD4680BD40420F00001BB70093
:102DF0004041050080B483B000AF0346FB71094930
:102E000097F907305B09FA7902F01F02012000FAF6
:102E100002F2203341F823200C37BD465DF8047BD5
:102E2000704700BF00E100E080B483B000AF03460C
:102E3000FB71094997F907305B09FA7902F01F0223
:102E4000012000FA02F2603341F823200C37BD461E
:102E50005DF8047B704700BF00E100E080B483B000
:102E600000AF786039607B683A681A640C37BD46F9
:102E70005DF8047B704700BF80B483B000AF78601A
:102E800039607B685A6C3B68DB431A407B685A6444
:102E90000C37BD465DF8047B704700BF80B500AFBE
:102EA000044B1B685B68984703484FF48031FFF779
:102EB000D5FF80BDAC0100200020004080B584B06B
:102EC00000AF78600B46FB700123FB73134B1B783C
:102ED00083F00103DBB2002B1BD07B68104A1A6021
:102EE0007B681B680F4A1360FB780D48194600F099
:102EF0003BF80346002B0CBF01230023DBB2002B61
:102F000005D0064B01221A700023FB7301E0022357
:102F1000FB73FB7B18461037BD4680BDA90100201E
:102F2000B0010020AC01002080B483B000AF786015
:102F30007B6818460C37BD465DF8047B704700BFC0
:102F400080B582B000AF78607B681846FFF7ECFF71
:102F50007B6800221A607B6800225A607B681846F2
:102F60000837BD4680BD00BFB0B58AB000AF7860FD
:102F70000B46FB70002387F827307B68184600F06B
:102F8000BDFF0346012B0CBF01230023DBB2002B46
:102F900003D0022387F8273039E020480121FDF7CC
:102FA000A9FE1F480121FDF7A5FE1E4A07F12003D7
:102FB00092E8030018600433198002204FF4705126
:102FC00001224FF48013FFF73DFB174B07F1080474
:102FD0001D460FCD0FC495E8030084E8030007F1F8
:102FE0000802FB78104600211A46FDF729FB07F17D
:102FF00008030E481946FDF76FFB0C4A0B4BDB69C3
:10300000D36107F1200309481946FDF7C9FA97F87B
:10301000273018462837BD46B0BD00BF00D2040097
:1030200000450800701F0200781F020000200040C9
:1030300090B587B002AFF860B9601346FB71FB68CA
:103040001A68FB79013BDCB2074B00931046074935
:10305000BA68234601F054F8FB681B68184600F074
:10306000D9FF1437BD4690BD010008004C20004038
:1030700080B582B000AF78600C4B00221A700C4B08
:1030800002229A607B681B68184601F039F90848EB
:103090004FF48031FFF7F0FE0F20FFF7C5FE0F2041
:1030A000FFF7A8FE0837BD4680BD00BFA90100207C
:1030B0000020004080B582B000AF786039607B6846
:1030C000012B07D13B684FF6FF72934202D10348B0
:1030D000FFF736FF0837BD4680BD00BFB0010020B6
:1030E00080B500AF01204FF6FF71FFF7E3FF80BD11
:1030F00080B483B000AF78607B6818460C37BD465B
:103100005DF8047B704700BF80B582B000AF786087
:103110007B681846FFF7ECFF7B6800221A717B681A
:1031200000221A607B6818460837BD4680BD00BF84
:1031300080B582B000AF786039607B68012B07D121
:103140003B684FF6FF72934202D10348FFF7DCFF62
:103150000837BD4680BD00BFB801002080B500AF74
:1031600001204FF6FF71FFF7E3FF80BD80B483B00D
:1031700000AF0346FB71084997F907305B09FA79FC
:1031800002F01F02012000FA02F241F823200C375E
:10319000BD465DF8047B704700E100E090B585B066
:1031A00002AF396011461A460346FB710B46BB71EC
:1031B00013467B71FA79BC797B7900933B7E01934E
:1031C000104639683A682346FEF7A4FD0C37BD4621
:1031D00090BD00BF80B400AF034B9B681846BD464E
:1031E0005DF8047B704700BF00E0014080B582B00D
:1031F00000AF0023FB710EE0FB790A4AD35C002B81
:1032000006D0FB79084A52F82330184600F03AF904
:10321000FB790133FB71FB79072BEDD90837BD46EC
:1032200080BD00BF080300201003002080B582B0DD
:1032300000AF0023FB710EE0FB790A4AD35C002B40
:1032400006D0FB79084A52F82330184600F01AF9E4
:10325000FB790133FB71FB79072BEDD90837BD46AC
:1032600080BD00BF080300201003002080B588B097
:1032700002AFF860384680E80E000023FB7501239A
:10328000BB7527E0FB7D194AD35C83F00103DBB2F9
:10329000002B1CD0FB7D5B01154A1A44FB681A60A9
:1032A000FB7DFA681268134941F82320FB7D5B011E
:1032B0000F4A1A44FB7D009310463B460ECB00F0AC
:1032C00049F8FB7D094A0121D1540023BB75FB7DE0
:1032D0000133FB75BB7D012B02D1FB7D082BD1D9BE
:1032E000BB7D18461837BD4680BD00BF08030020CF
:1032F000300300201003002080B483B000AF78605A
:103300007B6818460C37BD465DF8047B704700BFEC
:1033100080B582B000AF78607B681846FFF7ECFF9D
:103320007B6800221A707B6800225A707B68084A0A
:10333000083307CA83E807007B6800225A607B686D
:1033400000221A757B6818460837BD4680BD00BF4D
:10335000981F020080B588B002AFF860384680E858
:103360000E001F4BD3F828347B61F86800F03AF860
:10337000FB6808333A4607CA83E80700FB685A7AB5
:10338000FB681B7A1046194603220123FEF764FDF1
:10339000FB681B7A03F00103002B03D10A20FFF71F
:1033A000E5FE02E01220FFF7E1FEFB685A7AFB68B7
:1033B0001B7A194601230093104600220123FFF7D0
:1033C000EDFE074BD3F828247B695A40FB685A600E
:1033D000FB6897F820201A751837BD4680BD00BFDE
:1033E00000A0004080B584B000AF78600D4A07F1BE
:1033F000080392E803001860043319800A48022188
:10340000FDF7A8FE09480121FDF774FC08480121D9
:10341000FDF770FC07F108031846FEF7CBFA1037EA
:10342000BD4680BD901F020002001A000025080062
:1034300000C2040080B485B000AF7860396000231A
:10344000FB737B681B78002B02D00123FB7312E017
:103450007B685B78002B0ED07B6800225A700223B9
:10346000FB737B68DB699AB27B689B699BB2D31A5A
:103470009AB23B681A80FB7B18461437BD465DF84C
:10348000047B704780B584B002AF7860274BD3F8D7
:103490001C247B685B681340002B09D0234BD3F8B6
:1034A00028247B685B681340002B01D0012300E0D7
:1034B0000023002B37D07B681B7883F00103DBB23D
:1034C000002B14D07B6801221A70FFF783FE02469E
:1034D0007B689A617B685A7A7B681B7A194601235C
:1034E0000093104601220023FFF758FE16E07B6888
:1034F00000221A707B6801225A70FFF76BFE0246A9
:103500007B68DA617B685A7A7B681B7A19460123EB
:103510000093104600220123FFF740FE034A7B6818
:103520005B68C2F824340837BD4680BD00A0004067
:10353000B0B582B000AF786039607B68012B10D1E4
:103540003B684FF6FF7293420BD1074B07241D4691
:1035500004E02846FFF7DCFE2035013CB4F1FF3FD4
:10356000F7D10837BD46B0BD3003002080B500AFAD
:1035700001204FF6FF71FFF7DBFF80BD80B483B001
:1035800000AF0346FB71084997F907305B09FA79E8
:1035900002F01F02012000FA02F241F823200C374A
:1035A000BD465DF8047B704700E100E080B483B065
:1035B00000AF0346FB71094997F907305B09FA79B7
:1035C00002F01F02012000FA02F2603341F82320CA
:1035D0000C37BD465DF8047B704700BF00E100E09A
:1035E00080B483B000AF786039607B683A681A6253
:1035F0000C37BD465DF8047B704700BF80B483B0D4
:1036000000AF786039607B685A6A3B68DB431A40D8
:103610007B685A620C37BD465DF8047B704700BF7B
:1036200080B483B000AF786039607B685A6A3B68C9
:103630001A437B685A620C37BD465DF8047B7047BD
:1036400080B500AF044B1B68184600F04BF90348E7
:103650000221FFF7C5FF80BD3404002000E00440D4
:1036600082B090B589B004AF7860396007F120016D
:1036700081E80C000123FB73154B1B7883F00103D9
:10368000DBB2002B1BD07B68124A1A607B681B6878
:10369000114A136001AC07F12C0393E8070084E89A
:1036A0000700BB6A009307F120030CCB0948396877
:1036B00000F036F80346FB73054B01221A70FB7BC2
:1036C00018461437BD46BDE8904002B0704700BFB1
:1036D00030040020380400203404002080B483B07B
:1036E00000AF78607B6818460C37BD465DF8047BF8
:1036F000704700BF80B582B000AF78607B68184625
:10370000FFF7ECFF7B6800221A817B6800225A6079
:103710007B6800221A607B6818460837BD4680BD6A
:1037200082B080B586B002AF7860396007F11801C9
:1037300081E80C000023FB733B6818687B68191D47
:10374000FB6A009307F124030CCB01F015FC034640
:10375000012B0CBF01230023DBB2002B02D003237B
:10376000FB7305E07B685B681846002101F040FDB3
:103770007B6818462849022202F000FD0346012B0F
:103780000CBF01230023DBB2002B02D00223FB730A
:1037900039E07B681B68184607F118030ECB02F06E
:1037A00003FF7B681B68184619211B4A02F0A0FF23
:1037B0007B681B681846002102F0ACFF7B681B6821
:1037C000184602F061FF15480221FDF7C3FC1448BA
:1037D0000121FDF78FFA13480121FDF78BFA1248FA
:1037E0000121FDF787FA05204FF4745103220023CD
:1037F000FEF728FF1720FFF7D9FE1720FFF7BEFEC0
:103800007B6828221A81FB7B18461037BD46BDE82D
:10381000804002B0704700BFA086010002001A007D
:1038200000250800000A1A0000450800B0B58AB05B
:1038300000AF78600B467B807B88642202FB03F339
:103840007A68128993FBF2F3FB84FB8C032B02D87A
:103850000023FB8402E0FB8C043BFB84164B07F146
:103860000C041D460FCD0FC495E8030084E8030047
:10387000FB8C7B6107F10C0310481946FEF7F6FD3F
:103880000E4800210122FEF7B9FD0C480221FFF786
:10389000A7FE0A480221FFF7C3FE7B681A687B680F
:1038A0001B895B089BB210461946054A02F040FF8F
:1038B0002837BD46B0BD00BFA41F020000E0044091
:1038C000A086010080B582B000AF78600B467B8097
:1038D0007B685A687B881046194601F089FC0837D6
:1038E000BD4680BD80B582B000AF78600848022137
:1038F000FFF784FE06480021FEF754FD7B681B6835
:103900001846002102F006FF0837BD4680BD00BF03
:1039100000E0044080B582B000AF786039607B6819
:10392000012B07D13B684FF6FF72934202D1034847
:10393000FFF7E0FE0837BD4680BD00BF3804002019
:1039400080B500AF01204FF6FF71FFF7E3FF80BDA8
:1039500080B584B000AF78600123FB730B4B1B78FC
:1039600083F00103DBB2002B0BD07B68084A1A609E
:103970007B681B68074A1360054800F029F8034676
:10398000FB73FB7B18461037BD4680BD4404002006
:103990004C0400204804002080B483B000AF78605D
:1039A0007B6818460C37BD465DF8047B704700BF46
:1039B00080B582B000AF78607B681846FFF7ECFFF7
:1039C0007B6800221A607B6818460837BD4680BDB8
:1039D00090B58BB000AF7860002387F827307B6804
:1039E000184600F08BFA0346012B0CBF012300237D
:1039F000DBB2002B02D0022387F827301F4B07F1E0
:103A000014040FCB84E80F0000233B7300237B7367
:103A10000023BB730023FB7300233B741848012170
:103A2000FDF768F9174801210022FFF7A1F90346C5
:103A3000BB6107F1140314481946FFF787F807F133
:103A40000C03114819460022FFF73EF90E4B2022C5
:103A5000C3F8B4200C4A0C4BD3F8B43043F0020343
:103A6000C2F8B430084800210122FFF73DF897F86A
:103A7000273018462C37BD4690BD00BFBC1F020042
:103A800000F2040020A107000080004080B483B051
:103A900000AF78600B467B80034A7B8853620C370B
:103AA000BD465DF8047B70470080004090B587B04C
:103AB00002AFF860B9601346FB71FB681A68FC79C5
:103AC0004FF4D01300931046B968064A234600F01D
:103AD0006FFBFB681B68184600F09CFA1437BD4664
:103AE00090BD00BF2480004080B485B000AF7860F6
:103AF0000B467B800023FB607B88002B18D07B88E3
:103B0000FA2B09D97B881B030D4A82FB0312521240
:103B1000DB17D31AFB6008E07B881B03084A82FB93
:103B200003121211DB17D31AFB60FB68013BFB6029
:103B3000FB689BB218461437BD465DF8047B70479E
:103B4000D34D621080B582B000AF7860084B002280
:103B50005A6208480021FDF7CDF87B681B681846BB
:103B600000F0CEFB044B00221A700837BD4680BD22
:103B70000080004000F204004404002080B582B0C0
:103B800000AF786039607B68012B07D13B684FF646
:103B9000FF72934202D10348FFF70AFF0837BD4680
:103BA00080BD00BF4C04002080B500AF01204FF65F
:103BB000FF71FFF7E3FF80BD80B483B000AF034621
:103BC000FB71084997F907305B09FA7902F01F0287
:103BD000012000FA02F241F823200C37BD465DF8BF
:103BE000047B704700E100E080B483B000AF7860F0
:103BF00039607B683A689A640C37BD465DF8047B8F
:103C0000704700BF80B483B000AF786039607B68D4
:103C1000DA6C3B68DB431A407B68DA640C37BD46DC
:103C20005DF8047B704700BF80B483B000AF78605C
:103C300039607B68DA6C3B681A437B68DA640C375E
:103C4000BD465DF8047B704780B485B000AF7860F6
:103C500039607B6803F1C063FB60FB683A681A60F7
:103C60001437BD465DF8047B704700BF80B485B053
:103C700000AF786039607B6803F18063FB60FB68AC
:103C80003A681A601437BD465DF8047B704700BF80
:103C900080B582B000AF03463960FB71FA791346F4
:103CA0005B0013441B010C3303F1804303F52043F5
:103CB00018463968FFF7DAFF0837BD4680BD00BFF8
:103CC00080B582B000AF03463960FB71FA791346C4
:103CD0005B0013441B010C3303F1804303F52043C5
:103CE00018463968FFF7B0FF0837BD4680BD00BFF2
:103CF00080B500AF024B1B68184600F081F880BD0C
:103D00005004002080B483B000AF78607B68184610
:103D10000C37BD465DF8047B704700BF80B582B0AC
:103D200000AF78607B681846FFF7ECFF7B680022E5
:103D30009A607B6800221A707B6800229A807B68F8
:103D40000022DA607B6800225A707B6800229A7039
:103D50007B680022DA707B6802221A747B6818463E
:103D60000837BD4680BD00BF80B582B000AF786027
:103D70000C4B18460121FEF7A1FE7B6800229A70C9
:103D8000084B18460221FFF72FFF064B1846022169
:103D9000FFF74AFF2C235BB21846FFF70DFF0837E9
:103DA000BD4680BD000C014080B582B000AF786098
:103DB0000023082218461146FFF782FF082300223D
:103DC00018461146FFF764FF09230F2218461146D3
:103DD000FFF776FF7B6800221A747B689B687A681D
:103DE000D278D2011A447B68DA60044B80221A70C0
:103DF0007868FFF7B9FF0837BD4680BD680400202A
:103E000080B582B000AF78602A4B9B687A68928850
:103E10001146284A926812680A407968C968786829
:103E200080780144097808467968097800FA01F138
:103E30000A431A600023032218461146FFF728FFA1
:103E40001D4B01225A631C4B18460221FFF7CCFE82
:103E50000023032218461146FFF732FF7B689B7848
:103E60005A1CD1B27A689170144A127893420CBFEE
:103E700001230023DBB2002B18D07B681B7C012BB5
:103E80000AD0022B0CD0002B00D00FE00A4B1846B2
:103E90000221FFF7B7FE09E07868FFF785FF05E02C
:103EA000054B18460221FFF7ADFE00BF0837BD469F
:103EB00080BD00BFCC1F0200000C01406804002040
:103EC00080B582B000AF786039607B68012B07D184
:103ED0003B684FF6FF72934202D10348FFF71EFF83
:103EE0000837BD4680BD00BF5404002080B500AF38
:103EF00001204FF6FF71FFF7E3FF80BD80B584B06E
:103F000000AF78600023FB730123BB732BE0FB7BC6
:103F10001A4AD35C83F00103DBB2002B20D0FA7B7A
:103F200013469B0013449B00154A1A447B681A6091
:103F3000FB7B7A681268134941F82320FA7B134609
:103F40009B0013449B000E4A1A44FB7B1046194603
:103F500000F03AF8FB7B094A0121D1540023BB73DE
:103F6000FB7B0133FB73BB7B012B02D1FB7B082B5B
:103F7000CDD9BB7B18461037BD4680BD6C040020F0
:103F8000940400207404002080B483B000AF7860F3
:103F90007B6818460C37BD465DF8047B704700BF50
:103FA00080B582B000AF78607B681846FFF7ECFF01
:103FB0007B6800221A74786800F014F87B68184651
:103FC0000837BD4680BD00BF80B483B000AF7860C5
:103FD0000B46FB707B68FA781A740C37BD465DF8A7
:103FE000047B704780B584B000AF7860074B1B68D6
:103FF000FB6007480121FCF77DFE07F10C03184622
:10400000FEF72EF81037BD4680BD00BFD81F020056
:104010000055080080B582B000AF78607B681B7CDB
:10402000184679687B681B7C1A4613465B0013446C
:104030001B01044A13441A46FEF74AF80837BD46E6
:1040400080BD00BF3405002090B488B000AFF86098
:10405000B9607A60FB70FB6800221A60FB6800227E
:104060001A71FB6800225A71FB6800229A71FB6882
:104070000022DA71FB6800221A72FB6800225A7271
:10408000FB6800229A72FB680022DA72FB68002249
:104090001A73FB6800225A73FB68BA6A1A60164BDF
:1040A00007F110040FCB84E80F00FB7C6FF3830350
:1040B000FB74BB687B617B68BB61FB789BB2013B97
:1040C0009BB2C3F30A039AB23B8A62F30E133B829C
:1040D000FB681B7C1946094A0B465B000B441B011D
:1040E00013441C4607F110030FCB84E80F00203760
:1040F000BD4690BC704700BFDC1F020034050020A5
:1041000090B488B000AFF860B9607A60FB70FB686B
:1041100000221A60FB6800221A71FB6800225A71A3
:10412000FB6800229A71FB680022DA71FB680022AA
:104130001A72FB6800225A72FB6800229A72FB68AE
:104140000022DA72FB6800221A73FB6800225A739D
:10415000FB68BA6A1A60144B07F110040FCB84E8AD
:104160000F00BB687B617B68BB61FB789BB2013B46
:104170009BB2C3F30A039AB23B8A62F30E133B82EB
:10418000FB681B7C1946094A0B465B000B441B016C
:1041900013441C4607F110030FCB84E80F002037AF
:1041A000BD4690BC704700BFDC1F020034050020F4
:1041B00090B488B000AFF860B9607A60FB70FB68BB
:1041C00000221A60FB6800221A71FB6800225A71F3
:1041D000FB6800229A71FB680022DA71FB680022FA
:1041E0001A72FB6800225A72FB6800229A72FB68FE
:1041F0000022DA72FB6800221A73FB6800225A73ED
:10420000FB68BA6A1A6007F1100300221A600433CF
:1042100000221A60043300221A60043300221A605C
:104220000433FB7C022262F38303FB74FB7C43F0C8
:104230003003FB743B7F43F001033B773B7F43F04C
:1042400002033B77BB687B617B68BB61FB789BB2F9
:10425000013B9BB2C3F30A039AB23B8A62F30E138B
:104260003B82FB681B7C1946074A0B465B000B44EC
:104270001B0113441C4607F110030FCB84E80F0009
:104280002037BD4690BC70473405002080B485B00F
:1042900000AF78600023FB607B681B7C1A4601231B
:1042A0009340BB60154B1A6ABB681340002B14BFC8
:1042B00001230023DBB2002B15D0104A7B681B7C46
:1042C00019460B465B000B441B01134488335B68A3
:1042D000FB60FA6847F6F07313401B09FB60FB684C
:1042E0000133FB6001E00023FB60FB68DBB2184692
:1042F0001437BD465DF8047B704700BF00200E40B8
:1043000080B582B000AF78607B681B7C1846FDF7F3
:1043100089FF7B681B7C1A46024B002199540837A1
:10432000BD4680BD6C040020B0B582B000AF78609F
:1043300039607B68012B10D13B684FF6FF729342C6
:104340000BD1074B07241D4604E02846FFF728FE43
:104350001435013CB4F1FF3FF7D10837BD46B0BD7D
:104360009404002080B500AF01204FF6FF71FFF7E5
:10437000DBFF80BD80B400AF044BDB6C1B0EDBB2F7
:104380001846BD465DF8047B704700BFB081E00F62
:1043900080B582B000AFFFF7EDFF0346FB71FB79FC
:1043A000002B0CD1104B4AF6E8521A600F4A0F4B03
:1043B0001B6843F0040313600B4B00221A60FB7967
:1043C000012B05D80A4A0A4B1B6843F400531360BB
:1043D000084A084B1B6A23F4441343F488131362FE
:1043E0000837BD4680BD00BF90310E4098310E4069
:1043F00064310E4000400E40B0B58EB008AFFFF7FC
:10440000C7FF504B3C1D1D4628686968AA68EB68C9
:104410000FC42B8A23803B1D1846FDF70DF8112091
:104420000421FCF797FE032000210022FDF776F817
:10443000454A454B1B6843F008031360434801217C
:10444000FCF758FC424B434A01AC07CA84E807001A
:10445000414A04AC07CA84E807009A6800920CCB72
:104460003E484EF6602100F05DFF3D4B3D480ECBCF
:1044700000F056FD3B4B1B68184628214FF47A721A
:1044800000F068FE374B1B6818464FF4FA7100F0D5
:1044900085FE354B354A01AC07CA84E807009A68A7
:1044A00000920CCB32482F49FFF7DAF8304B1B68EB
:1044B00018464FF4FA71FFF705FA402003F0BEFDED
:1044C0000446204600F066F82A4B1C602A4B2B4815
:1044D0000ECBFEF7CBFE2A4B2A480ECBFEF7C6FECC
:1044E000264B1B6818462849FEF7A4FF0346022BFB
:1044F0000CBF01230023DBB2002B04D01D4B1B6833
:10450000184600F081F81F4B1B6818461E49FEF73D
:1045100091FF0346012B02D0022B04D007E01B4B76
:1045200001221A7003E01A4B01221A7000BF114BCE
:104530001B68184600F09CF8D2E7204603F0EEFA1C
:1045400003F0B1FDEC1F020000000E400035080032
:10455000482002003C20020054200200CC0600202B
:1045600018200200C806002024200200302002008B
:10457000C4060020C006002000200200B80600206B
:104580000C200200BC060020D0060020B40600204B
:10459000B5060020B0B586B004AF78607B684FF4F4
:1045A0007A629A877B6841F28832DA877B680022D8
:1045B0001A767B6800225A877C68124B8522029209
:1045C0006D461A1D92E8030085E803001B6820462B
:1045D000102142F2107201F05BF87B6800225A60F1
:1045E0007B6800229A607B6800221A617B68002247
:1045F000DA607B6800225A617B6818460837BD463E
:10460000B0BD00BF6020020080B582B000AF78600E
:104610007B681B7E052B27D801A252F823F000BF30
:10462000394601004146010049460100514601005A
:104630005946010061460100786800F057F814E01F
:10464000786800F089F810E0786800F0A9F80CE0CC
:10465000786800F0C9F808E0786800F0E9F804E04C
:10466000786800F009F900E000BF0837BD4680BD5A
:1046700080B582B000AF78607B681B7E052B27D8A1
:1046800001A252F823F000BFA1460100A946010093
:10469000B1460100B9460100C1460100C94601000A
:1046A000786800F00BF914E0786800F05DF910E02C
:1046B000786800F0D3F90CE0786800F03DFA08E083
:1046C000786800F099FA04E0786800F0F1FA00E008
:1046D00000BF044B00221A70034B00221A700837E7
:1046E000BD4680BDB4060020B5060020B0B586B03A
:1046F00004AF78607B6801221A767B681B681846D5
:1047000001F058F97B681C1D124B852202926D4600
:104710001A1D92E8030085E803001B68204610215B
:1047200042F2107200F0B4FF0346052B0ED801A22E
:1047300052F823F04D4701004D4701004D4701005D
:104740004D4701004D4701004D4701000837BD4668
:10475000B0BD00BF60200200B0B586B004AF786085
:104760007B6802221A767B685B68184601F022F9A2
:104770007B6803F10804094B852202926D461A1DDD
:1047800092E8030085E803001B682046102142F2EE
:10479000107200F07DFF0837BD46B0BD60200200FA
:1047A000B0B586B004AF78607B6803221A767B6868
:1047B0009B68184601F0FEF87B6803F10C04094B76
:1047C000852202926D461A1D92E8030085E80300D7
:1047D0001B682046102142F2107200F059FF083782
:1047E000BD46B0BD60200200B0B586B004AF7860B1
:1047F0007B6804221A767B68DB68184601F0DAF8D9
:104800007B6803F11004094B852202926D461A1D44
:1048100092E8030085E803001B682046102142F25D
:10482000107200F035FF0837BD46B0BD60200200B1
:10483000B0B586B004AF78607B6805221A767B68D5
:104840001B69184601F0B6F87B6803F11404094BA4
:10485000852202926D461A1D92E8030085E8030046
:104860001B682046102142F2107200F011FF083739
:10487000BD46B0BD60200200B0B586B004AF786020
:104880007B6800221A767B685B69184601F092F813
:104890007C68094B852202926D461A1D92E803003E
:1048A00085E803001B682046102142F2107200F0D8
:1048B000EFFE0837BD46B0BD6020020080B584B071
:1048C00000AF78607B681B68184601F0D9FA034690
:1048D000052B41D801A252F823F000BF594901002D
:1048E000594901002F4901004D490100F5480100D7
:1048F000594901001A4B1B78002B17D00023FB737A
:104900000CE07B681A687B689B8F1046012142F29D
:10491000107201F06FF8FB7B0133FB73FB7B032B01
:10492000EFD97B681B68184601F0DCF915E07B685D
:104930001A687B681A331046194601F0EFF9094BE3
:104940001B6818466421FEF771FF06E07B681B6850
:10495000184601F005FA00E000BF1037BD4680BDE3
:10496000B4060020C406002080B582B000AF786095
:104970007B685B68184601F083FA0346052B65D80F
:1049800001A252F823F000BF4D4A01004D4A010038
:10499000234A0100414A0100A14901004D4A01009A
:1049A0002C4B1B78002B3BD07B685A687B689B8F15
:1049B00010460121642201F01DF87B685A687B686B
:1049C0009B8F10460121642201F014F87B685A681D
:1049D0007B689B8F1046012141F64C5201F00AF88A
:1049E0007B685A687B689B8F10460121642201F026
:1049F00001F87B685A687B689B8F1046012164220E
:104A000000F0F8FF7B685A687B689B8F1046012195
:104A1000642200F0EFFF7B685B68184601F062F9E2
:104A200015E07B685A687B681A331046194601F016
:104A300075F9094B1B6818466421FEF7F7FE06E07E
:104A40007B685B68184601F08BF900E000BF08370F
:104A5000BD4680BDB4060020C406002090B587B0D6
:104A600002AF78607B689B68184601F009FA03463C
:104A7000052B59D801A252F823F000BF294B0100A1
:104A8000294B0100B94A0100D74A0100954A0100AB
:104A9000E34A0100264B1B78002B0CD07B689A68F8
:104AA0007B689C8F4FF4FA730093104601216422B7
:104AB000234601F05DF838E07B689A687B681A331A
:104AC0001046194601F02AF91A4B1B681846642152
:104AD000FEF7ACFE29E07B689B68184601F040F9C0
:104AE00023E07B689A687B689B8F104600214CF21C
:104AF000503200F07FFF0023FB730CE07B689A6864
:104B00007B689B8F1046012142F2107200F072FF09
:104B1000FB7B0133FB73FB7B132BEFD97B689B681B
:104B2000184601F0DFF800E000BF1437BD4690BD25
:104B3000B4060020C406002090B583B000AF7860B2
:104B40007B68DB68184601F09BF90346052B4AD8C1
:104B500001A252F823F000BF9D4B0100E74B01007A
:104B6000B14B0100B14B0100714B0100E74B01005B
:104B70001F4B1B78002B10D07B68DA687B68DB8FBB
:104B80001C467B689B8F10460121224600F032FFB5
:104B90007B68DB68184601F0A5F825E0144B1B780C
:104BA000002B04D07B68DB68184601F0D9F81BE0C5
:104BB0007B68DA687B68DB8F1C467B689B8F1046BE
:104BC0000121224600F016FF7B68DA687B681A3301
:104BD0001046194601F0A2F8064B1B6818466421DE
:104BE000FEF724FE00E000BF0C37BD4690BD00BFBD
:104BF000B5060020C406002080B582B000AF786002
:104C00007B681B69184601F03BF90346052B44D825
:104C100001A252F823F000BF574C01009B4C010049
:104C20006B4C01006B4C0100314C01009B4C0100AE
:104C30001C4B1B78002B0DD07B681A697B689B8FFF
:104C400010460121642200F0D5FE7B681B691846DE
:104C500001F048F822E0144B1B78002B04D07B684D
:104C60001B69184601F07CF818E07B681A697B68BC
:104C70009B8F10460121642200F0BCFE7B681A69FC
:104C80007B681A331046194601F048F8074B1B6839
:104C900018460A21FEF7CAFD00E000BF0837BD46EE
:104CA00080BD00BFB4060020B5060020C406002069
:104CB00080B584B000AF78607B685B69184601F00E
:104CC000DFF80346052B48D801A252F823F000BFB5
:104CD0005B4D01005B4D0100314D01004F4D010066
:104CE000E94C01005B4D01001E4B1B78002B1ED0D0
:104CF0000123FB7313E07B685A69FB7B9BB2194667
:104D00004901C91A89000B449B009BB2104601213E
:104D100042F2107200F06EFEFB7B0133FB73FB7BF3
:104D2000102BE8D97B685B69184600F0DBFF15E0C3
:104D30007B685A697B681A331046194600F0EEFF0B
:104D4000094B1B6818466421FEF770FD06E07B687E
:104D50005B69184601F004F800E000BF1037BD465B
:104D600080BD00BFB4060020C406002080B500AF9F
:104D70004FF080439B6903F00103002B08D04FF0F4
:104D80008043DB6803F00103002B01D0012300E026
:104D90000023002B08D0114B1B68184600F086F842
:104DA0004FF0804301225A610D4B9B6903F00103D0
:104DB000002B07D00A4BDB6803F00103002B01D066
:104DC000012300E00023002B07D0044B1B6818468A
:104DD00000F07AF8024B01225A6180BDD40600200F
:104DE0000004004080B500AF044B1B68184600F07B
:104DF00025F8034B01229A6280BD00BFD406002033
:104E00000060044080B483B000AF78607B681846CF
:104E10000C37BD465DF8047B704700BF80B582B09B
:104E200000AF78607B681846FFF7ECFF7B680022D4
:104E30001A707B6818460837BD4680BD80B483B0C1
:104E400000AF78607B681B7803F00403DBB2002BB3
:104E500005D07A68137843F00103137004E07A6890
:104E600013786FF3000313707B681B7803F008035B
:104E7000DBB2002B05D07A68137843F0020313707D
:104E800004E07A6813786FF3410313707A6813783B
:104E90006FF3820313707A6813786FF3C303137090
:104EA0000C37BD465DF8047B704700BF80B483B00B
:104EB00000AF78607A68137843F0040313700C37FE
:104EC000BD465DF8047B704780B483B000AF786066
:104ED0007A68137843F0080313700C37BD465DF809
:104EE000047B704780B582B000AF786039607B6822
:104EF000012B07D13B684FF6FF72934202D1034862
:104F0000FFF78CFF0837BD4680BD00BFD8060020E4
:104F100080B500AF01204FF6FF71FFF7E3FF80BDC2
:104F200080B586B000AFF860384680E80E000123F7
:104F3000FB750E4B1B7883F00103DBB2002B10D006
:104F4000FB680B4A1A60FB681B680A4A1360084832
:104F50003B460ECB00F0A8F8044B01221A70002348
:104F6000FB75FB7D18461837BD4680BDE006002066
:104F7000E4060020DC06002082B080B586B002AFD7
:104F80007860396007F1180181E80C007B689B6844
:104F90001A467B680C3300920193386807F11803B6
:104FA0000ECB00F00FF80346FB733B681A687B6872
:104FB0005A60FB7B18461037BD46BDE8804002B002
:104FC000704700BF80B588B002AFF860384680E80F
:104FD0000E000123FB75104B1B7883F00103DBB23D
:104FE000002B14D0FB680D4A1A60FB681B680C4A42
:104FF00013603B6A00937B6A019308483B460ECBE3
:1050000000F090F8044B01221A700023FB75FB7D21
:1050100018461837BD4680BDF8060020FC06002063
:10502000F406002080B483B000AF78607B68184637
:105030000C37BD465DF8047B704700BF80B582B079
:1050400000AF78607B681846FFF7ECFF7B680022B2
:105050005A607B6800229A607B680022DA607B6875
:1050600018460837BD4680BD80B483B000AF786075
:105070007B6818460C37BD465DF8047B704700BF5F
:1050800080B582B000AF78607B681846FFF7ECFF10
:105090007B6800225A607B6800221A607B68184691
:1050A0000837BD4680BD00BF80B586B000AFF86050
:1050B000384680E80E000023FB75FB68083318466D
:1050C0001749032201F05AF80346002B0CBF0123B5
:1050D0000023DBB2002B1BD0FB689B6818463B46C5
:1050E0000ECB01F061FAFB680022DA60FB68002257
:1050F0001A70FB6800225A60FB689B68184664219E
:1051000001F0E8FAFB689B68184601F0BDFA01E07F
:105110000223FB75FB7D18461837BD4680BD00BFD6
:105120008096980080B584B000AFF860384680E87B
:105130000E00FB68FA695A60BA69FB681A60FB687E
:105140001B6818463B460ECB01F066FA1037BD4689
:1051500080BD00BF80B584B000AF78600B467B8017
:1051600013463B800C4BFB603B887A8802FB03F3C1
:105170001A46FB68B3FBF2F3FB607B68FA68DA60FF
:105180007B689A687B68DB6810461946024A01F022
:10519000AFFA1037BD4680BD8096980080B584B0C8
:1051A00000AF78600B467B807B68DB68FB607B88A8
:1051B000B3F57A7F02D94FF47A737B807A88FB68E3
:1051C00002FB03F3FB60FB68074AA2FB03239B0976
:1051D000FB607B689B681846F968044A01F0A8FAEE
:1051E0001037BD4680BD00BFD34D62108096980039
:1051F00080B584B000AF78600B467B807B685B68CD
:105200001B68FB607B88B3F57A7F02D94FF47A7311
:105210007B807A88FB6802FB03F3FB60FB68074A2C
:10522000A2FB03239B09FB607B681B681846F96897
:10523000034A01F08FFA1037BD4680BDD34D62108E
:105240008096980080B582B000AF786039607B6846
:10525000012B0AD13B684FF6FF72934205D10448F7
:10526000FFF7ECFE0348FFF70BFF0837BD4680BD94
:10527000E4060020FC06002080B500AF01204FF6B8
:10528000FF71FFF7DFFF80BD80B483B000AF03463E
:10529000FB71084997F907305B09FA7902F01F02A0
:1052A000012000FA02F241F823200C37BD465DF8D8
:1052B000047B704700E100E080B483B000AF034698
:1052C000FB71094997F907305B09FA7902F01F026F
:1052D000012000FA02F2603341F823200C37BD466A
:1052E0005DF8047B704700BF00E100E080B483B04C
:1052F00000AF786039607B68DA6C3B68DB431A404A
:105300007B68DA640C37BD465DF8047B704700BFEC
:1053100080B500AF024B1B68184600F001F980BD54
:105320000407002082B090B58DB008AF7860396076
:1053300007F1200181E80C000123FB73174B1B7858
:1053400083F00103DBB2002B1FD07B68144A1A6084
:105350007B681B68134A136001AC07F12C0393E8C8
:10536000070084E8070004AC07F1380393E807005E
:1053700084E80700BB6A009307F120030CCB0848C0
:10538000396800F039F80346FB73FB7B1846143785
:10539000BD46BDE8904002B0704700BF080700203E
:1053A0000C0700200407002080B483B000AF7860B1
:1053B0007B6818460C37BD465DF8047B704700BF1C
:1053C00080B582B000AF78607B681846FFF7ECFFCD
:1053D0007B6800221A607B68002283F8CC207B68FF
:1053E000002283F8CE207B68002283F8CD207B68E2
:1053F00018460837BD4680BD82B0B0B58CB002AF4C
:105400007860396007F1380181E80C00002387F8E3
:1054100027307B681846FEF771FD0346012B0CBF51
:1054200001230023DBB2002B03D0022387F82730AF
:1054300066E07B681A68374B1C3319467B68683313
:105440001C464FF440230093104622466423FEF787
:10545000FBFD7B681B681846FEF7DCFD2E4B07F151
:105460000C041D460FCD0FC495E8030084E803002B
:105470003B687B61294B18460121FBF73BFC254A21
:1054800007F10C0310461946FDF72EFA97F839304C
:1054900097F838201846114604220123FCF7DCFC5B
:1054A00097F8513097F850201846114604220123EE
:1054B000FCF7D2FC97F8453097F84420184611467F
:1054C00001220023FCF7C8FC124B0B225A6711483B
:1054D000104B9A6FF96BBB6C19437B6D0B431343F5
:1054E00083670D235BB21846FFF7CEFE0D235BB238
:1054F0001846FFF7E1FE074B18460521FDF7C2F9F4
:1055000097F8273018462837BD46BDE8B04002B0AE
:10551000704700BF000001406C2002000042040000
:1055200080B582B000AF78607B6893F8CC207B6850
:1055300093F8CD309A4210D00C487B6893F8CC3069
:105540005A1CD1B27A6882F8CC101A467B68134490
:105550001B791946FDF7B2FA04E0044B1846012105
:10556000FFF7C4FE0837BD4680BD00BF0000014004
:1055700080B582B000AF786039607B68012B07D1BD
:105580003B684FF6FF72934202D10348FFF718FFC2
:105590000837BD4680BD00BF0C07002080B500AFB6
:1055A00001204FF6FF71FFF7E3FF80BD80B483B0A9
:1055B00000AF0346FB71084997F907305B09FA7998
:1055C00002F01F02012000FA02F241F823200C37FA
:1055D000BD465DF8047B704700E100E080B483B015
:1055E00000AF0346FB71094997F907305B09FA7967
:1055F00002F01F02012000FA02F2603341F823207A
:105600000C37BD465DF8047B704700BF00E100E049
:1056100080B483B000AF786039607B683A681A6202
:105620000C37BD465DF8047B704700BF80B483B083
:1056300000AF786039607B685A6A3B68DB431A4088
:105640007B685A620C37BD465DF8047B704700BF2B
:1056500080B483B000AF786039607B685A6A3B6879
:105660001A437B685A620C37BD465DF8047B70476D
:1056700080B500AF044B1B68184600F09DFB034843
:105680000221FFF7C5FF80BDDC07002000E40440D5
:1056900082B090B58BB004AFF8607A60FB620B46C5
:1056A000FB720123FB75164B1B7883F00103DBB201
:1056B000002B1CD0FB68134A1A60FB681B68124A57
:1056C0001360FA7A97F8383002936C4607F130038A
:1056D00093E8030084E80300FB6A0A4811467A68ED
:1056E00000F048F80346FB75054B01221A70FB7D5C
:1056F00018461C37BD46BDE8904002B0704700BF59
:10570000E0070020E4070020DC07002080B483B01D
:1057100000AF78607B6818460C37BD465DF8047BA7
:10572000704700BF80B582B000AF78607B681846D4
:10573000FFF7ECFF7B6800221A707B680022C3F839
:10574000D8217B68002283F8DC217B6800225A6024
:105750007B680022DA607B6800229A607B68002206
:105760001A617B68042283F8DF217B6818460837BA
:10577000BD4680BD82B080B586B000AFF8607A606B
:105780007B620B46FB720023FB75FB7A0133DAB2B6
:10579000FB681A70FB687A68C3F8D821FB6814228A
:1057A00083F8DC21FB6803F10C0297F830301046D7
:1057B0001946FDF783FB0346002B06D0002B05DBC3
:1057C000022B03DC0423FB7500E000BFFB7D002BF4
:1057D00040F08280FB68043318467968002200F0AC
:1057E000CDFC0346032B77D801A252F823F000BF6B
:1057F00001580100D3580100595801008D5801008B
:10580000FB685B681846694901F07CF8FB685B68D7
:105810001846674901F094F8FB685B68184607F181
:1058200024030ECB00F0C0FEFB685B68184600F056
:10583000EBFFFB685A68FB68D03310461946152207
:1058400001F012F8FB685A68FB6878331046194675
:10585000152201F029F83FE0FB685B6818465349C0
:1058600001F050F8FB685B681846514901F068F890
:10587000FB685B68184607F124030ECB00F094FE2A
:10588000FB685B68184600F0BFFF25E0FB685B68BB
:105890001846464901F036F8FB685B6818464449EB
:1058A00001F04EF8FB685B68184607F124030ECB45
:1058B00000F07AFEFB685B68184600F0A5FFFB6805
:1058C0005A68FB68D03310461946152200F0CCFF09
:1058D00002E00223FB7500BFFB7D002B27D1FB6894
:1058E00010331846FEF734F80346012B1CD0022B68
:1058F00013D0002B00D01AE0FB681B69184600216A
:10590000FEF7C4F8FB681A69FB6803F5C07310461C
:1059100019461522FEF7CAF809E0FB681B6918460C
:105920000021FEF7B3F802E00523FB7500BFFB7D05
:10593000002B2ED1FB68083318460021012200F00D
:105940001DFC0346032B24D801A252F823F000BF0C
:10595000615901008D5901008159010081590100EF
:10596000FB689B68184600F04FFFFB689A68FB686D
:1059700003F5947310461946152200F075FF08E0F0
:10598000FB689B68184600F03FFF02E00323FB75AD
:1059900000BFFB68042283F8DF21FB7D184618371F
:1059A000BD46BDE8804002B0704700BFF95D010010
:1059B0000D5E010080B582B000AF78600C4B002214
:1059C0001A707B685B68184600F0C6FD7B68DB6870
:1059D0001846FDF74DFB7B689B68184600F0BCFD40
:1059E0007B681B691846FEF7ADF80837BD4680BDD9
:1059F000E007002090B587B000AFF860B9607A602A
:105A00007B80FB685B68184600F06EFF0346C3F1BD
:105A10001503BB75FB6893F8DC310133DAB2FB6820
:105A200083F8DC21FB6893F8DC31152B06D1FB6889
:105A3000002283F8DC211423FB7504E0FB6893F853
:105A4000DC31013BFB75FC7DFB685A68FB68D3F8D1
:105A5000D8311046B9681A4600F090FE0146FB683E
:105A600004F11E0243F82210FC7DFB685A68FB68B3
:105A7000D3F8D831104679681A4600F07FFE014607
:105A8000FB6804F1340243F82210FB6893F8DC3120
:105A90001C46FB689968FB681B78013BDAB2FB681F
:105AA000D3F8D831084611461A46BB6800F088FE84
:105AB0000146FB6804F14A0243F82210FB6893F8A0
:105AC000DC311C46FB681A697B8810461946FEF7D4
:105AD0000BF803461946FB6804F1600243F82210F4
:105AE000FB6893F8DC31BA7D9A4232D1FB68596881
:105AF000FA7DFB681E3253F822300846194600F042
:105B000009FEFB685968FA7DFB68343253F822308D
:105B10000846194600F0DEFDFB689968FB6893F8BB
:105B2000DC311A46FB684A3253F8223008461946DF
:105B300000F0D0FDFB681969FB6893F8DC311A4668
:105B4000FB68603253F822309BB208461946FDF7D5
:105B50009DFFFB7D5A1CFB681E32002143F822107A
:105B6000FB68002283F8DF211C37BD4690BD00BFD3
:105B7000B0B590B000AFF860B9607A607B80FB6828
:105B80005A68FB68D3F8D8311046B9681A4600F055
:105B9000F5FD0346BB63FB685A68FB68D3F8D83150
:105BA000104679681A4600F0E9FD03467B63FB68FE
:105BB0009968FB681B78013BDAB2FB68D3F8D831EF
:105BC000084611461A46BB6800F0FAFD03463B63DF
:105BD000FB681A697B8810461946FDF785FF034666
:105BE000FB62FB685B681846B96B00F093FDFB68CD
:105BF0005B681846796B00F06DFD0023FB631AE0CB
:105C0000FB68FA6B1E32B96B43F82210FB68FA6B23
:105C10003432796B43F82210FB68FA6B4A32396BE5
:105C200043F82210FB68FA6B6032F96A43F82210DD
:105C3000FB6B0133FB63FB6B142BE1DDFB68DA6864
:105C4000FB6814331946FB681B7810461A46FDF7AB
:105C5000EFF91F480221FBF77DFA1E480121FBF7EF
:105C600049F81D480121FBF745F82620FFF7B6FC4F
:105C70002620FFF79BFC194B07F114041D460FCD9E
:105C80000FC495E8030084E80300B7F85030FB61C7
:105C900007F1140312481946FCF7E8FB10480021ED
:105CA0000122FCF7ABFB0E480221FFF7B1FC0C48C8
:105CB0000221FFF7CDFCFB685B68184600F0E4FCAE
:105CC000FB68002283F8DF214037BD46B0BD00BF2E
:105CD00002001A0000250800002A1A008420020091
:105CE00000E4044080B582B000AF78607B685B68F8
:105CF000184600F0C9FC7B68002283F8DF217B682E
:105D0000DA687B68143319467B681B7810461A469C
:105D1000FDF78EF90837BD4680BD00BF80B485B061
:105D200000AF786039600023FB600DE0FB685B002A
:105D30003A681A447968FB6808335B000B449B8817
:105D40001380FB680133FB607B681B781A46FB6895
:105D50009A42EBDC1437BD465DF8047B704700BF08
:105D600080B584B000AF78607B685B68184600F04F
:105D700099FC7B689B68184600F094FC7B680422C1
:105D800083F8DF217B685B68184600F0ADFD0346B1
:105D9000C3F11503FB73FB7B002B04D17B6814223A
:105DA00083F8DC2105E0FB7B013BDAB27B6883F8FA
:105DB000DC211037BD4680BD80B582B000AF786071
:105DC0000C480221FFF732FC0A480021FCF7EAFAEE
:105DD0007B68052283F8DF217B685B68184600F04A
:105DE00061FC7B689B68184600F05CFC0837BD4688
:105DF00080BD00BF00E4044080B500AF024B1B68CB
:105E0000184600F00DF880BDDC07002080B500AF1B
:105E1000024B1B68184600F015F880BDDC07002017
:105E200080B483B000AF78607B68002283F8DD2106
:105E30007B68012283F8DF210C37BD465DF8047BC7
:105E4000704700BF80B582B000AF78607B685B6848
:105E5000184600F093FD0346012B0CBF01230023DD
:105E6000DBB2002B04D07B68032283F8DF2103E040
:105E70007B68022283F8DF210837BD4680BD00BF62
:105E800080B485B000AF78607B6893F8DF31FB7336
:105E90007B6893F8DF31052B13D801A252F823F069
:105EA000C35E0100C35E0100B95E0100B95E01007E
:105EB000C35E0100B95E01007B68002283F8DF2128
:105EC00000BFFB7B18461437BD465DF8047B704766
:105ED00080B582B000AF786039607B68012B07D154
:105EE0003B684FF6FF72934202D10348FFF71AFC5A
:105EF0000837BD4680BD00BFE407002080B500AF75
:105F000001204FF6FF71FFF7E3FF80BD80B483B03F
:105F100000AF0346FB71084997F907305B09FA792E
:105F200002F01F02012000FA02F241F823200C3790
:105F3000BD465DF8047B704700E100E080B483B0AB
:105F400000AF0346FB71094997F907305B09FA79FD
:105F500002F01F02012000FA02F2603341F8232010
:105F60000C37BD465DF8047B704700BF00E100E0E0
:105F700080B483B000AF786039607B683A685A615A
:105F80000C37BD465DF8047B704700BF80B483B01A
:105F900000AF786039607B689A693B681A437B6818
:105FA0009A610C37BD465DF8047B704780B500AF41
:105FB000194BDB6803F00103002B07D0164B9B69DC
:105FC00003F00103002B01D0012300E00023002B8C
:105FD00007D0124B1B685B6C98470F480121FFF7F5
:105FE000C7FF0D4BDB6803F02003002B07D00A4BE3
:105FF0009B6903F02003002B01D0012300E0002364
:10600000002B07D0054B1B689B6C9847024820214A
:10601000FFF7AEFF80BD00BF00800140C80900202F
:1060200080B500AF194BDB6803F00103002B07D0EC
:10603000164B9B6903F00103002B01D0012300E004
:106040000023002B07D0124B1B685B6C98470F484E
:106050000121FFF78DFF0D4BDB6803F02003002BC0
:1060600007D00A4B9B6903F02003002B01D00123CA
:1060700000E00023002B07D0054B1B689B6C984762
:1060800002482021FFF774FF80BD00BF008401405B
:10609000CC09002080B500AF194BDB6803F0010389
:1060A000002B07D0164B9B6903F00103002B01D096
:1060B000012300E00023002B07D0124B1B685B6C10
:1060C00098470F480121FFF753FF0D4BDB6803F0A2
:1060D0002003002B07D00A4B9B6903F02003002B01
:1060E00001D0012300E00023002B07D0054B1B68E3
:1060F0009B6C984702482021FFF73AFF80BD00BF04
:1061000000A00140C409002080B500AF194BDB6836
:1061100003F00103002B07D0164B9B6903F001032A
:10612000002B01D0012300E00023002B07D0124BED
:106130001B685B6C98470F480121FFF719FF0D4B57
:10614000DB6803F02003002B07D00A4B9B6903F0A8
:106150002003002B01D0012300E00023002B07D0F7
:10616000054B1B689B6C984702482021FFF700FFF6
:1061700080BD00BF00A40140D0090020F0B593B05D
:106180000CAFF860B9601346FB710123FB75FB7916
:10619000032B00F2AF8001A252F823F0AD610100A1
:1061A000FF61010051620100A3620100544B1B78A2
:1061B00083F00103DBB2002B20D0FB68514A1A6048
:1061C000FB681B68504A1360504EBB680A934C4BE7
:1061D0000B936D4606F10C040FCC0FC50FCC0FC509
:1061E00094E8030085E8030096E80E00454800F0B7
:1061F000E1F80346FB75424B01221A707AE0444BEA
:106200001B7883F00103DBB2002B20D0FB68414AEE
:106210001A60FB681B68404A1360404EBB680A93D3
:106220003B4B0B936D4606F10C040FCC0FC50FCC06
:106230000FC594E8030085E8030096E80E00354892
:1062400000F0B8F80346FB75314B01221A7051E09B
:10625000334B1B7883F00103DBB2002B20D0FB68AB
:10626000304A1A60FB681B682F4A13602F4EBB68C8
:106270000A932B4B0B936D4606F10C040FCC0FC504
:106280000FCC0FC594E8030085E8030096E80E00E4
:10629000244800F08FF80346FB75214B01221A7049
:1062A00028E0234B1B7883F00103DBB2002B20D0C6
:1062B000FB68204A1A60FB681B681F4A13601F4E68
:1062C000BB680A931A4B0B936D4606F10C040FCC76
:1062D0000FC50FCC0FC594E8030085E8030096E8CE
:1062E0000E00144800F066F80346FB75104B0122BF
:1062F0001A7000BFFB7D18461C37BD46F0BD00BFBD
:10630000D4090020D8090020C4090020140000206E
:10631000D5090020240A0020C809002048000020D8
:10632000D6090020700A0020CC0900207C00002043
:10633000D7090020BC0A0020D0090020B0000020AE
:1063400080B483B000AF78607B6818460C37BD46D8
:106350005DF8047B704700BFB0B582B000AF7860D5
:106360007B681846FFF7ECFF7B6800221A607B68A9
:1063700000221A717B6800229A607B680022DA6032
:106380007B680B4A03F1100415460FCD0FC40FCDE7
:106390000FC40FCD0FC42B6823607B6800225A64A2
:1063A0007B6800229A647B6818460837BD46B0BDFA
:1063B0001400002084B0B0B586B000AF786007F15B
:1063C0002C0080E80E000023FB757B6803F11004AD
:1063D00007F12C050FCD0FC40FCD0FC40FCD0FC487
:1063E0002B6823607B681A69564B1B689A421FD141
:1063F0007B6808331846FDF781FD0346012B0CBF6F
:1064000001230023DBB2002B02D00223FB7524E022
:106410007B680C331846FDF771FD0346012B0CBF5A
:1064200001230023DBB2002B17D00323FB7514E0FC
:106430007B681A69444B1B689A420ED17B6808330B
:106440001846FDF75BFD0346012B0CBF012300231B
:10645000DBB2002B01D00223FB757B687A6E1A60D9
:106460003B6EB3F57A7F2AD0B3F57A7F06DC0A2B30
:106470002BD0642B26D0002B12D029E0334A934234
:1064800017D0324A934204DC42F21072934213D086
:106490001EE02F4A934209D02E4A934203D017E0C0
:1064A0000023BB7514E00223BB7511E00323BB7509
:1064B0000EE00423BB750BE00523BB7508E0062343
:1064C000BB7505E00723BB7502E00823BB7500BF61
:1064D0007B6803F1100407F12C050FCD0FC40FCD1D
:1064E0000FC40FCD0FC42B6823607B68BA7D1A716F
:1064F0007B685B6918460121FAF7FCFB7B6807F1B2
:10650000080424330FCB07C423707B681B79BB724C
:106510007B681A6907F1080310461946FCF7D6F89C
:106520007B681B694FF0FF32DA617B681B696FF093
:1065300001025A62FB7D18461837BD46BDE8B040DF
:1065400004B070471400002048000020A08601001D
:1065500040420F008096980080B582B000AF78600E
:106560007B681B6902225A607B685B6918460021C0
:10657000FAF7C0FB7B681B6800221A707B689B6877
:10658000002B04D07B689B681846FDF7B9FE7B683A
:10659000DB68002B04D07B68DB681846FDF7B0FE93
:1065A0000837BD4680BD00BF80B588B000AFF86039
:1065B000384680E80E007A783B781946BB7810465A
:1065C0001A460023FBF748FC124A07F1140307CAD6
:1065D00003C31A800233120C1A70FB681A6907F1A0
:1065E0001403104601211A46FCF7DEF8FB681B690C
:1065F000FA681269126B42F002021A63FB681B69A7
:10660000FA681269516B7A680A435A632037BD46AB
:1066100080BD00BF9C20020080B588B000AFF8604C
:10662000384680E80E007A783B781946BB781046E9
:106630001A460023FBF710FC124A07F1140307CA9D
:1066400003C31A800233120C1A70FB681A6907F12F
:106650001403104602211A46FCF7A6F8FB681B69D2
:10666000FA681269126B42F004021A63FB681B6934
:10667000FA681269516B7A680A435A632037BD463B
:1066800080BD00BF9C20020080B483B000AF786062
:106690007B681B6901225A600C37BD465DF8047B9C
:1066A000704700BF80B483B000AF78607B681B691F
:1066B00002225A607B681B694FF0FF32DA617B6807
:1066C0001B696FF001025A620C37BD465DF8047B0E
:1066D000704700BF80B483B000AF786039607B68DA
:1066E0001B693A681A620C37BD465DF8047B704737
:1066F00090B585B000AFF860B9607A60FB681C693E
:10670000F868B9687A6800F039F8034623621437EC
:10671000BD4690BD80B483B000AF786039607B68BF
:106720001B693A68DA670C37BD465DF8047B704731
:1067300090B585B000AFF860B9607A60FB681C69FD
:10674000F868B9687A6800F019F80346E367143707
:10675000BD4690BD90B585B000AFF860B9607A6075
:10676000FB681C69F868B9687A6800F007F80346A6
:10677000C4F88C301437BD4690BD00BF80B586B0DC
:1067800000AFF860B9607A60FB685B691846FAF799
:1067900017FB03467B617A697B68B2FBF3F37B618D
:1067A0007B69BA6802FB03F37B61FB681B791A46BD
:1067B0007B69D3407B617B6918461837BD4680BD35
:1067C00080B586B000AFF8607A603B600B46FB7224
:1067D000FB685B691846FAF7F3FA03467B617A694E
:1067E0007B68B2FBF3F37B617B693A6802FB03F3DE
:1067F0007B61FB7A7A69B2FBF3F37B617B691846B4
:106800001837BD4680BD00BF80B586B000AF786048
:1068100014480121FAF76EFA7B6893F83C30194668
:106820007B68DA697B681B6A084611461A464FF492
:106830008013FBF707FF7A6807F10C033132106809
:10684000516803C31189927A19809A707B681A691A
:1068500007F10C03104600211A46FBF7A5FF183775
:10686000BD4680BD00450800B0B586B002AFF860F7
:10687000B9601346FB71FB689A68FB681B6920339B
:106880001D46FB681B6CFC7900931046B9682A46CC
:106890002346FDF78DFCFB689B681846FDF7BAFBA5
:1068A0001037BD46B0BD00BFB0B586B002AFF860CE
:1068B000B9601346FB71FB68DA68FB681B697C33BF
:1068C0001D46FB681B6CFC7900931046B9682A468C
:1068D0002346FDF76DFCFB68DB681846FDF79AFB65
:1068E0001037BD46B0BD00BF80B582B000AF786044
:1068F0007B689B681846FDF7C9FC034618460837B5
:10690000BD4680BD80B582B000AF786039607B68DD
:106910001B7E5BB21846FFF711FB7B681B7E5BB2E8
:106920001846FFF7F3FA7B681B6918460121FFF749
:106930002DFB7B683A685A640837BD4680BD00BFAE
:1069400080B582B000AF786039607B681B7E5BB237
:106950001846FFF7F3FA7B681B7E5BB21846FFF719
:10696000D5FA7B681B6918462021FFF70FFB7B686F
:106970003A689A640837BD4680BD00BF80B485B0D0
:1069800000AF78600023FB737B681B699B6803F092
:106990000103002B14BF01230023DBB2002B0ED018
:1069A0007B681B69DB6F002B0CBF01230023DBB26C
:1069B000002B02D00123FB7301E00223FB73FB7B5E
:1069C00018461437BD465DF8047B704790B583B018
:1069D00000AF786039607B68012B40F0C2803B6873
:1069E0004FF6FF72934240F0BC805F4B00221A7555
:1069F0005D4B00225A755C4B00229A755A4B00225F
:106A0000DA75594B00221A76574B00225A76564BAC
:106A100001229A76544B0022DA76534B00221A77E1
:106A2000514B00225A77504B00229A774E4B00224E
:106A3000DA774D4B002283F820204B4B4B4903F172
:106A400021020B4603CB1060516019889B7811819D
:106A50009372474B474A03F1140413460FCB07C404
:106A60002370434B444903F121020B4603CB1060D2
:106A7000516019889B7811819372404B00221A75DE
:106A80003E4B00225A753D4B00229A753B4B00222B
:106A9000DA753A4B00221A76384B00225A76374B79
:106AA00000229A76354B0022DA76344B00221A7790
:106AB000324B00225A77314B00229A772F4B00221B
:106AC000DA772E4B002283F820202C4B274903F144
:106AD00021020B4603CB1060516019889B7811810D
:106AE0009372274B00221A75254B00225A75244BAE
:106AF00000229A75224B0022DA75214B00221A7669
:106B00001F4B00225A761E4B00229A761C4B002205
:106B1000DA761B4B00221A77194B00225A77184B52
:106B200000229A77164B0022DA77154B002283F861
:106B30002020134B0D4903F121020B4603CB1060BB
:106B4000516019889B78118193720E48FFF704FCFD
:106B50000D48FFF701FC0D48FFF7FEFB0C48FFF75F
:106B6000FBFB0C37BD4690BD14000020A82002009E
:106B700048000020B4200200C42002007C00002055
:106B8000B0000020D8090020240A0020700A00204C
:106B9000BC0A002080B500AF01204FF6FF71FFF75F
:106BA00015FF80BD03685A004CBF43F0004323F03B
:106BB00000431844704700BF2DE9F04F83B099B3EC
:106BC0004B1E1746054601939846002606EB08041F
:106BD00004EBD47464104FEAC40A05EB0A0B584660
:106BE000FFF7E0FF019B8146A3420AF10800284419
:106BF0000ED0FFF7D7FFB94500F1FF3004D9B442FA
:106C00000CD004F1FF38E1E7B84203D2661CDDE79F
:106C1000B945F4D8584603B0BDE8F08F4FF0000BEB
:106C2000584603B0BDE8F08F8B46584603B0BDE828
:106C3000F08F00BF012807D0022807D0044B00289E
:106C40000CBF184600207047024870470248704742
:106C500041730100457301004973010030B5244BB5
:106C600083B004468D1E7BB3284601A9AFF3008094
:106C700020B301992A46FFF79FFF0546F0B1FFF7C1
:106C800091FF6B68A064012B12D0002B05F104006A
:106C900020DBFFF787FF0023E06423650368002BF8
:106CA0001CDBFFF77FFF00232061184603B030BDD7
:106CB000002323610523184603B030BD0023236160
:106CC0000923184603B030BD0A490B48091AC910F8
:106CD0000191CFE70123E0642365DFE7C3F303609D
:106CE000FFF7A8FF002820610CBF09230023DCE781
:106CF00000000000783A0200283602000368DA0734
:106D000010B5044606D49B0700F1480009D500F0F1
:106D100085FC2368590709D51A070ED5DB0613D55C
:106D200010BD00F073FC23685907F5D404F1D000BE
:106D300000F07CFC23681A07F0D404F5A87000F07A
:106D40007DFC2368DB06EBD404F5E870BDE8104059
:106D500000F0B8BC03680BB1184470471846704780
:106D600009207047704700BF70B504460D4608E023
:106D70002B6C63610120236921462A469847082825
:106D800008D12046296CFFF769FF06460028EFD09E
:106D900009F0F6FF0728FBD13046296CFFF7E2FF28
:106DA000281D00F027FC00BF2DE9F0470C1D06460A
:106DB00017460FCCADF5727D03AD0FC50FCC0FC5D7
:106DC0000FCC0FC594E80F0002AC4FF0000ED6F8C0
:106DD0000C80D6F8189085E80F003046216CC4F876
:106DE00000E0FFF73BFF002F05460CBF09270A27ED
:106DF0007DB1A36B47F010018DE8100201206364A0
:106E000032463346C04778BB28460DF5727DBDE853
:106E1000F087236C736121464FF4F0727AA80AF070
:106E20006FF8336931467AAA38469847889B82467C
:106E30008DE8100239466364012032463346C0476C
:106E400090B920467AA94FF4F0720AF059F8BAF1D5
:106E5000080F06D13046216CFFF700FF09270546D1
:106E6000C6E7BAF1070F04D009200DF5727DBDE821
:106E7000F0872846216CFFF775FF03A800F0BAFBE6
:106E8000406C7047F0B5CB6B0B640E1D0F4604468B
:106E90000FCEF9B001AD0FC50FCE0FC50FCE0FC588
:106EA00096E80F004FF0FF3685E80F00009606E0E9
:106EB000236921466A4698470828054608D1204696
:106EC0001099FFF7CBFE0028F2D0092079B0F0BD71
:106ED0006846FFF713FF062DF7D120463946FFF726
:106EE00043FF00BF30B4DD6BC160826119461D6491
:106EF000002230BC58E700BF70B5C66843690B6418
:106F000004460D4626B10122FFF74EFF09F038FF77
:106F10000369214602202A469847072807D00828F7
:106F200003D120462946FFF71FFF09F029FF30460D
:106F3000296CFFF717FF281D00F05CFBC2681AB12F
:106F4000CA6B0A6400222FE79CE700BF704700BFAE
:106F5000836813B1014601201847704700B5042922
:106F600007D8DFE801F00309060909000BB90F2A69
:106F700005D902205DF804FB01205DF804FB00EB5D
:106F8000820218465368019A13605DF804FB00BF43
:106F900000B585B00A4603AB002100930B46FFF70E
:106FA000DDFF039805B05DF804FB00BF00B50429C0
:106FB00007D8DFE801F00309060909000BB90F2A19
:106FC00005D902205DF804FB01205DF804FB01995E
:106FD00000EB82020968516018465DF804FB00BFAF
:106FE00010B584B004AB0C4643F8042D0021009387
:106FF00022460B46FFF7DAFF04B010BDF0B5D36BA5
:107000001364151D07460E460FCDADF50F7D17AC69
:107010000FC40FCD0FC40FCD0FC495E80F004FF074
:10702000FF3584E80F00169510E016A8FFF7D8FF8B
:10703000314616A8B847694616AA78B9049B0820B5
:107040009847052804460AD0092807D0269968469B
:10705000FFF704FE6A460C210028E6D0092416A892
:10706000FFF74CFE20460DF50F7DF0BD2DE9F04FEA
:107070000D46C96C8BB00C1D0968079190460894A9
:1070800000F003091E46002B64D109020323079177
:107090008DF825608DF824302B6DB9F1020F08BFF3
:1070A000AC6B13F0010343D100F00800C2B20392AD
:1070B00001932768002F3DD0022E47D02788B4F8CF
:1070C00002A00434AB6C2AF0010B40460F219B4414
:1070D000FFF75EFF834537D827F001039B445845EF
:1070E0002CBF002001200AF0010A07F0010747EA3F
:1070F0004A0ABAF1010F43D03AD3BAF1020F1FD1B5
:10710000236823F000420292B9F1000F7BD138B11D
:10711000039A002A00F08380029A002A00F0A680D9
:10712000002B7ADB029B03F1010A04EB8A04C0E71F
:1071300000230193022E40DDFFF712FE002842D00B
:1071400009200BB0BDE8F08F0020CCE7D4F804A0F4
:107150000834B7E7022B9FDC0B0CDFB209040222D4
:107160008DF8253004EB870407918DF8242093E7F0
:10717000B9F1000F02D0002840F0AD80043498E748
:10718000B9F1000F26D1B0B194E80C00D70F9A1CCA
:10719000D6D005F158020133069200F09280201DEE
:1071A000FFF7D8FD3A46014606AB284600F09EFFA1
:1071B000002840F0B58008347BE7404607A900F07E
:1071C0001BFB0028BCD1019B002B59D108200BB020
:1071D000BDE8F08F40460D212F6AFFF7D9FE8742A8
:1071E000E9D1AB6A9C42E6D12046FFF7DBFC0F21D8
:1071F00002464046FFF7F4FE40462A460021FFF7CC
:10720000EFFE07209DE740460D212F6AFFF7C0FEE5
:10721000874245D02368002B84DA043482E7029B3E
:1072200023B305F15803059604F1040A039FDDF822
:1072300008B0CDF810901E4602E0D9454F4615D053
:1072400050460696FFF786FD0022014606AB28460B
:1072500000F04CFF07F101090AF1040A0028ECD004
:10726000029BDDF81090059E9F42D3D140460D2130
:10727000FFF78EFE069B2862AC626B62062060E719
:107280000F214046FFF784FE0E2102464046FFF7DD
:10729000A7FE40460F21294AFFF7A2FE072050E72C
:1072A000AB6A9C42B6D104220027A3180299A962B6
:1072B000EF622A636B632368BB421FDB01230193E8
:1072C00030E740460D21FFF763FE2862069B6B62A4
:1072D000AC62062035E72046FFF764FC043406461E
:1072E000AC63284600F060FF00283FF429AF404619
:1072F00032460F21FFF774FE072022E708460130CF
:1073000004EB8000FFF74EFC0F2102464046FFF7DA
:1073100067FE404639462A46FFF762FE072010E71F
:1073200007460D214046FFF733FE022F2862CDD1DC
:107330002B46069A43F82C2F6B62C9E76D82010039
:10734000002393E6012391E602238FE6F0B505467C
:10735000C5B004290CD8DFE801F056030B300E004D
:10736000012B4FEA124496B265D0052B00F08480C1
:10737000022045B0F0BD002BFAD1102AF8D82B68B6
:10738000DC0600F1EB8022AE3046019200F0A4F959
:10739000A86B019A0023012404FA03F1114203D0DF
:1073A000016846F8231004300133042BF4D1A8639C
:1073B000304600F087F90020DBE7032BD8D1140C0E
:1073C00097B23B19102BD3D82B681E0700F1E6802B
:1073D00022AE30467F0000F053F906EBC4027B1E5C
:1073E000AC6B57B1043A214651F8040B42F8040F34
:1073F000013B581CF8D104EB87043046AC6300F025
:107400001DF90020B5E7002BB2D1AC6B97B2281D57
:10741000012606FA03F1394203F1010302D0216883
:1074200001600434102B00F10400F2D112F400507A
:1074300020D1AC639DE73219102A99D80F2C97D828
:107440002968C8074FF0000755D422A8019300F01F
:10745000E1F8019B19E008463746012B00F09880BF
:107460000F2CA86302D822A800F0D8F817B102A800
:1074700000F0DCF800207CE73719202F3FF678AFCA
:107480000F2C30D93746002E45D1A96B3246002E3D
:10749000E1D0002744A84FEA420C00EBC4000CF1F5
:1074A000FF328C388E465EF8046B40F8046F013A68
:1074B000561CF8D101EB8C00002FCED0102C2246A8
:1074C00044A938BF102201EBC202A2F5C4720146E2
:1074D0007800043A01EB800051F8046B42F8046F25
:1074E0008142F9D1B9E7102F42D92A68D007A7F114
:1074F0001007114610D521F00102052B2A600193D7
:1075000028465BD021F0030140F8481B00F082F8C8
:10751000019B002F4AD02A6851075BD4012B63D00E
:107520000F2C04D822A8019300F07CF8019B002FB7
:10753000ABD002A8019300F07DF8019BA96BC4F1C8
:107540001002002AA6DC102C224644A838BF1022C4
:1075500000EBC202A2F5C4727800BAE723F0100370
:107560002B6005F5E870019200F0B6F8019A0AE781
:107570002968C8071DD521F00102284642F0020201
:1075800040F8482B0193002700F04CF8019BC9E715
:107590000430A86322A800F039F86BE723F0080351
:1075A0002B6005F5A87000F06BF811E7012B3FF494
:1075B0004CAF0F2C98BF0027B4D966E742F0020207
:1075C00040F8482B00F02EF8019B002FAAD02A6823
:1075D0005107A5D5284622F0040240F8D02B01938C
:1075E00000F028F8019B99E722A8019300F012F817
:1075F000019BA3E700F1340191E838009C46A646C0
:107600004CF8045D90E8FF0FE54600BD90EC210BBF
:10761000704700BF80EC210B704700BF90EC200B3F
:10762000704700BF80EC200B704700BFD0EC200BF0
:10763000704700BFC0EC200B704700BFF0EC0201A8
:10764000F0EC0211F0EC0221F0EC0231F0EC02411E
:10765000F0EC0251F0EC0261F0EC0271F0EC02810E
:10766000F0EC0291F0EC02A1F0EC02B1F0EC02C1FE
:10767000F0EC02D1F0EC02E1F0EC02F1704700BF57
:10768000E0EC0201E0EC0211E0EC0221E0EC02315E
:10769000E0EC0241E0EC0251E0EC0261E0EC02714E
:1076A000E0EC0281E0EC0291E0EC02A1E0EC02B13E
:1076B000E0EC02C1E0EC02D1E0EC02E1E0EC02F12E
:1076C000704700BFB0FC0181B0FC0191B0FC01A18A
:1076D000B0FC01B1704700BFA0FC0181A0FC01918A
:1076E000A0FC01A1A0FC01B1704700BFEC4600B5B1
:1076F0002DE900502DE9FF1F4FF000032DE90C008C
:1077000001A9FFF7BFFBDDF840E012B0704700BFF2
:10771000EC4600B52DE900502DE9FF1F4FF00003A6
:107720002DE90C0001A9FFF7E7FBDDF840E012B0FE
:10773000704700BFEC4600B52DE900502DE9FF1F52
:107740004FF000032DE90C0001A9FFF7F7FBDDF86E
:1077500040E012B0704700BFEC4600B52DE9005084
:107760002DE9FF1F4FF000032DE90C0001ABFFF7DF
:10777000B9FBDDF840E012B0704700BFEC4600B541
:107780002DE900502DE9FF1F4FF000032DE90C00FB
:1077900001AAFFF733FCDDF840E012B0704700BFEC
:1077A000037A1BB9437A43B9B02070475A1E036865
:1077B00002721A020260180E70474268013B10B450
:1077C000437213680321141D01721A02446002609F
:1077D0005DF8044B180E704700B585B003AB00216F
:1077E00000930C220B46FFF7B9FB039805B05DF838
:1077F00004FB00BFF0E700BF2DE9F043064685B06B
:107800000D464FF000082846FFF7CAFFB02804468F
:1078100000F0B58020F07F0111F0FF0120D000F0D2
:10782000F003802B7AD0902B36D0A02B49D0B02BF0
:107830005CD0C02B00F0898000F0F803D02B0BD176
:1078400000F00702013242F40022304601210523F4
:10785000FFF77CFD0028D6D0092005B0BDE8F083F5
:107860000DF10C090B468700CDF8009030460D2233
:10787000FFF774FBFFB2039BCDF80090043760065E
:107880004FF000014CBFDF1BFF1830460B460D22A6
:107890000397FFF78BFBB6E700F00D030D2BDBD052
:1078A00003AF002100F00F020B4600973046FFF7B0
:1078B00055FB002100970B4630460D22FFF776FB63
:1078C000A1E7C34303F007034FF47F621A410107A6
:1078D00002F47F624FF0000148BF42F480420B4641
:1078E0003046FFF733FD0028B6D18CE7B1284CD0E5
:1078F000B2285DD0B32800F08A8000F0FC03B42BDE
:10790000AAD000F007020132012142F400220B4606
:107910003046FFF71BFD00289ED174E72846FFF78D
:107920003FFF24022043B0F5004F95D00401002111
:10793000A2B20B463046FFF709FD00288CD114F4A3
:10794000004F18BF4FF001085DE7C62872D0C72866
:107950007AD000F0F803C02B00F08980C82800F02E
:10796000A580C9287FF478AF2846FFF719FF00F0FB
:107970000F02013200F0F00042EA003265E7B8F190
:10798000000F00F08280002067E72846FFF708FF1D
:10799000024600283FF460AF10F0F0017FF45CAFC6
:1079A00030460B46FFF7D2FC00287FF455AF2AE79C
:1079B00000210DF10C090D220B46CDF80090304648
:1079C000FFF7CCFA2846FFF7EBFE02064FF0020461
:1079D0000CD5039B00F07F00A0400344284603938E
:1079E000FFF7DEFE030604F10704F2D4039BCDF893
:1079F000009000F07F00A04003F5017300211C18E7
:107A00000D220B4630460394FFF7D0FAFBE62846DA
:107A1000FFF7C6FE00F00F02013200F0F000012176
:107A200042EA00320B463046FFF790FC00287FF414
:107A300013AFE8E62846FFF7B3FE00F00F0201326D
:107A400000F0F0000321EBE72846FFF7A9FE02460D
:107A500000283FF401AF10F0F0037FF4FDAE304694
:107A60000421FFF773FC00287FF4F6AECBE600F0AC
:107A70000F020132032142F420220B463046FFF769
:107A800065FC00287FF4E8AEBDE603AC41460E225B
:107A9000434600943046FFF761FA00943046414671
:107AA0000F224346FFF782FA4046D6E62846FFF704
:107AB00077FE00F0F00200F00F031032013343EACA
:107AC0000232C2E610B5C36C84B05A6803208DF848
:107AD0000C00DC798DF80D4012020833084601A92C
:107AE00001920293FFF788FE04B010BD08B5FFF7BE
:107AF00081FE806C08BD00BF08B5FFF77BFEC36C3C
:107B0000D87903EB8000083008BD00BF08B509F044
:107B100037F900BF08B509F033F900BF09F0D8B94B
:107B200030B500231A4610F8015B05F07F0494403D
:107B300023432C0602F10702F5D40B6030BD30B5AB
:107B400000231A4610F8014B04F07F0595402B43A3
:107B5000250602F10702F5D41F2A06D8640642BFA3
:107B60004FF0FF3404FA02F213430B6030BD50288B
:107B7000F7B505460F4614461E4605D1D01C20F029
:107B8000030050F8043B33E000F00F030C2B23D824
:107B9000DFE803F01A07121A1E222222220C161AFC
:107BA0001E00204601A9FFF7BBFF03E0204601A904
:107BB000FFF7C5FF019B11E0204630F8023B0DE0C6
:107BC000204630F9023B09E0204650F8043B05E02E
:107BD000204650F8083B01E009F0D2F843B105F027
:107BE0007002102A18BF3C4623442A0648BF1B686F
:107BF000336003B0F0BD08B50346FF2B08461CD028
:107C000003F07003202B0ED003D8B3B1102B12D188
:107C100013E0402B0BD0502B0FD0302B0BD1BDE8F5
:107C20000840FFF773BFBDE80840FFF773BFBDE82A
:107C30000840FFF75BBF09F0A3F8002008BD2DE95D
:107C4000F04107460C460846394616461D46FFF7E2
:107C5000D2FF324601462B462046BDE8F041FFF7F1
:107C600086BF73B50E461446054610B1FFF73EFFBA
:107C7000FFE720603178FF2906F1010205D0284690
:107C8000231DFFF7DCFF024600E0606013782375D8
:107C9000FF2B02F1010007D01023237501A9FFF784
:107CA0003FFF019B034400E00023E360037863751A
:107CB00001A90130FFF734FF019B0344236102B0A7
:107CC00070BD1FB50A4603AB002100930B46FFF7BA
:107CD00045F9039805B05DF804FB00002DE9F04F6D
:107CE00091B00023049300F00303012B05460C46DA
:107CF00017460ED002D3022B02D0E0E0010713D5C5
:107D000020463946FFF7DEFE08B1092092E108203F
:107D100090E102070AD40E6A38460D21FFF7D1FF21
:107D2000864203D1062602E0012600E0022610ABBF
:107D3000002143F82C4D05F0080500932E433846EA
:107D40000C220B46FFF732F9062E0CD1D4F8308006
:107D5000A56AD4F82C90B8F1000F0CBF4FF0010ABF
:107D60004FF0030A05E13846FFF7C6FE81460028BA
:107D7000C6D00AAA49463846FFF773FF394605467A
:107D80009DF83C00FFF737FF0F210C903846FFF7B6
:107D900098FF20F0010000F1FF380E9B9D4233D286
:107DA0002A469DF83D1006AB0020FFF748FF9DF8DE
:107DB0003D10024607AB0020FFF741FF08AB02462B
:107DC0009DF83D100020FFF73AFF09A9FFF7A8FE34
:107DD0000A9B069A13449845054601D20E9DDCE79E
:107DE000079A13449845D8D2089818B10B9B00EB1A
:107DF000030800E08046099810B10E9D0138284420
:107E0000B8F1000F05D17BE74FF000084FF0010AF1
:107E10000EE1002800F00A8116F0080512D0472371
:107E200023704E2363705523A3704323E3704623CE
:107E300023714F2363715223A3710023E3714FF029
:107E4000000A19E0E379012B0CBF54F8203C04F13F
:107E500058030493F3E74FF0020E0D9A0C9903FBBD
:107E60001E2209ABFFF783FE0999002962D074BB7B
:107E70000898002862D0584407A9FFF760FE08A9B7
:107E80008346FFF75CFE079B002B50D026DD9DF854
:107E90003C00FF2815D000F00702042A0FD801A1EA
:107EA00051F822F0C97E0100BF7E0100577E01001B
:107EB000C97E0100B97E01004FF0080ECDE708F041
:107EC0005FFF4FF0000EC8E74FF0040EC5E72046F5
:107ED000002204AB00F00AF960BBC9E70D995A1CF7
:107EE000D4B1CDB9049B0693A1EB8202A2F1040C9C
:107EF0005CF8041F61B161442046002206ABCDF856
:107F00000CC000F0F3F8DDF80CC00028F0D001211F
:107F100081F00101C9B207E06FF0030C0CFB02F223
:107F20008958B1FA81F149090029A1D002E04FF046
:107F3000010A9DE7079D4FF0030A06E0BAF1000F22
:107F40003FF4DEAE05464FF0020AF30711D5BAF151
:107F5000020F3FF4D5AE38460D21049EFFF7B1FE67
:107F600066622062A562C4F82C90C4F830800620B6
:107F700060E016F0080608D0BAF1010F01D100F058
:107F80007BF8002D24DA00F089F8BAF1010F02D154
:107F9000204600F05CF9002D1ADA0AAA4946384654
:107FA000FFF75FFE9DF83C003946FFF724FE6FF0B7
:107FB00003030D9A0C9005FB0333134453F826205A
:107FC0000AB10136FAE70422A662E0622263636323
:107FD00010AB002143F8244D0A46009338460B4667
:107FE000FEF7E4FF10AB002143F8205D012200936F
:107FF00038460B46FEF7DAFF0F213846FFF761FEE1
:1080000010AB00F0010040EA080043F81C0D00210D
:10801000009338460F220B46FEF7C8FFBAF1020F55
:1080200002D1204600F0C0F8072003E04FF0020A1A
:1080300000258AE711B0BDE8F08F00BF10B5002819
:1080400014BF04460124204608F03AFF30B900F07E
:1080500021F908B908F094FE8047F4E710BD08B58F
:10806000804708F08DFE0000024B1868BFF35F8F59
:10807000704700BFE400002008B5FFF7F5FFFFF7E9
:10808000EEFF08B58047FFF7F7FF0000024B1868C6
:10809000BFF35F8F704700BFE800002008B5FFF70F
:1080A000F5FFFFF7EEFF1EB400F09BF81EBCFFF7D4
:1080B0002FFB0378472B17D143784E2B14D18378AD
:1080C000552B11D1C378432B0ED10379432B0BD100
:1080D00043792B2B08D183792B2B05D1C07901282B
:1080E0008CBF002001207047002070472DE9F3412C
:1080F0001E460378C579472B0446884614D1437839
:108100004E2B11D18378552B0ED1C378432B0BD135
:108110000379462B08D143794F2B05D18379522B14
:1081200002D10DB9012005E02046FFF7C2FF00286B
:1081300030D0002000230022019280B98BB9012D9C
:108140000ABF54F8203CA4F12003783B012D08BF5E
:1081500054F8204C1F6818BF5834019402E0104FA7
:1081600000E0104F3B6838469B68984720B1019B60
:108170001B680193022400E00124D8F80030404637
:108180001D69394601AA0123A84728B1019B336024
:10819000204601E00123CEE702B0BDE8F08100BF38
:1081A000F02002001C21020070B5044600F0C0F867
:1081B00005462046A4F12006FFF77BFF50B154F896
:1081C000043C0133012B44F8043C08D1AB6844F86B
:1081D000083C03E0AB680BB1FFF74EFFAE60012037
:1081E00070BD70B500F0A4F8846805460CB9FFF7BF
:1081F00043FF04F120063046FFF75BFF38B1E36927
:10820000013BE36123B9A269AA60A36100E0A86011
:10821000304670BD0378472B17D143784E2B14D1CD
:108220008378552B11D1C378432B0ED10379432B7F
:108230000BD143792B2B08D183792B2B05D1C07916
:1082400001288CBF0020012070470020704710B526
:10825000044648B100F043F82046FFF7DBFF18B1B1
:1082600054F8140CFFF7FBFEFFF706FF70B5064647
:10827000FFF7D0FF18B156F8184C002501E004466E
:108280000125304600F02BF80DB1FFF707FF20461F
:10829000FFF7F7FE024B1868BFF35F8F704700BF10
:1082A000080B00200378472B17D143784E2B14D1AD
:1082B0008378552B11D1C378432B0ED10379432BEF
:1082C0000BD143792B2B08D183792B2B05D1C07986
:1082D00001288CBF00200120704700207047F8B5AE
:1082E000054600F025F8064604682846A5F1200753
:1082F000FFF7D8FF20B90CB1FFF7BEFE376015E0DD
:1083000055F80C3C002BB4BFC3F10103013345F811
:108310000C3C7368A74203F1FF33736028461CBF0F
:1083200045F8104C37606C6AFEF710FE2046F8BD29
:10833000004870470C0B00201F4BF7B51A781F4DF3
:1083400012B12B681E4831E001221A7008F0F0FCCF
:1083500050B34468194F23782A2B02AB08BF01346D
:1083600000214FF0FF3243F8042D20460A4608F062
:10837000EBFB2B680646D968124808F071FD019B9B
:1083800013B93B68304601E03B682046D96808F0E5
:1083900067FD2B680C48D96808F062FD019B43B962
:1083A000304608F095FD04E02B680848D96808F0CD
:1083B00057FD08F0E5FC00BF180B00204C01002021
:1083C00024210200422102007321020076210200D2
:1083D0007FB5102302930368002415469E6900941C
:1083E0006B468DF8044003941268B0479DF8043042
:1083F00003F00603062B03BF009B2B6001202046E1
:1084000004B070BD009890420CBF06200120704758
:1084100010B5034B0360044608F097FC204610BDDE
:10842000B021020010B50446FFF7F2FF2046FFF727
:1084300075FB204610BD38B515461C4608F08AFC71
:1084400020B10823E36006232560237138BD2DE9A0
:10845000F04106460C4615461F4608F07BFC48B91D
:10846000032F07D82368204631462A465B69BDE8BA
:10847000F0411847BDE8F0812DE9F041069E099CC6
:108480001F46089B9E428046154603D1079908F077
:1084900061FC48B94046394608F05CFC28B101232C
:1084A00026602571A37100E065710020BDE8F081B0
:1084B00070B44C1E4A2C2CD8DFE804F03C3C3C3C09
:1084C0002B2B2B2B26263C26262626262626262622
:1084D0002626262B27272727272727273C26262619
:1084E00026262B26273D3C2B3C27273D2B2B2626BB
:1084F0003C3C3C3C3C263C3C263C2B2B2626262B5D
:108500002B2B2626263C3C00CAB144698569AC4227
:1085100002DB002070BC704704EB4405066901349F
:10852000AD00446174190CD071556260A36020469F
:1085300070BC70471AB1002BE7D11846EAE7104625
:10854000E8E72046E6E700BF30B443698469A34208
:1085500009DA03EB430405690133A40043612B19D5
:1085600001D001B112B9002030BC7047002028555D
:1085700059609A60184630BC704700BFF8B5C368B0
:10858000154604460E461A780F4616E0562A24D0A1
:108590004B2A2FD1236BE160002D03F106032363E7
:1085A00014BF1E211B21002213462046FFF780FF27
:1085B0003860F0B1E3681A78071D722A03F10101EF
:1085C000E4D1226B002D03F1010302F10902E36003
:1085D000226314BF1C211921E5E7226B002D03F152
:1085E000010302F10902E360226314BF1D211A2175
:1085F000D9E7F8BDADB9462A13D1B74211D01D2035
:108600001E211C2207E01B2B0DD0192B00D132702C
:108610000436B74205D0366833781A2BF3D1307060
:10862000F6E73846F8BD3170F2E700BFC3680A4686
:10863000197852290BD04F2901D010467047016B91
:10864000013303310163C3602021002330E7016B54
:10865000013302310163C3601F21002328E700BFFB
:10866000C2681378532B01D0002070472DE9F041E8
:10867000531CC3605378EBB1931CC36054785F2CD8
:1086800026D10023026A934211D2826AC169013263
:10869000826251F82300BDE8F0810121424B03F1D1
:1086A000C4051A78A2423CD01C33AB42F9D1002059
:1086B000BDE8F0811C4683681B07EED40029EDD08D
:1086C000C3681978433901298CBF00210121E5E7EE
:1086D000A4F13005EBB2092B60D800210DE0303B4E
:1086E0009942E4D8C2681478511C1CB1C160147856
:1086F0005F2C14D0A4F130051946EDB2A4F141026B
:1087000001EBC103092DD2B204EB8303E7D9192A87
:10871000CDD801EBC10204EB8203373BE0E7013324
:10872000B0E75A69002A34D044698569D3F818C083
:10873000AC422CDA04EB4406D0F810E0B600013469
:108740001EEB0607446127D04FF018080EF806808C
:108750003E467A60C7F808C0C662A9B1DE681969EA
:10876000026BA5420A440263A1DD04EB44020569E1
:10877000631C92004361AB1899D01820A8545E6026
:1087800099601846BDE8F0815E689968E8E70026C0
:10879000E2E785694469E0E73E46DDE7A4F141038D
:1087A000192B9AD987E700BF0422020070B505464D
:1087B0000E461446002A48D02378013B4A2B2AD87B
:1087C000DFE803F03535353E2929262635353535A0
:1087D0003535353535353535353535293535353555
:1087E0003535353535352E2E353529353535353553
:1087F0003535353529263535353535353535353544
:1088000035352929352A2A2A2A293535353535009D
:10881000A468002CD0D170BD6468002CCCD1FAE7DC
:1088200062681378052B03D13368013333606268C3
:1088300028463146FFF7BAFFA468002CBCD1EAE70E
:108840002B6801332B606268F2E770BD70B50D468E
:10885000D0F80011FF29044606D04B1CC4F80031A3
:10886000655484F8045170BD0026D0F8083180F8B2
:10887000FF60D0F80C219847D4F8203131460133FD
:10888000C4F820310123C4F80031655484F8045140
:1088900070BD00BF70B4036819786E291BD0002525
:1088A0002E46A1F13003092B88BF00230ED80268A1
:1088B00000230132026003EB830301EB43031178D1
:1088C000A1F13004092CA3F13003F2D983EA0600A8
:1088D000284470BC70475A1C0260597801254FF03B
:1088E000FF36DEE743698269934214DA03EB430201
:1088F0000169920010B501338C18436108D0402300
:108900008B540C30FFF7C6FF23466060184610BD3D
:108910002346184610BD00231846704710B5C3689B
:108920001A785F2A04460BD06E2A06D00C30FFF767
:10893000B1FFE3681A785F2A06D04FF0FF3010BD10
:1089400000200133E36010BD0130FAE738B5C36899
:108950001A78542A044601D0002038BD0133C36080
:10896000FFF7DCFF051EF7DBA26A6369A16901322C
:108970008B42A262F0DA03EB4302216901339200D9
:1089800063618B18E8D005248C545D60184638BDAF
:1089900008B5C3681A785F2A01D0012008BD0133E9
:1089A00040F80C3FFFF776FFC043C00F08BD00BF83
:1089B00070B504460C30FFF76DFF061E32DDE5682A
:1089C00063685B1B9E422FDCA268AB195207E36011
:1089D00015D4092E0CDD28461449082208F080FA27
:1089E00030B92B7A2E2B10D05F2B0ED0242B0CD02D
:1089F000294632462046FFF7A7FDE06270BDAA5D1A
:108A0000242A04BF0133E360E3E76B7A4E2BEFD1F6
:108A1000236B074916339E1B266320461522FFF75A
:108A200093FDEAE7002070BD0020E6E73C29020044
:108A30004829020038B5044629B9C3681A7832B10A
:108A40005A1CC2601978682912D0762901D00020FA
:108A500038BD04F10C052846FFF71CFFE3681A78BF
:108A60005F2AF4D10133E3602846FFF713FF03E0E8
:108A700004F10C00FFF70EFFE3681A785F2AE6D1D5
:108A80000133E360012038BDD0F810310246C3B194
:108A90005A680B68906870B102782F2A0DD1002BAC
:108AA00004DC09E002782F2A07D143B18068013B3A
:108AB0000028F7D17047704701D000207047406808
:108AC000704701211846C2F81811704738B505469D
:108AD0000C4691B323784A2B27D8DFE803F02E26E3
:108AE000262626302E2B2B2626262626262626260A
:108AF0002626262626262E2626262626262626260E
:108B000026262626262E2626262626262626262EF5
:108B10002B2626262626262626262626262E2626E8
:108B200026262E262E26262E2E0028466168FFF7A2
:108B3000CDFF18B9A468002CCCD1002038BD284640
:108B4000211DFFF7A1FF0028F7D003782F2BF4D1C8
:108B500038BD00BFF0B55368946801330B44A3429D
:108B600083B015460E46074613D8EC680CB103B027
:108B7000F0BD95E8090032463946184408F0C0F9BE
:108B80002B686A6833449C546B681E446E6003B063
:108B9000F0BDD268002AEAD11CB9022B4FF00204C2
:108BA00002D96400A342FCD82868214608F056FA8E
:108BB00010B12860AC60D8E70190286808F088F907
:108BC000019B2B6001226B60AB60EA60CFE700BFC6
:108BD0002DE9F041044608460D4608F0CBFA48B3AB
:108BE000D4F800112F184FF0000809E00B46BD42E1
:108BF00001F10101C4F80011E65484F8046119D0B0
:108C0000FF2915F8016BF1D1D4F8083184F8FF8001
:108C1000D4F80C2120469847D4F820310133C4F809
:108C2000203100230121BD42C4F80011E65484F82C
:108C30000461E5D1BDE8F0812DE9F04188B00A4634
:108C400004461B4901A808F067FA01A808F092FA47
:108C500050B301ADD4F800112F184FF0000809E00F
:108C60000B46BD4201F10101C4F80011E65484F83D
:108C7000046119D0FF2915F8016BF1D1D4F808313E
:108C800084F8FF80D4F80C2120469847D4F820318E
:108C90000133C4F8203100230121BD42C4F8001182
:108CA000E65484F80461E5D108B0BDE8F08100BF66
:108CB000602902001378033B2DE9F047154604466E
:108CC00088462A2B00F2B881DFE813F05100B60184
:108CD000B601B601B601B601B601B601B601B601DC
:108CE000B601B601B601B601B601B601B601B601CC
:108CF000B601B601B601B60155007B00A1005500D2
:108D00007B00A100C600DE00150127012D01300106
:108D100033015801B601B601B601B6017D01B601B5
:108D20002B00DD4ED0F8001106F10A0A4FF00009C1
:108D300009E00B4601315645C4F80011E75484F8A8
:108D4000047100F08581FF2916F8017BF1D1D4F878
:108D5000083184F8FF90D4F80C2120469847D4F8C5
:108D600020310133C4F8203101210023E3E76A6890
:108D7000BDE8F04714E2C94DD0F8001105F109072C
:108D80004FF0000809E00B460131BD42C4F8001164
:108D9000E65484F8046100F06D81FF2915F8016F35
:108DA000F1D1D4F8083184F8FF80D4F80C212046A2
:108DB0009847D4F820310133C4F820310121002331
:108DC000E3E7B74DD0F8001105F109074FF00008AF
:108DD00009E00B460131BD42C4F80011E65484F8A5
:108DE000046100F04981FF2915F8016FF1D1D4F831
:108DF000083184F8FF80D4F80C2120469847D4F835
:108E000020310133C4F8203101210023E3E7A54DCF
:108E1000D0F80011AF1D4FF0000809E00B460131FA
:108E2000BD42C4F80011E65484F8046100F00881E2
:108E3000FF2915F8016BF1D1D4F8083184F8FF80CF
:108E4000D4F80C2120469847D4F820310133C4F8D7
:108E5000203101210023E3E7D0F80031FF2B00F09F
:108E60004C81591C2022C4F80011E25484F80421DA
:108E7000FF2900F021814A1C2623C4F800216354F5
:108E800084F80431BDE8F087D0F80031FF2B00F002
:108E90005681591C2022C4F80011E25484F80421A0
:108EA000814D4FF00008AF1C09E00B46BD4201F1B7
:108EB0000101C4F80011E65484F8046119D0FF29B7
:108EC00015F8016BF1D1D4F8083184F8FF80D4F89B
:108ED0000C2120469847D4F820310133C4F82031C2
:108EE00000230121BD42C4F80011E65484F8046156
:108EF000E5D1BDE8F087D0F80011FF2900F0ED8042
:108F00004A1C2023C4F80021635484F804314146EC
:108F1000AA682046BDE8F04742E111F0040800F0DD
:108F2000AD80BDE8F087D0F80011A1E7D0F80011BE
:108F3000B6E75E4DD0F8001105F108074FF00008C4
:108F400008E00B460131BD42C4F80011E65484F834
:108F5000046177D0FF2915F8016FF2D1D4F80831F8
:108F600084F8FF80D4F80C2120469847D4F82031AB
:108F70000133C4F8203101210023E4E74C4DD0F83F
:108F8000001105F10A074FF0000808E00B46013117
:108F9000BD42C4F80011E65484F8046156D0FF299C
:108FA00015F8016BF2D1D4F8083184F8FF80D4F8B9
:108FB0000C2120469847D4F820310133C4F82031E1
:108FC00001210023E4E790F80431282B0BD0D0F8DE
:108FD0000011FF2900F0C4804A1C2023C4F800219E
:108FE000635484F804316A68324D4146204600F0EB
:108FF000D7F8EF1CD4F800114FF0000808E00B463A
:109000000131BD42C4F80011E65484F804611BD05C
:10901000FF2915F8016BF2D1D4F8083184F8FF80EC
:10902000D4F80C2120469847D4F820310133C4F8F5
:10903000203101210023E4E72A46BDE8F047AFE0F4
:10904000BDE8F087BDE8F087BDE8F087BDE8F087B0
:1090500041466A68204600F0A3F8D4F80011FF29C1
:109060005CD04A1C2923C4F80021635484F80431DD
:10907000BDE8F087BDE8F087BDE8F087D0F80011C3
:10908000FF297DD04A1C2A23C4F80021635484F8A8
:109090000431BDE8F08700BFA42902006329020063
:1090A0006F2902007C29020084290200872902001E
:1090B00094290200A02902000025D4F80831D4F830
:1090C0000C2184F8FF5020469847D4F82031013312
:1090D0002946C4F820310122CEE60026D0F8083116
:1090E000D0F80C2180F8FF609847D4F82031013384
:1090F0003146C4F82031012203E700251946D0F893
:109100000C21D0F8083180F8FF509847D4F820316E
:109110005A1CC4F820212B460121A3E60025D4F8CF
:109120000831D4F80C2184F8FF5020469847D4F831
:10913000203101332946C4F82031012292E700256D
:109140001946D0F80C21D0F8083180F8FF50984724
:10915000D4F820315A1CC4F820212B46012199E66D
:109160000026D0F80831D0F80C2180F8FF6098472D
:10917000D4F8203101333146C4F8203101222CE7E4
:10918000D0F80831D0F80C2180F8FF809847D4F847
:10919000203101334146C4F82031012273E700BF7A
:1091A0002DE9F04F044695B01546002A00F09D8049
:1091B000D0F81831002B40F0908013780E464B2BDE
:1091C00001F20680DFE813F020060A060A064C06C4
:1091D000D605BE057C0577056D0563055905460571
:1091E0003C05320528051E0514053F0735072B07EA
:1091F0002107FA07D407FA06D106BA07BA07BA0751
:10920000A807A807A807A807A807A807A807760718
:109210007607A807A80749070F05FA048D0471040B
:1092200059037104310331039C030703E002B902BF
:10923000B502A3020004EB03B303AF03AF034C007A
:109240004C004A049A028D022002F901D201AB01BE
:10925000840104085E0166023701EB00C10097003B
:109260006A681178272941F079815268177C5FB1CB
:10927000062F41F27F84072F06D1AA68117819B909
:109280009168012901F05A86D4F80011FF2901F0F4
:1092900057844A1C2823C4F80021635484F80431FD
:1092A00031466A682046FFF77BFFD4F80011FF299A
:1092B00001F033844A1C2923C4F80021635484F844
:1092C00004312B783C2B01F00585082F204601F056
:1092D000F3843146AA68FFF763FF15B0BDE8F08F4D
:1092E000B8F1000F01D0C4F810710123C4F818318F
:1092F00015B0BDE8F08FCD4F6A68FFF751FF07F159
:10930000080AD4F800114FF000090AE00B460131B9
:109310005745C4F8001104F8038084F8048100F074
:109320009387FF2917F8018FF0D1D4F8083184F81A
:10933000FF90D4F80C2120469847D4F8203101330F
:10934000C4F8203101210023E2E7B94F6A68FFF732
:1093500027FF07F1050AD4F800114FF000090AE0D1
:109360000B4601315745C4F8001104F8038084F816
:10937000048100F0CF87FF2917F8018BF0D1D4F8D2
:10938000083184F8FF90D4F80C2120469847D4F88F
:1093900020310133C4F8203101210023E2E769685C
:1093A000FFF794FB4FF00008002801F0A085037838
:1093B0002F2B41F0CB804368002B01F0C7808068E1
:1093C00008F101080028F2D16B680093002708F12A
:1093D000FF33DFF87CA20193B946C4F81C71204624
:1093E0003146009AFFF7DCFE019B9F4280F21B870B
:1093F000D4F80011DFF85CB209E00B460131D34527
:10940000C4F80011E55484F8045100F00C87FF29DA
:109410001BF8015BF1D1D4F8083184F8FF90D4F83F
:109420000C2120469847D4F820310133C4F820316C
:1094300001210023E3E77F4FD0F8001107F11A0A5A
:109440004FF000090AE00B4601315745C4F80011FE
:1094500004F8038084F8048100F06787FF2917F877
:10946000018FF0D1D4F8083184F8FF90D4F80C21A2
:1094700020469847D4F820310133C4F82031012127
:109480000023E2E76C4ED0F8001106F10E094FF010
:10949000000809E00B4601314E45C4F80011E754BD
:1094A00084F8047100F09987FF2916F8017FF1D143
:1094B000D4F8083184F8FF80D4F80C21204698476E
:1094C000D4F820310133C4F8203101210023E3E72F
:1094D0005A4FD0F8001107F1080A4FF000090AE0CE
:1094E0000B4601315745C4F8001104F8038084F895
:1094F000048100F0AE87FF2917F8018FF0D1D4F86E
:10950000083184F8FF90D4F80C2120469847D4F80D
:1095100020310133C4F8203101210023E2E7484F14
:10952000D0F8001107F11C0A4FF000090AE00B46C1
:1095300001315745C4F8001104F8038084F8048110
:1095400000F0E186FF2917F8018FF0D1D4F8083137
:1095500084F8FF90D4F80C2120469847D4F82031A5
:109560000133C4F8203101210023E2E7354FD0F860
:10957000001107F11D0A4FF000090AE00B46013106
:109580005745C4F8001104F8038084F8048100F002
:10959000D087FF2917F8018FF0D1D4F8083184F86B
:1095A000FF90D4F80C2120469847D4F8203101339D
:1095B000C4F8203101210023E2E7234FD0F8001145
:1095C00007F10A0A4FF000090AE00B46013157453E
:1095D000C4F8001104F8038084F8048100F0808648
:1095E000FF2917F8018BF0D1D4F8083184F8FF90E7
:1095F000D4F80C2120469847D4F820310133C4F820
:10960000203101210023E2E76A68104904A807F02D
:1096100083FD04A807F0AEFD00283FF45EAE04AD64
:10962000D4F800112F184FF000081FE0232C02007F
:10963000B0290200072B0200132C0200032C0200A9
:10964000E32B0200C32B0200A42B020060290200BE
:109650003E2B02003C2B02000B460131BD42C4F8F8
:109660000011E65484F804613FF437AEFF2915F881
:10967000016BF1D1D4F8083184F8FF80D4F80C21C3
:1096800020469847D4F820310133C4F82031012115
:109690000023E3E7C44FD0F8001107F1160A4FF09A
:1096A00000090AE00B4601315745C4F8001104F8DF
:1096B000038084F8048100F08986FF2917F8018F60
:1096C000F0D1D4F8083184F8FF90D4F80C2120466A
:1096D0009847D4F820310133C4F820310121002308
:1096E000E2E7D0F800112D79FF2901F0AD814B1C84
:1096F000C4F80031655484F80451EEE56A68FFF758
:109700004FFD20463146AA68FFF74AFDE5E56F6840
:10971000AD683B78312B01F08180332B01F0C080A4
:109720003A4601F0ADFF204631462A4601F0E4FFFB
:10973000D3E56A6801F0A4FFCFE59C4FD0F8001193
:1097400007F1090A4FF000090AE00B4601315745BD
:10975000C4F8001104F8038084F8048100F0EC855B
:10976000FF2917F8018FF0D1D4F8083184F8FF9061
:10977000D4F80C2120469847D4F820310133C4F89E
:10978000203101210023E2E7884FD0F8001107F1D2
:10979000090A4FF000090AE00B4601315745C4F8A9
:1097A000001104F8038084F8048100F0CC85FF29BF
:1097B00017F8018FF0D1D4F8083184F8FF90D4F86D
:1097C0000C2120469847D4F820310133C4F82031C9
:1097D00001210023E2E7D5F80480754DD8F8087020
:1097E000D0F8001105F1080A4FF0000909E00B4616
:1097F00001315545C4F80011E65484F8046100F0C5
:10980000A985FF2915F8016FF1D1D4F8083184F842
:10981000FF90D4F80C2120469847D4F8203101332A
:10982000C4F8203101210023E3E76A680AB1FFF799
:10983000B7FCAB68002B3FF450ADD4F80011FD2904
:1098400001F25C8020465B49FFF7C2F93146AA6805
:10985000D4F80061D4F820512046FFF7A1FCD4F8D9
:109860002031AB427FF439ADD4F80031B3427FF4FC
:1098700034AD023BC4F800312FE5B5F90A30002BB6
:1098800040F048876A684C4B5168994200F03E8727
:1098900031462046FFF784FCD4F80031FF2B01F05D
:1098A000E081591C2022C4F80011E25484F80421FC
:1098B000B5F90830002B00F0E386404D4FF000086A
:1098C000AF1D09E00B460131BD42C4F80011E6545A
:1098D00084F804613FF401ADFF2915F8016BF1D163
:1098E000D4F8083184F8FF80D4F80C21204698473A
:1098F000D4F820310133C4F8203101210023E3E7FB
:109900006A68AD680AB1FFF74BFC20467B21FEF781
:109910009DFF204631462A46FFF742FC20467D2126
:10992000FEF794FFD9E40123C0F81831D5E4AB6801
:109930001A78392A7FF4D9AC9F683A783A2A7FF4AA
:10994000D4ACD5F804A01E49DAF80420D3F804807A
:109950001068D7F80490BD6807F002FC002801F0F9
:10996000438220461749FFF733F9D8F8043043B152
:1099700020463146424601F0BFFE20462021FEF738
:1099800065FF4A4620463146FFF70AFC002D3FF4AA
:10999000A4AC204631462A4601F0AEFE9DE40123E8
:1099A000C0F8183199E400BF0B2B02004B2B0200CA
:1099B0003F2B02003C2B0200682302002C2B0200EC
:1099C000682B0200702B0200AB681A78372A7FF4EC
:1099D0008CAC6A68516808684778632F01F0808111
:1099E0001278312A00F0F9831F46C94907F0B8FB05
:1099F0007A6818B91378032B01F01082204631469B
:109A000001F07AFE6F68C3497B68D3F80080404656
:109A100007F0A6FB002801F0C1814046BC4907F0D1
:109A20009FFB002841F0CA81AB6831469A68204606
:109A300001F062FE6B681A78312A7FF44EAC5B68E5
:109A40009A68012A7FF449AC5B681B783E2B7FF44F
:109A500044AC20462921FEF7F9FE3EE4AE4FD0F893
:109A6000001107F10E0A4FF000090AE00B46013120
:109A70005745C4F8001104F8038084F8048100F00D
:109A80009E84FF2917F8018FF0D1D4F8083184F8AB
:109A9000FF90D4F80C2120469847D4F820310133A8
:109AA000C4F8203101210023E2E714ABD0F81421DF
:109AB00043F8402DC0F81431AA68D0F8103107934C
:109AC000002705950697FFF76BFB069B23B93146E8
:109AD0002A462046FFF7EEF8049BC4F81431FFF73E
:109AE000FCBB0DF1500AD0F814B14AF840BD002279
:109AF000D0F81031CDF800B05946C0F814A1059542
:109B000006920793002901F060814B681B78193B8E
:109B1000022B01F25A81AC464FF001080F46554620
:109B200004E07B681B78193B022B1DD8BB684FEA09
:109B3000081E14AA02EB0E0B9BB9B8F1030F00F23A
:109B4000C78797E80F00ABF1400989E80F004BF891
:109B5000405C01230AEB0E05C4F8145108F101081A
:109B6000BB603F68002FDCD1DCF80820204631467E
:109B70006546FFF715FB069B009AC4F81421002BDD
:109B80007FF4ABABB8F1010F01F0F5800AEB081AD6
:109B90005AF80C2C08F1FF3820463146FFF78AF8B6
:109BA000B8F1010FAAF1100AF2D1D4F8143120460D
:109BB00031462A1D01F0DCFBFFF78FBB8B0600F15D
:109BC00085856B681BB116F0400300F0868726F090
:109BD0006006314605F108022046D4F8143101F040
:109BE000F1F9FFF77ABB6A68FFF7DAFAFFF775BB9E
:109BF0004A49FEF7EDFF204631466A68FFF7D0FA82
:109C0000FFF76BBB4649FEF7E3FF204631466A6823
:109C1000FFF7C6FAFFF761BB4249FEF7D9FF2046BE
:109C200031466A68FFF7BCFAFFF757BB3E49FEF7BB
:109C3000CFFF204631466A68FFF7B2FAFFF74DBB07
:109C40003A49FEF7C5FF204631466A68FFF7A8FA91
:109C5000FFF743BB3649FEF7BBFF6A682046314633
:109C6000FFF79EFA20463349FEF7B2FF2046314601
:109C7000AA68FFF795FAFFF730BB2F49FEF7A8FF58
:109C8000204631466A68FFF78BFAFFF726BB2B495F
:109C9000FEF79EFF204631466A68FFF781FAFFF71C
:109CA0001CBB7E21FEF7D2FD20463146AA68FFF795
:109CB00077FAFFF712BBAA68FFF772FAFFF70DBB3E
:109CC0006F68002F40F04D841D4DD0F8001105F154
:109CD000040809E00B4601314545C4F80011E6547B
:109CE00084F804613FF4F9AAFF2915F8016BF1D15A
:109CF000D4F8083184F8FF70D4F80C212046984736
:109D0000D4F820310133C4F8203101210023E3E7E6
:109D1000602B0200642B0200932B0200542A0200E5
:109D2000502A02003C2A0200282A0200182A0200B7
:109D3000F4290200102A0200E8290200DC290200AE
:109D4000B42B0200291DFEF79FFE00283FF4CDAA88
:109D500003782F2B00F0EE85D4F810512B68C4F84F
:109D60001031024631462046FFF71AFAC4F8105166
:109D7000FFF7B3BA0023D0F81491D0F83C81C0F8B3
:109D80001431C0F83C514A076F6805D53B781BB9C0
:109D9000BA68062A00F0CC873A4620463146FFF7DB
:109DA000FFF994F804313C2B00F0748720463C21E5
:109DB000FEF74CFD20463146AA68FFF7F1F994F80A
:109DC00004313E2B00F0608720463E21FEF73EFD29
:109DD000C4F81491C4F83C81FFF77FBA6A68FFF7B2
:109DE000DFF97107204600F11C84CE49FEF7F0FE32
:109DF000AD682B78452B00F01786204631462A4661
:109E0000FFF7CEF9FFF769BA11F0040640F0A88514
:109E1000AB686D68002B3FF460AAD0F8001105EB29
:109E2000030809E00B4601314545C4F80011E75429
:109E300084F804713FF451AAFF2915F8017BF1D190
:109E4000D4F8083184F8FF60D4F80C2120469847F4
:109E5000D4F820310133C4F8203101210023E3E795
:109E60000022D0F81431C0F814216F680093002F3D
:109E700000F0E5810DF1100AD0F810C190461046AF
:109E8000534639781A60A1F11C0EBEF1040FC4F8D4
:109E900014315F609860C3F80CC01A4608F10108DD
:109EA00003F1100340F2C581042900F0A9810229C1
:109EB00040F0AC81D7F808B09BF80030452B08BFC4
:109EC000DBF804B09BF800301C3B042B00F29E81B1
:109ED000B8F1040F00F0B38108F1805E0EF1FF3E8F
:109EE0002B460AEB0E1EB1465D4666469B46A446CF
:109EF000744603E0B8F1040F01F00A8094E80F0003
:109F000004F1100E8EE80F00234600221C615D60F4
:109F10009A60DE60CCF814E16D682B781C3B042B52
:109F2000744608F10108E5D9DBF808206046494687
:109F30006446FFF735F93B78042B4E4600F06F81FD
:109F4000B8F1000F0CD00AEB081A45465AF8083C45
:109F5000013D002B00F0A486AAF1100A002DF5D1D6
:109F6000009BC4F81431FFF7B8B9AF686D68002FD3
:109F70003FF4B3A9D0F800112F444FF0000809E0D6
:109F80000B460131BD42C4F80011E65484F8046167
:109F90003FF4A3A9FF2915F8016BF1D1D4F80831DA
:109FA00084F8FF80D4F80C2120469847D4F820315B
:109FB0000133C4F8203101210023E3E75A4FD0F8E0
:109FC000001107F1110A4FF000090AE00B460131B8
:109FD0005745C4F8001104F8038084F8048100F0A8
:109FE0007881FF2917F8018FF0D1D4F8083184F86F
:109FF000FF90D4F80C2120469847D4F82031013343
:10A00000C4F8203101210023E2E74849FEF7E0FDD2
:10A01000204631466A68FFF7C3F8FFF75EB9444946
:10A02000FEF7D6FD204631466A68FFF7B9F8FFF71C
:10A0300054B94049FEF7CCFD204631466A68FFF727
:10A04000AFF8FFF74AB93C49FEF7C2FD204631465A
:10A050006A68FFF7A5F8FFF740B911F0040640F071
:10A06000E5826A6853681568002B3FF436A9D0F87A
:10A07000001105EB030809E00B4601314545C4F822
:10A080000011E75484F804713FF427A9FF2915F85B
:10A09000017BF1D1D4F8083184F8FF60D4F80C21A9
:10A0A00020469847D4F820310133C4F820310121EB
:10A0B0000023E3E768680378052B00F052834FF034
:10A0C0000008232B00F0FE822A789A4200F0FA82E0
:10A0D000242B00F08385D4F81401D4F810210595C1
:10A0E00014AB002143F8400D0691C4F814310792D7
:10A0F0006A6820463146FFF753F8069B002B00F0B4
:10A100001F82049BC4F81431B8F1000F3FF4E5A896
:10A11000C4F81071FFF7E1B8D0F814014FF000084F
:10A12000DBE700BFB8290200F32A0200A82A0200D8
:10A13000942A0200842A0200682A0200D0F814C17E
:10A14000BCF1000F00F0DE866246916851B950689C
:10A150000078A0F1190EBEF1020F00F2E0838342F5
:10A1600000F0E1831268002AEFD160469046B4E720
:10A17000D54FD0F8001107F1150A4FF0000909E09A
:10A180000B4601315745C4F8001104F8038084F8E8
:10A1900004816CD0FF2917F8018FF1D1D4F8083170
:10A1A00084F8FF90D4F80C2120469847D4F8203149
:10A1B0000133C4F8203101210023E3E7C349FEF74E
:10A1C00007FD204631466A68FEF7EAFFFFF785B8CB
:10A1D0000123C0F81831FFF780B88A68012A7FF49C
:10A1E00003AC4A6812783E2A7FF4FEAB2046282151
:10A1F000FEF72CFB6B68AF685B681868FFF7F5BB70
:10A2000014AB039743F848CDC4F81031AA68204630
:10A210003146FEF7C5FF3B78042B7FF494AE029BDA
:10A22000C4F810318CE6013747457FF4D6A8FFF714
:10A2300054B87F681FB1B8F1040F7FF422AE012338
:10A24000C4F81831FFF749B83146AA682046FEF72E
:10A25000A7FFD4F80011FF2900F0D5834A1C5D2325
:10A26000C4F80021635484F80431FFF736B8984FDE
:10A27000AA6831462046FEF793FF07F1050AD4F895
:10A2800000114FF0000909E00B4601315745C4F8B1
:10A29000001104F8038084F8048113D0FF2917F813
:10A2A000018BF1D1D4F8083184F8FF90D4F80C2157
:10A2B00020469847D4F820310133C4F820310121D9
:10A2C0000023E3E7204631466A68FEF769FFFFF79F
:10A2D00004B8204631466A68FEF762FFFEF7FDBF0C
:10A2E00031466A682046FEF75BFFD4F80011FF296B
:10A2F00000F0CC834A1C2923C4F80021635484F85D
:10A300000431FEF7EABF204631466A68FEF748FF8F
:10A31000FEF7E3BF31462046AA68FEF741FF20461C
:10A320005D21FEF793FAFEF7D8BF204631466A68F2
:10A33000FEF736FFFEF7D1BF204631462A1D01F059
:10A34000EFF8FEF7CABF20463146AA68FEF728FF9D
:10A35000FEF7C3BFD8F804502B78613B192B40F2AD
:10A36000C881EB1913F8013C202B08BF07F1FF3718
:10A37000002F3EF4B2AFD4F800112F444FF0000884
:10A3800009E00B460131BD42C4F80011E65484F8DF
:10A3900004613EF4A2AFFF2915F8016BF1D1D4F8A6
:10A3A000083184F8FF80D4F80C2120469847D4F86F
:10A3B00020310133C4F8203101210023E3E7204696
:10A3C00031466A68FEF7ECFEFEF787BF204631464D
:10A3D0006A68FEF7E5FEFEF780BF6A683D49013214
:10A3E00004A806F099FE04A806F0C4FE18B304AD54
:10A3F000D4F800112F184FF0000808E00B46013187
:10A40000BD42C4F80011E65484F8046115D0FF2958
:10A4100015F8016BF2D1D4F8083184F8FF80D4F834
:10A420000C2120469847D4F820310133C4F820315C
:10A4300001210023E4E7D4F80011FF2900F015837F
:10A440004A1C7D23C4F80021635484F80431FEF7CC
:10A4500044BF3146204E6A682046FEF7A1FE06F151
:10A460000209D4F800114FF0000808E00B46013152
:10A470004E45C4F80011E75484F8047113D0FF2945
:10A4800016F8017BF2D1D4F8083184F8FF80D4F8B3
:10A490000C2120469847D4F820310133C4F82031EC
:10A4A00001210023E4E7AA680A49013204A806F062
:10A4B00033FE04A806F05EFE68B304ADD4F80011C4
:10A4C0002F184FF0000812E0DB2A0200C02A020019
:10A4D000D42A020060290200102C02000B46013130
:10A4E000BD42C4F80011E65484F8046115D0FF2978
:10A4F00015F8016BF2D1D4F8083184F8FF80D4F854
:10A500000C2120469847D4F820310133C4F820317B
:10A5100001210023E4E7D4F80011FF2900F0C782ED
:10A520004A1C7D23C4F80021635484F80431FEF7EB
:10A53000D4BE204631466A68FEF732FEFEF7CDBE35
:10A5400031462A462046FEF7B5FBDAE56B680093F4
:10A55000B8F1000F7EF43AAFFEF7BFBE0027FEF75A
:10A5600093BEDF4DD0F8001105F106094FF0000849
:10A5700008E00B4601314D45C4F80011E65484F85B
:10A58000046113D0FF2915F8016BF2D1D4F808311A
:10A5900084F8FF80D4F80C2120469847D4F8203165
:10A5A0000133C4F8203101210023E4E73A4604A82E
:10A5B000CC4906F0B1FD04A806F0DCFD18B304ADEB
:10A5C000D4F800112F184FF0000808E00B460131B5
:10A5D000BD42C4F80011E65484F8046115D0FF2987
:10A5E00015F8016BF2D1D4F8083184F8FF80D4F863
:10A5F0000C2120469847D4F820310133C4F820318B
:10A6000001210023E4E7D4F80011FF2900F0A28320
:10A610004A1C7D23C4F80021635484F80431FEF7FA
:10A620005CBE2E21FEF712F9FFF7E2BB6B68DF6814
:10A630009D68002F3EF451AED0F800112F444FF02A
:10A64000000809E00B460131BD42C4F80011E65490
:10A6500084F804613EF441AEFF2915F8016BF1D195
:10A66000D4F8083184F8FF80D4F80C2120469847AC
:10A67000D4F820310133C4F8203101210023E3E76D
:10A68000994D9846AF1D09E00B460131BD42C4F813
:10A690000011E65484F804613EF41FAEFF2915F85A
:10A6A000016BF1D1D4F8083184F8FF80D4F80C2183
:10A6B00020469847D4F820310133C4F820310121D5
:10A6C0000023E3E70546D4F8140106E521F060060F
:10A6D00005F108023146D4F8143100F073FC6A68C1
:10A6E000002A3EF4FAAD20463146FEF759FDFEF74A
:10A6F000F4BDFF2900F0C08320234A1CC4F80021C8
:10A70000635484F80431D8F804502AE6D4F80011D0
:10A71000FFF7CEB8754FD0F8001107F1050A4FF0DA
:10A7200000080AE00B4601315745C4F8001104F84F
:10A73000039084F804913FF4A5A8FF2917F8019B22
:10A74000F0D1D4F8083184F8FF80D4F80C212046E9
:10A750009847D4F820310133C4F820310121002377
:10A76000E2E7D4F82811D4F824C1002915DDDCF87B
:10A770000030984200F04A820CF108020023BE46E5
:10A7800004E05CF83370B84200F0418201338B4240
:10A79000904602F10802F4D17746D4F82C31994260
:10A7A00080F2BB83D4F810814B1C0CEBC109C4F8B8
:10A7B000283109F104094CF83100B8F1000F20D01C
:10A7C000D4F83431D4F838118B4280F2A6834FEAA2
:10A7D000C30E8C4602E0634500F09D83D4F830211F
:10A7E000D8F80410724401335160C9F80020D8F839
:10A7F00000800EF1080E9146B8F1000FEBD1C4F8BD
:10A8000034314FF00008011DC9F800802046FEF7E2
:10A810003BF9002840F00A82FEF767BD7B683449A7
:10A82000D3F80080404606F09BFC2B7810B9032B30
:10A8300000F03283372B00F07583204631463A46CC
:10A8400000F01EFF40462B4906F08AFC002800F06D
:10A850008A814046284906F083FC074600287EF49A
:10A8600062AFD4F80031FF2B00F03183581C282749
:10A87000C4F800013146E7542A46204684F80471A2
:10A88000FEF78EFCD4F80011FF2900F01083292375
:10A890004A1CC4F80021635484F80431FEF71DBD3E
:10A8A000D0F80011FF2900F0D782481C2823C4F8F3
:10A8B00000013A1D63542046314684F8043100F00B
:10A8C0002FFED4F80011FF2900F0B68229234A1C7C
:10A8D000C4F80021635484F80431FEF724BF00BF9C
:10A8E000BC2B020060290200342B0200242B020042
:10A8F000582B02005C2B0200282E02000027D4F8FF
:10A9000008316754D4F80C2120469847D4F82031F8
:10A91000C4F800710133C4F82031FEF793BF6046DC
:10A920008846FFF7DABB204631466A68FEF738FCF6
:10A93000FEF7D3BCD4F81C3108E08068013B002846
:10A940003EF4D3AC02782F2A7EF4CFAC002BF4DC9B
:10A950007EF4CBAC406800287FF4FEA9FEF7C5BCAE
:10A960006E68AB6806EB03084645BEF4B6AC00273C
:10A970000DE0D4F80011FF2935D04B1CC4F800318C
:10A98000655484F804510136B0457EF6A6ACC6EB9A
:10A990000803032B3578ECDD5F2DEAD172785F2A4E
:10A9A000E7D1B378552B01D01546E2E7F31C984563
:10A9B000FAD9002205E00D46434505EB021200F0EE
:10A9C000A582994613F8015BA5F13001C8B20928A8
:10A9D000A5F1410EEFD9BEF1050FA5F1610100F21D
:10A9E0001081373DE8E7D4F8083184F8FF70D4F8D7
:10A9F0000C2120469847D4F820310133C4F8203187
:10AA000000210123BAE70025D4F80831D4F80C213D
:10AA100084F8FF5020469847D4F820310133294666
:10AA2000C4F8203101221AE42046D449FEF7D0F8B8
:10AA3000A96820460131FEF7FFF82046D049FEF70D
:10AA4000C7F86D68FFF7D9B90026D0F8083180F84B
:10AA5000FF60D0F80C219847D4F820310133C4F8B6
:10AA6000203131460123FEF743BE0025D4F80831DA
:10AA7000D4F80C2184F8FF5020469847D4F82031B0
:10AA800001332946C4F820310122DAE40025D4F844
:10AA90000831D4F80C2184F8FF5020469847D4F8A8
:10AAA000203101332946C4F82031012223E4002556
:10AAB000D4F80831D4F80C2184F8FF502046984788
:10AAC000D4F8203101332946C4F82031012228E589
:10AAD0000123C4F81831FEF700BC14AAD4F81411ED
:10AAE00042F8401D26F06006C4F814216A68D4F8C4
:10AAF000107106933146204605950797FEF750FBE7
:10AB0000069B049AC4F81421002B7EF4E6AB204681
:10AB10002021FDF79BFEFFF75CB84FF00008D4F84A
:10AB20000831D4F80C2184F8FF8020469847D4F8E7
:10AB3000203101334146C4F820310122FEF7BBBB6E
:10AB40004FF00008D4F80831D4F80C2184F8FF80C5
:10AB500020469847D4F8203101334146C4F82031CB
:10AB60000122FEF797BB204631462A46FEF718FB26
:10AB7000FEF7B3BBAA681278002A7EF485AB3C2BA3
:10AB800000F00F823146AA682046023FFEF708FB1C
:10AB9000042F3EF6A2ABDFE807F01B150F090300F8
:10ABA00020467849FEF714F8FEF797BB2046764911
:10ABB000FEF70EF8FEF791BB20467449FEF708F841
:10ABC000FEF78BBB20466C21FDF740FEFEF785BBF0
:10ABD00020467521FDF73AFEFEF77FBB14ABD4F893
:10ABE0001411426843F8401D0020D4F81011059557
:10ABF000C4F8143106900791002A7FF47AAAFFF76F
:10AC000077BA052900F2A981573DD5E6E046D8F884
:10AC10000430D4F81071C4F81031011D2046FDF73E
:10AC200033FF00283EF45FAB4FF0010803782F2B71
:10AC30007FF447AAD4F81C3108E08068013B002863
:10AC40003EF44EAB02782F2A7EF44AAB002BF4DCA4
:10AC50007EF446AB406800283EF442AB0378FFF731
:10AC600030BA00261946D4F80C21D4F8083184F8FB
:10AC7000FF6020469847D4F820315A1CC4F82021A0
:10AC800033460121FEF70EBE20462021FDF7DEFDF2
:10AC9000FFF79AB820462021FDF7D8FDFFF786B8C8
:10ACA00020462021FDF7D2FD204631465AF80C2CD3
:10ACB000FEF700F8FFF750B95B21FDF7C7FD20460E
:10ACC0003146AA68FEF76CFA20465D21FDF7BEFD0D
:10ACD000FEF703BB20462D21FDF7B8FDFEF7F5BAC0
:10ACE0000778A7F1630EBEF1010F03D9723F012F60
:10ACF0003EF676AE2046314600F0C2FC20463C21AE
:10AD0000FDF7A4FDAB6820465A683146FEF748FAC5
:10AD100020461F49FDF75CFFAB68314620469A6824
:10AD2000FEF73EFA20462921FDF790FDFEF7D5BA41
:10AD30007868184906F026FA00287FF42DA83146D5
:10AD40002046AA68FEF72CFA20461349FDF740FF7B
:10AD5000FFF73EB80025D4F80831D4F80C2184F868
:10AD6000FF5020469847D4F8203101332946C4F8D3
:10AD7000203101224DE4009BFEF719BFBC290200DF
:10AD8000CC290200802B02007C2B0200782B0200D1
:10AD9000302C0200D0290200D829020020465B2175
:10ADA000FDF754FDAB68314620469A68FEF7F8F986
:10ADB00020465D21FDF74AFDFEF73CBE3A4620469F
:10ADC000314600F05DFCFEF72FBEAA6820463146F2
:10ADD000FEF7E6F9069B009AC4F81421002B7EF4D6
:10ADE0007CAA1346FEF7E3BE42462046314600F0F9
:10ADF00083FC20463146524600F042FC4A4620463B
:10AE0000314600F079FC20466A49FDF7E1FE204614
:10AE100031462A4600F070FCFEF75FBA93681B7853
:10AE2000292B1CBF0123C4F8183152682046314633
:10AE300000F062FCFEF7E6BD0027D4F8083184F884
:10AE4000FF70D4F80C2120469847D4F82031013304
:10AE50003946C4F8203139E54FF00008D0F8083100
:10AE600080F8FF80D0F80C219847D4F820310133C6
:10AE70004146C4F8203118E50025D4F8083184F89B
:10AE8000FF50D4F80C2120469847D4F820310133E4
:10AE90002946C4F820312FE46B681A78012A7FF420
:10AEA000CCACAA681278292A08BF1D46C5E4002543
:10AEB000D4F8083184F8FF50D4F80C212046984784
:10AEC000D4F8203101332946C4F82031DFE484F876
:10AED000FF001946D4F80C21D4F8083120469847D1
:10AEE000D4F820315A1CC4F820213B46BEE4314638
:10AEF00020466A6800F000FC20462F49FDF768FEF6
:10AF0000FEF7EBB96046E046FFF7E7B85F2530E5AE
:10AF10006446FFF794B9C4F834310123C4F81831FA
:10AF2000FEF7DBB96A682046314600F0E5FB2046B3
:10AF300031463A4600F0A4FBFEF7CFB93B2B7EF436
:10AF4000A3A953681B78302B2FD0312B7EF49CA9FA
:10AF50001A49FDF73DFEFEF7C0B9C845D6D95F2DA9
:10AF6000D4D1FF2A3FF605ADD4F80011FF29D5B2A0
:10AF70000FD1D4F8083184F8FF70D4F80C212046A2
:10AF80009847D4F82031C4F800710133C4F8203157
:10AF900000214B1CC4F800314E46655484F804511E
:10AFA000F1E42D21FDF752FCECE50549FDF710FE1B
:10AFB000FEF793B96C2B0200B02B02008C2B020021
:10AFC000842B02002DE9F84304460D4616461F4621
:10AFD000002B3ED09B68002B3BD13A464FF0010E30
:10AFE00006E010F4606F64D1126892B3936883BB7B
:10AFF00053686C491B78193BDBB20EFA03F0122B35
:10B0000001EA0001F0D80029EBD094F80431202B9C
:10B0100055D0D4F80031FF2B00F0B180591C20220C
:10B02000FF29C4F80011E25484F804214BD14FF0F9
:10B030000008D4F8083184F8FF80D4F80C212046A9
:10B040009847D4F820310133C4F820314146012318
:10B050003AE00023D4F81481C4F81431294620467C
:10B060003A4600F0A1F8D4F80011FF294BD028226D
:10B070004B1CC4F80031625484F8042132682AB1B0
:10B0800020462946FEF78CF8D4F80031FF2B53D028
:10B090005A1C2926C4F800212946E6543A4620467F
:10B0A00084F80461012300F07FF8C4F81481BDE83E
:10B0B000F88394F8043103F0FD02282AA7D1D4F8CC
:10B0C0000011FF29B3D04B1C28224FF00009C4F80F
:10B0D0000031D4F8148162544B4684F80421C4F83A
:10B0E0001491204629463A4600F05EF8D4F8003123
:10B0F000FF2B33D0591C2922FF29C4F80011E25438
:10B1000084F80421B3D1002384F8FF30D4F80C2153
:10B11000D4F80831204698472823237084F8043156
:10B12000D4F820313268591C0123C4F82011C4F826
:10B130000031002AA4D1ABE700261946D4F80C212F
:10B14000D4F8083184F8FF6020469847D4F82031BD
:10B150005A1CC4F82021334601229AE71946D4F834
:10B160000C21D4F8083184F8FF9020469847D4F891
:10B1700020315A1CC4F820214B460121BBE74FF077
:10B1800000081946D4F80C21D4F8083184F8FF805F
:10B1900020469847D4F820315A1CC4F82021434651
:10B1A00001213CE7073104002DE9F84F144662B352
:10B1B0001E46D0F818310546002B40F0A0800F46FF
:10B1C0004FF0010802E0D5F8183103BBA368CBB9F2
:10B1D000626813781EB9A3F11C01042912D9E16831
:10B1E000C4F80880292BD5F81091C5F8101110D09B
:10B1F0002A2B18D0022B20D028463946FDF75AFDBD
:10B20000C5F810912468002CDDD1BDE8F88FBDE8A9
:10B21000F88F3946083223682846FFF7D3FEC5F871
:10B220001091BDE8F88F394604322368284600F0B3
:10B230009FF8C5F81091BDE8F88F0026D5F8148165
:10B24000C5F81461526828463946FDF7A9FFC5F8CC
:10B25000148117F0040823D1424ED5F8001106F1ED
:10B26000020B09E00B4601315E45C5F8001105F8F7
:10B2700003A085F804A11ED0FF2916F801ABF1D177
:10B28000D5F8083185F8FF80D5F80C212846984775
:10B29000D5F820310133C5F8203101210023E3E73F
:10B2A000D5F80011FF291AD04A1C2E23C5F8002119
:10B2B0006B5485F8043163689C682378452B02D170
:10B2C0001FE0646823781C3B042BFAD939462246D8
:10B2D0002846FDF765FFC5F81091BDE8F88FD5F851
:10B2E0000831D5F80C2185F8FF6028469847D5F835
:10B2F000203101333146C5F820310122D5E7BDE8C0
:10B30000F88F194ED5F8001106F10D0A4FF0000B19
:10B3100009E00B4601315645C5F8001105F80380D8
:10B3200085F8048113D0FF2916F8018BF1D1D5F8E7
:10B33000083185F8FFB0D5F80C2128469847D5F894
:10B3400020310133C5F8203101210023E3E7A16852
:10B3500028460131FDF770FC28460449FDF738FC0A
:10B36000AFE700BFB8290200BC290200CC290200C7
:10B370002DE9F84F04460E46174699464BB198689A
:10B3800078B31B68002BFAD14A4620463146FFF7B6
:10B390000BFFD4F80031FF2B68D0591C2022C4F8D1
:10B3A0000011E25484F80421FF2900F094805B220C
:10B3B0004B1CC4F80031625484F804213A682AB165
:10B3C00031462046FDF7ECFED4F80031FF2B70D05B
:10B3D000591C5D22C4F80011E25484F80421BDE830
:10B3E000F88F5B681B782A2B00F08F80DFF82C81A8
:10B3F000D4F80011054608F1020B0AE00B46D845C7
:10B4000001F10101C4F8001104F803A084F804A1BB
:10B410001AD0FF2918F801ABF0D1D4F8083184F81C
:10B42000FF50D4F80C2120469847D4F8203101333E
:10B43000C4F8203100230121D845C4F8001104F8D4
:10B4400003A084F804A1E4D131464A4620460023F3
:10B45000FFF7AAFED4F80011FF2919D04B1C2922AE
:10B46000C4F80031625484F8042194E70025194699
:10B47000D4F80C21D4F8083184F8FF5020469847BE
:10B48000D4F820315A1CC4F820212B46012185E72D
:10B490000025D4F8083184F8FF50D4F80C21204658
:10B4A0009847D4F820310133C4F8203129460123CC
:10B4B000D5E700251946D4F80C21D4F8083184F8D2
:10B4C000FF5020469847D4F820315A1CC4F8202158
:10B4D0002B4601217DE7002384F8FF30D4F80C21AE
:10B4E000D4F80831204698475B23237084F8043150
:10B4F000D4F820313A68591C0123C4F82011C4F84B
:10B500000031002A7FF45CAF62E7034631464A46C9
:10B510002046FFF749FED4F8001145E7AC2B0200A6
:10B52000F0B50E46D0F83C1183B00446154639B14B
:10B5300002ABD0F8102143F8082D0191C0F810316A
:10B540002A681378042B0BD031462046FDF728FEDD
:10B55000D4F83C3113B1009BC4F8103103B0F0BDF6
:10B56000526820463146FDF71BFED4F83C3113B13A
:10B57000009BC4F8103194F804313C2B43D0D4F82C
:10B580000011FF291DD04A1C3C23C4F8002163543C
:10B5900084F804312B6831469A682046FDF700FE96
:10B5A00094F804313E2B3AD0D4F80011FF2919D079
:10B5B0004A1C3E23C4F80021635484F8043103B0CC
:10B5C000F0BD0027D4F80831D4F80C2184F8FF70BE
:10B5D00020469847D4F8203101333946C4F8203149
:10B5E0000122D1E70025D4F80831D4F80C2184F8E1
:10B5F000FF5020469847D4F8203101332946C4F83B
:10B6000020310122D5E7D4F80031FF2B13D0591C8B
:10B610002022C4F80011E25484F80421B1E7D4F8E0
:10B620000031FF2B19D0591C2022C4F80011E2541C
:10B6300084F80421BAE700271946D4F80C21D4F87D
:10B64000083184F8FF7020469847D4F820315A1CFE
:10B65000C4F820213B460121DAE700251946D4F839
:10B660000C21D4F8083184F8FF5020469847D4F8CC
:10B6700020315A1CC4F820212B460121D4E700BFF9
:10B680002DE9F0411578312D03D0BDE8F041FDF7EB
:10B6900087BD53689F685D6867B30446D0F80011A2
:10B6A0002F444FF0000809E00B46BD4201F10101B3
:10B6B000C4F80011E65484F8046119D0FF2915F884
:10B6C000016BF1D1D4F8083184F8FF80D4F80C2153
:10B6D00020469847D4F820310133C4F820310023A4
:10B6E0000121BD42C4F80011E65484F80461E5D19B
:10B6F000BDE8F081BDE8F081F8B51378012B044670
:10B7000021D9302B1FD0062B1DD0D0F80031FF2BB4
:10B710000E4615462DD05A1C2827C4F80021314664
:10B72000E7542A46204684F80471FDF739FDD4F821
:10B730000011FF290CD04A1C2923C4F800216354AE
:10B7400084F80431F8BD2046BDE8F840FDF728BD77
:10B750000025D4F80831D4F80C2184F8FF50204695
:10B760009847D4F8203101332946C4F8203101220A
:10B77000E2E700271946D4F80C21D4F8083184F800
:10B78000FF709847D4F820315A1CC4F820213B465A
:10B790000122C1E770B5C3681A784C2A044601D06B
:10B7A000002070BD5A1CC26059785F2937D05A29D1
:10B7B0000CD10132E2602046002103F089F8E268F2
:10B7C0001378452BECD10132E26070BD00F042F8F5
:10B7D00005460028E4D00378272B30D0E1680B78A9
:10B7E0006E2B26D03B26452B32D0002BD8D00A46D4
:10B7F00001E0002BD4D00132E2601378452BF8D160
:10B80000521A2046FCF7A0FE2A460346314620463F
:10B81000FCF74EFEE2681378452BC1D1D3E79A1CA2
:10B82000C2609B785A2BC4D0452B4FF00000B7D193
:10B83000C9E74A1CE2604B783C261146D3E74368CF
:10B840001A7C002ACAD05A68236B9B1A2363C5E767
:10B850000022D6E72DE9F04F0446C0680378722B2A
:10B8600083B055D0562B53D04B2B51D0A3F130027F
:10B870004A2A00F2C380DFE812F0EB00EB00EB0095
:10B88000EB00EB00EB00EB00EB00EB00EB00C1008A
:10B89000C100C100C100C100C100C100F100C10070
:10B8A0000F013101C1001D012301C100C100C10010
:10B8B000C100C100A101EB00B901C701C100D50160
:10B8C000E3013C020502C100C100C100C100EB0060
:10B8D000C100C100C100C100C100C10017021702B0
:10B8E0001702170217021702170217021702170290
:10B8F000C1001702170217021702C100C100C100E0
:10B9000017021702D10017021702170217021702B7
:10B91000204601A90022FCF731FE054600286DD023
:10B92000E3681B78462B20466DD0FFF793FF286015
:10B93000002863D003781F3B012B68D9019A002AA5
:10B940005CD0236A616A8B4258DAE06940F82320B0
:10B95000591C019D2162284603B0BDE8F08F0125E6
:10B96000676B656383784C2B00F0A884542B00F040
:10B97000A084732B00F0B783662B00F09483A3F1AF
:10B980003002092A40F21F836F2B00F01683692BC7
:10B9900000F0BC83742B00F0DB84204601F04EF9EC
:10B9A0000546002800F065840378312B00F0C18340
:10B9B000322B00F0BF84332B40F05B84E3681A78AD
:10B9C0005F2A01F0A280204604F0DCFE03462A46EE
:10B9D00020463521FCF76CFD024667632046412175
:10B9E0000023FCF765FD0546019038B1E3681A783D
:10B9F00022B15A1CE2601B78452B1ED00025284638
:10BA000003B0BDE8F08F01F0F9F8286090E7019AE3
:10BA1000436842602A6801922B608FE70130E06042
:10BA20002046FCF7C5FF2821024600232046FCF7EC
:10BA30003FFD05460190002DE0D0236A626A9342E3
:10BA4000DCDAE1695A1C41F82350019D226282E749
:10BA5000204602F0BDFD05460190ECE7411CE16087
:10BA600043785F2B00F05782303B092B00F2618254
:10BA70000A460132E2601378303B092BF9D9521A99
:10BA80002046FCF761FD054620B1E1680B785F2B8D
:10BA900000F042820025A7E00130E0602046FFF779
:10BAA000D9FE2521024600232046FCF701FD05466C
:10BAB0000190C0E7204601F0A1F805460190BAE7E1
:10BAC0000130E0602046FFF7C5FE26210246002334
:10BAD0002046FCF7EDFC05460190ACE7431CE36013
:10BAE0004378002B8AD0831CE3604378463B302B9D
:10BAF00084D801A252F823F0A1BE0100FDB90100D3
:10BB0000FDB90100FDB90100FDB90100FDB9010059
:10BB1000FDB90100FDB90100FDB90100FDB9010049
:10BB2000FDB90100FDB90100FDB90100FDB9010039
:10BB30005FB90100FDB90100FDB90100FDB90100C7
:10BB4000FDB90100FDB90100FDB90100FDB9010019
:10BB5000FDB90100FDB90100FDB90100FDB9010009
:10BB6000FDB9010093BE0100FDB90100FDB901005E
:10BB700075BE0100B1BD010085BD0100FDB9010028
:10BB800059BD01002DBD0100FDB90100FDB9010045
:10BB9000FDB90100FDB901004DBE0100FDB9010074
:10BBA00035BE0100FDB90100FDB9010017BE01005D
:10BBB0005FB90100FDB90100DDBD01000130E060A9
:10BBC0002046FFF747FE054600283FF463AF2046B6
:10BBD000FFF740FE00283FF45DAF2A4603462B21C5
:10BBE0002046FCF765FC0546019524E70130E0603E
:10BBF0002046FFF72FFE2421024600232046FCF7B3
:10BC000057FC0546019016E70130E0602046FFF73B
:10BC100021FE2221024600232046FCF749FC05466E
:10BC2000019008E70130E0602046FFF713FE232172
:10BC3000024600232046FCF73BFC05460190FAE64D
:10BC40004378A3F13002092A05D95F2B03D0413B89
:10BC5000192B00F27A8120460021FCF701FDE368F0
:10BC600001901B78492B05467FF475AE204601F004
:10BC7000A7F92A46034604212046FCF719FC05468D
:10BC80000190D8E60130E0602046FCF791FE01907B
:10BC90002046FFF7DFFD21210246019B2046FCF7ED
:10BCA00007FC05460190C6E6613BAE4F6269A56997
:10BCB00003EB83039B0007F1C401AA42194480F2FD
:10BCC000268102EB4206D4F810E0B60001321EEBEA
:10BCD0000605626100F01B8127223B440EF8062016
:10BCE0006960226BD3F8C83001301344E0602363ED
:10BCF00031E62046FCF72AFEE66801903378492BAE
:10BD000005467FF498AEA36B002B40F03D810028E0
:10BD10003FF474AE236A626A9342BFF66FAEE16984
:10BD20005A1C41F82300019D22629FE76369A269C2
:10BD3000934280F2EC8003EB4302216992000133CD
:10BD40008D18636100F0E380874B272088546B6077
:10BD5000236B08332363FEE56369A269934280F293
:10BD6000D68003EB43022169920001338D18636191
:10BD700000F0CD807D4B272088546B60236B04330B
:10BD80002363E8E56369A269934280F2C08003EB14
:10BD900043022169920001338D18636100F0B7807E
:10BDA000734B272088546B60236B09332363D2E5E0
:10BDB0006369A269934280F2AA8003EB430221697E
:10BDC000920001338D18636100F0A180694B272038
:10BDD00088546B60236B0A332363BCE583785F2B45
:10BDE00000F007812046FCF77DFD0546002D3FF45D
:10BDF000FBAEE3681A785F2A7FF44CAE0133E36050
:10BE00002046FFF727FD2A4603462D212046FCF752
:10BE10004FFB0546E8E66369A269934277DA03EBD4
:10BE200043022169920001338D1863616FD027208E
:10BE3000514B8BE72046FFF70DFD492102460023B9
:10BE40002046FCF735FB05460190F4E56369A269DD
:10BE500093425CDA03EB43022169920001338D18AF
:10BE6000636154D0454B272088546B60236B11339A
:10BE7000236370E56369A269934248DA03EB4302E6
:10BE80002169920001338D18636140D027203C4B1B
:10BE900088E720463B490422FCF756FB05465AE555
:10BEA0006369A269934280F28580256903EB4302AE
:10BEB00092000133A9182C2663610191AE54837856
:10BEC000303B092B8CBF002301230B811BB104F1F4
:10BED0000C00FCF7DFFC2046019DFFF7BBFC019B3B
:10BEE00068605B68002B3FF489AD04F10C00FCF73F
:10BEF000D1FCE26813783BB1531CE3601378A3F1E3
:10BF00007303B3FA83F35B09019D6B8123E500237F
:10BF100001935B68FFDE00250131E1602046FFF7F9
:10BF200099FC2A4603462A212046FCF7C1FA054619
:10BF30005AE60123656B6363204604F023FC6563C6
:10BF4000054600287FF4A1ADA4E5204602F040FBA1
:10BF50000546019000283FF451AD0378182B7FF47B
:10BF60006CADF8E404220200342502000C25020026
:10BF7000D0240200F82402002025020048250200F7
:10BF8000E42402003C2C02002046D4F81490D4F89B
:10BF90002080A76A256B01F013F8E2681278492A1D
:10BFA0006AD02563E660C4F81490C4F82080A762C4
:10BFB000019D40E500231B70FFDEC3786E2B7FF4EC
:10BFC000ECAC0430E060204600F0BAFE05460028E4
:10BFD00000F04F81E3681B78492B7FF4FDAC2046CD
:10BFE00000F0EEFF2A46034604212046FCF760FAE3
:10BFF000F2E4C31C0125E360676B6563C3784C2BD7
:10C0000000F0E581542B00F0DD81732B00F0C78137
:10C01000662B00F0A681A3F13002092A40F232819A
:10C020006F2B00F02981692B40F0148503796C2B6C
:10C0300000F0FF84204600F001FE0646002800F0D4
:10C0400006820378312B00F0E581322B00F01B8350
:10C05000332B40F0FC81E3681A785F2A00F0D3812B
:10C06000204604F08FFB0346324620463521FCF77C
:10C070001FFA05466763B9E6019B002B3FF4BEAC8F
:10C08000226A616A8A42BFF6B9ACE569511C45F87B
:10C090002230019A2162034604212046FCF708FA67
:10C0A00005460190C7E4C378702B7FF476AC031D7E
:10C0B000E3600379542B40F0D6800530E060002522
:10C0C0006269A3699A4280F2D4800C23216903FB40
:10C0D00002F301326261CA1800F0C8840620C85415
:10C0E0001046556078E4C378722B00F00C81702BF9
:10C0F0007FF453AC0430E060204604F043FB492158
:10C10000024600232046FCF7D3F965E4C3786C2B84
:10C110007FF443AC0025E3680233E3602046452109
:10C1200003F064F82A46034630212046FCF7C0F9A4
:10C1300052E44168226B8B680E68C649023B134487
:10C140002363304605F00CF8002800F0D5846B68B6
:10C15000DB68032B00F28D80DFE803F07DB5400340
:10C1600000263046BC4904F0FBFF002800F09B8409
:10C1700033786E2B7DD17378772B01D0612B78D1FA
:10C180005F21204603F032F806462046FFF762FBA7
:10C19000E3681A78452A804600F08084702A00F00F
:10C1A0007184692A65D15B786C2B62D1204604F0DA
:10C1B000E9FA424603463A212046FCF779F932462D
:10C1C000034639212046FCF773F92A4603463821F5
:10C1D0002046FCF76DF9FFF7FFBB00266B681B6874
:10C1E0005A78632A00F07984204604F0CBFA80461E
:10C1F00030469A4904F0B4FF002800F067843046C6
:10C20000974904F0ADFF30B13046964904F0A8FFDD
:10C21000002840F05584204600F092FDE3681B782A
:10C22000492B064609D1204600F0CAFE3246034695
:10C2300004212046FCF73CF9064642463346204698
:10C240003721FCF735F92A46034636212046FCF70C
:10C250002FF9FFF7C1BB2A46204634210023FCF703
:10C2600027F9FFF7B9BB2046FCF758FB451C7FF4C4
:10C2700027AF0020FFF7B0BB03796E2B7FF4DAAE57
:10C280000530E060204600F05BFD0546002800F028
:10C29000DE80E3681B78492B7FF4ECAE204600F08B
:10C2A0008FFE2A46034604212046FCF701F9054685
:10C2B000E0E62046FCF74AFBFFF78EBB2046FFF77F
:10C2C00069FAFFF789BB3378702B02D06D2B7FF4AE
:10C2D0007AAB72789A427FF476ABE3681A785F2A79
:10C2E00000F00F84204604F04DFA02461346204623
:10C2F0003721FCF7DDF803462A4620463521FCF7B6
:10C30000D7F8FFF769BB0430E0602046FFF7A2FAD8
:10C310000646204600F014FDE3681B78492B804652
:10C3200000F0FB830346294632462046FCF7C0F85E
:10C33000FFF752BB6B68032B9BD801A252F823F086
:10C3400057C20100C7B90100DBC1010061C1010092
:10C35000C3786C2B7FF421AB2046FFF77BFA0546B0
:10C36000D9E60379702B7FF465AE431DE360437912
:10C37000542B67D10630E06000206269A3699A42BD
:10C3800065DA0C23216903FB02F3CD1802F10102E7
:10C3900062613FF46FAE0622CA5468606AE60379B0
:10C3A000722B19D0702B7FF445AE0530E06020462B
:10C3B00004F0E8F94921024600232046FCF778F80A
:10C3C000054657E62046FCF7C1FA054652E62046E8
:10C3D000FFF7E0F905464DE60530E0602046FFF73F
:10C3E00039FA0646204600F0ABFCE3681B78492B7F
:10C3F000804600F057812946034632462046FCF726
:10C4000057F8054636E60133E3602046452102F041
:10C41000EDFE28E64168226B8B680D680D49023BF2
:10C4200013442363284604F09BFE002800F0278174
:10C430007368DB68032B0AD8DFE813F01901F200F8
:10C44000A60017002046FCF769FA013095D10025B7
:10C4500010E600BF282E0200682B0200602B0200AD
:10C46000342C0200382C020000252846AD4904F087
:10C4700077FE824698B32B786E2BE8D16B78772BBA
:10C4800001D0612BE3D15F21204602F0AFFE804650
:10C490002046FFF7DFF9E3681A78452A81466ED017
:10C4A000702A60D0692AD2D15B786C2BCFD120461C
:10C4B00004F068F905462B464A463A212046FBF728
:10C4C000F7FF4246034639212046FBF7F1FF32468B
:10C4D000034638212046FBF7EBFF0546CAE5204618
:10C4E00004F050F98046204604F04CF9E1680A78DF
:10C4F0004C2A814600F08782542A00F07F82732AFA
:10C5000000F04D82662A00F02B82A2F13003092B45
:10C5100040F20F826F2A00F00682692A00F0FD8146
:10C52000742A00F0E381204600F088FB05460028CD
:10C53000C1D00378312B00F0DD80322B00F0CC80AD
:10C54000332B40F0C780E3681A785F2A00F0BB8085
:10C55000204604F017F92A46034635212046FBF70A
:10C56000A7FF0546A7E75A78692A7FF470AF023320
:10C57000E3602046452102F039FE05469BE7013382
:10C58000E360002597E7002573681B685A78632AE3
:10C5900039D0204604F0F6F880462846624904F077
:10C5A000DFFD50B32846614904F0DAFD28B1284682
:10C5B0005F4904F0D5FD002851D1204600F0C0FBB2
:10C5C000E3681B78492B054609D1204600F0F8FCAA
:10C5D0002A46034604212046FBF76AFF05462B4600
:10C5E000424637212046FBF763FF32460346362199
:10C5F0002046FBF75DFF05463CE52046452102F05D
:10C60000F5FD0546EBE71B78A3F16302012A02D989
:10C61000723B012BBDD82046FFF71CF98046BCE7D2
:10C620002B78702B02D06D2B7FF41AAD6A789A426A
:10C630007FF416ADE3681A785F2A15D0204604F01F
:10C64000A1F80246134620463721FBF731FF034687
:10C65000324620463521FBF72BFF05460AE52046EA
:10C6600004F090F80546BAE70133E360F8E4324697
:10C67000204634210023FBF71BFF0546FAE4204641
:10C68000FFF7E8F8E3E77368032B3FF6E0AE01A29B
:10C6900052F823F06FC6010061C0010087C5010098
:10C6A00069C40100204600F08BFC42460346042189
:10C6B0002046FBF7FDFE2946034632462046FBF79F
:10C6C000F7FE0546D6E40133E3602046452102F03B
:10C6D0008DFD40E70025EEE66B68032BFAD801A23A
:10C6E00052F823F0DDC8010051C50100CBC701009D
:10C6F00039C701004168226B8B68D1F800A00D4951
:10C70000023B13442363504604F02AFD002800F046
:10C71000DE806B68DB68032BDCD8DFE803F0DFB773
:10C72000580F00BF682B0200602B0200342C02005F
:10C73000382C0200282E02004FF0000A5046CD4946
:10C7400004F00EFDA8B39AF800306E2BC2D19AF80F
:10C750000130772B01D0612BBCD15F21204602F044
:10C7600045FD82462046FFF775F8E3681A78452AAA
:10C77000834600F08780702A79D0692AAAD15B7835
:10C780006C2BA7D1204603F0FDFF03465A463A2101
:10C790002046FBF78DFE5246034639212046FBF723
:10C7A00087FE2A46034638212046FBF781FE0546D0
:10C7B00081E6204603F0E6FF8246204603F0E2FFD2
:10C7C0008346204603F0DEFFDFE74FF0000A6B6888
:10C7D0001B685A78632A38D0204603F0D3FF83467B
:10C7E0005046A54904F0BCFC48B35046A34904F0A8
:10C7F000B7FC20B15046A24904F0B2FC90BB2046E1
:10C8000000F09EFAE3681B78492B824609D1204646
:10C8100000F0D6FB5246034604212046FBF748FEB3
:10C8200082465A46534637212046FBF741FE2A46A8
:10C83000034636212046FBF73BFE05463BE62046F5
:10C84000452102F0D3FC8246EBE71B78A3F163029B
:10C85000012A02D9723B012BBED82046FEF7FAFF0F
:10C860008346BDE7204603F08DFF8246D9E75A781C
:10C87000692A7FF42FAF0233E3602046452102F09E
:10C88000B5FC82E70133E36000207EE79AF80030D0
:10C89000702B02D06D2B7FF45BAE9AF801209A4288
:10C8A0007FF456AEE3681A785F2A14D0204603F06E
:10C8B00069FF0246134620463721FBF7F9FD034680
:10C8C0002A4620463521FBF7F3FD0546F3E52046D1
:10C8D000FEF7C0FFF3E70133E36039E62A4620465E
:10C8E00034210023FBF7E4FD0546E4E54B786C2B8F
:10C8F0007FF419AE2046FEF7ADFFE1680546023130
:10C90000E1602046452102F071FC2A4603463021B1
:10C910002046FBF7CDFD0546CDE54A786C2A7FF42D
:10C9200002AE5546EBE74B786E2B7FF4FCAD02313F
:10C93000E160204600F004FA054600283FF4BBAD54
:10C94000E3681B78492B7FF4B6AD204600F038FB36
:10C950002A46034604212046FBF7AAFD0546AAE520
:10C960004B78702B7FF4DFAD8B1CE3608B78542BFE
:10C9700028D10331E16050466269A3699A42BFF64B
:10C98000A9AE0C23216903FB02F3CD1802F10102C9
:10C9900062613FF490AD0622CA5468608BE54A7824
:10C9A000722A15D0702A7FF4BEAD0231E1602046B4
:10C9B00003F0E8FE5346024649212046FBF778FD86
:10C9C000054678E52046FBF7A9FF0130D4D17CE786
:10C9D0000231E1602046FEF73DFF0546204600F0AB
:10C9E000AFF9E3681B78492B824611D02A460346EB
:10C9F00001212046FBF75CFD05465CE52046FBF780
:10CA0000A5FF054657E52046FEF7C4FE054652E55C
:10CA1000204600F0D5FA5246034604212046FBF793
:10CA200047FD2A46034601212046FBF741FD054606
:10CA300041E50025E3680233E3604521204602F02A
:10CA4000D5FB2A46034630212046FBF731FD05463B
:10CA5000FFF710BB742B7FF4EDAA03796C2B7FF4E6
:10CA6000E9AA2046FEF7F6FE0546E3E71046FEF784
:10CA7000B3BF00BF682B0200602B0200342C020001
:10CA8000382C02005A78692A7FF4F3AB0233E36052
:10CA90002046452102F0AAFBFFF78BBB0133E36080
:10CAA0000020FFF786BB204603F06CFE06462046BA
:10CAB00003F068FE8046204603F064FEFFF779BB72
:10CAC000204603F05FFE0646FFF7B7BB2046452130
:10CAD00002F08CFB0646FFF7B0BB1B78A3F16302A4
:10CAE000012A03D9723B012B3FF67EAB2046FEF7AD
:10CAF000B1FE8046FFF77CBB2046FEF7ABFEFFF79A
:10CB0000FABB0133E360FEF75EBF0133E36020460A
:10CB1000452102F06BFBFEF759BF204600F050FAAA
:10CB20004246034604212046FBF7C2FC2946034641
:10CB300032462046FBF7BCFCFEF74EBF30B5C2685C
:10CB400083B000230193137843B3452B26D02E2BBB
:10CB500024D0044601AD15E04F2B16D0FEF77AFE27
:10CB60002E2102460023C8B12046FBF7A1FC286015
:10CB7000A0B1E268137800F108054BB1452B07D04E
:10CB80002E2B05D0522B2046E6D15378452BE5D1EC
:10CB9000019818B1836823B103B030BD002003B001
:10CBA00030BD426811782729F6D15268117C0929D5
:10CBB000F2D15168226B521A22634360ECE700BF46
:10CBC00070B5C3681A784A2A04460DD071B90D466B
:10CBD0002046FFF7B3FF034670B120462A462921BD
:10CBE000BDE87040FBF764BC0133C3602046FEF72C
:10CBF00031FE05460028EBD1002070BDC3681A78CD
:10CC0000462A01D00020704710B55A1CC2605A78DD
:10CC1000592A04BF0233C36001210446FFF7D0FF45
:10CC200001462046FBF702FDE3681A78452A01D049
:10CC3000002010BD0133E36010BD00BF2DE9F041BD
:10CC4000C3681A78844612B35A1CC2605A781E7898
:10CC500002BB9646394D3D200022831A03EBD37365
:10CC600002EB630319016F186C5821788E4207D0CC
:10CC7000B1420AD918468242EFD10020BDE8F081C6
:10CC800061788E4540D07145F4D85A1CF3E796463A
:10CC90001646DFE79A1CC260762E044693F801E040
:10CCA0001CD1AEF13005EBB2092BD3D8FBF780FED7
:10CCB0006369A1698B420246DFDA03EB4301206915
:10CCC0000133890063614318D7D0002AD5D03224BC
:10CCD00044545D609A601846BDE8F081632EB9D176
:10CCE000BEF1760FB6D1436BB3FA83F35B09856B64
:10CCF0008363FEF7AFFDA563024633212046002380
:10CD0000BDE8F041FBF7D4BBDCF81430DCF81820A8
:10CD10009342B2DA03EB4302DCF8101001339200C5
:10CD2000CCF814308B1805D0312088545F60184639
:10CD3000BDE8F0811846BDE8F08100BF5C25020027
:10CD4000F8B5C2681378A3F13001092904462ED939
:10CD5000A3F16101192933D9A3F14301012971D943
:10CD60004C2B00F08D80552B40F0888053786C2B35
:10CD700030D0742B40F08280531CC36051787429EA
:10CD800000F0C68042294FF0000517D10133E3605F
:10CD90002046FBF70DFE2A4603464A212046FBF7B4
:10CDA00087FBE368197842290546EFD006E0FBF7D8
:10CDB000FFFDE368197805464229E7D02846F8BD0B
:10CDC000FFF73CFF054610B10378312B65D0E368CF
:10CDD0001978F1E7531CC36051786C29D2D1023223
:10CDE000C260FFF7ABFEE3680646002800F0E28071
:10CDF00019784529C6D10133E3602046FBF78EFD43
:10CE00000028C0F29F806369A269934280F29A80F1
:10CE100003EB43022169920001338D18636100F036
:10CE2000918044238B546E60A860236A626A9342A7
:10CE300080F28880E26942F823505A1CE36822623B
:10CE40001978B9E7C06AA8B1017889B9216B8368FC
:10CE50000B442363117843297ED0442979D1537838
:10CE6000303B052B0AD8DFE803F02F4750094D4A25
:10CE70001829EBD0432B6FD0442BF0D00020F8BD05
:10CE80000132C260FBF794FD05460028F6D020462B
:10CE9000FBF77EFD00289AD1F0E74268266B936885
:10CEA0001068464933440733236304F059F90028D6
:10CEB0008DD12046FBF77CFD2A46034635212046CE
:10CEC000FBF7F6FA054682E74FF0010E6169A569A6
:10CED000931CA942E36039DA01EB41062769B600E9
:10CEE0000131BD19616131D080B30821B95585F890
:10CEF00004E0A86091785FE74FF0020EE6E74FF09C
:10CF0000050EE3E74FF0040EE0E74FF0030EDDE718
:10CF10000232C260FBF702FD002813DB6369A269DD
:10CF200093420FDA03EB43022169920001338D181B
:10CF3000636107D046238B546860236A626A934218
:10CF4000FFF678AFE3680025197835E7917800257A
:10CF500032E7134600252FE75378313B042B8DD859
:10CF6000DFE803F00325221F1C004FF0010E61696A
:10CF7000A569931CA942E360E8DA01EB4106276941
:10CF8000B6000131BD196161E0D00028DED0072173
:10CF9000B95585F804E0A86091780DE74FF0050ECB
:10CFA000E5E74FF0040EE2E74FF0030EDFE74FF046
:10CFB000020EDCE705461978FEE600BF442C0200AD
:10CFC0002DE9F04FC168D0F82C800B78493B012B3C
:10CFD00085B0044600F28A804A1CC2604B78452B1B
:10CFE00000F0868104AD002145F8041D493B0F2B5C
:10CFF00061D8DFE803F05B5B6040606060606060A8
:10D00000606060606008511C0127E160666B6763C7
:10D0100053784C2B00F0D580542B00F0D880732B24
:10D020007DD0662B00F08F80A3F1300009284CD909
:10D030006F2B45D0692B00F0A680742B00F0B780D1
:10D040002046FFF7FBFD0746002865D00378312B0B
:10D0500000F0C380322B00F02181332B5CD1E368D8
:10D060001A785F2A40F038810133E3602046452179
:10D0700002F0BCF833E12046FEF78CFB0246002AA2
:10D0800034D020462F210023FBF712FA286068B322
:10D09000E2681378452B00F10805A7D10398C4F87E
:10D0A0002C800132E26005B0BDE8F08F2046FFF72A
:10D0B00087FF0246E3E72046FEF7CCFB0246DEE7A9
:10D0C00093786E2BBCD10332E2602046FFF738FE26
:10D0D0000746002800F07F82E3681978492900F0AC
:10D0E000ED80024666631978452903D0002005B01B
:10D0F000BDE8F08F0133E360C1E74FF0000A50460E
:10D10000CE4904F02DF88146002800F0AF819AF84E
:10D1100000306E2B00F03481E3680022E2E7937860
:10D12000722B00F00F81702B8AD10332E26020460F
:10D1300003F028FB0023024649212046FBF7B8F9FB
:10D14000E3680246CEE79378702B7FF479AFD31C67
:10D15000E360D378542B40F00C810432E26000206D
:10D160006369A1698B42D7DA21695A1C03EB430337
:10D17000626111EB830200F0E380062701F823705F
:10D180005060E368AEE793786C2B7FF459AF0027CB
:10D190000231E1602046452102F028F83A46034674
:10D1A00030212046FBF784F9E36802469AE793783A
:10D1B0006C2B7FF445AF2046FEF74CFBE168074639
:10D1C000E6E72046FEF7E6FAE36802468AE72046ED
:10D1D000FBF7BCFBE368024684E7D0F80490226BBF
:10D1E000D9F80830D9F800A09549023B13442363CD
:10D1F000504603F0B5FF002800F01581D9F80C3037
:10D20000032B89D801A252F823F000BF8BD2010072
:10D2100005D3010021D20100FFD001004FF0000A28
:10D220007B681B685A78632A00F01281204603F05D
:10D23000A9FA81465046834903F092FF002800F086
:10D24000F6805046804903F08BFF30B150467F494D
:10D2500003F086FF002840F0C3812046FFF770FDF1
:10D26000E3681B78492B824600F00B824A465346FE
:10D2700037212046FBF71CF93A4603463621204663
:10D28000FBF716F9E36802462CE73A4600232046EE
:10D290003421FBF70DF9E368024623E77B68032B93
:10D2A0003FF63AAF01A252F823F000BF8BD2010043
:10D2B000D9D201001DD20100FBD001002046FFF7AA
:10D2C0007FFE3A46034604212046FBF7F1F8E36867
:10D2D000024607E70133E360204603F053FA0346B2
:10D2E0003A4620463521FBF7E3F8E3680246F9E6C3
:10D2F00002310022C16013462F2105B0BDE8F04F76
:10D30000FBF7D6B89AF80030702B01D06D2BE3D123
:10D310009AF801209A42DFD1E3681A785F2AD9D0BF
:10D32000204603F02FFA0246134620463721FBF72A
:10D33000BFF803463A4620463521FBF7B9F80246C6
:10D34000E368CFE60332E2602046FEF783FA8146C7
:10D350002046FFF7F5FCE3681B78492B824650D046
:10D3600003464A4639462046FBF7A2F8E3680246E0
:10D37000B8E62046FBF7D2FA01307FF4F1AEDEE7E3
:10D380009AF80130772B02D0612B7FF4C5AE5F2174
:10D39000204601F02BFF82462046FEF75BFAE36849
:10D3A0001A78452A814600F05681702A00F0CF8114
:10D3B000692A40F013815A786C2A40F00F810233B9
:10D3C000E3604521204601F011FF30210346002291
:10D3D0002046FBF76DF883464A465B463A212046D5
:10D3E000FBF766F85246034639212046FBF760F802
:10D3F0003A46034638212046FBF75AF8E3680246CE
:10D4000070E62046FFF7DCFD524603460421204625
:10D41000FBF74EF84A46034639462046FBF748F8E4
:10D42000E36802465EE62046FEF714FA81E72046EE
:10D43000452101F0DBFE824618E700BF682B0200A1
:10D44000282E0200602B0200342C0200382C02002F
:10D450001B78A3F16302012A03D9723B012B3FF62B
:10D46000E5AE2046FEF7F6F98146E3E6E3681A7872
:10D470004C2A00F00382542A00F06B83732A00F0D8
:10D480007281662A00F0AF81A2F13001092940F2D1
:10D4900026816F2A00F01D81692A00F0F681742A26
:10D4A00000F05E832046FFF7C9FB8246002800F0AB
:10D4B000B4830378312B00F0F683322B00F05A83CB
:10D4C000332B40F0F681E3681A785F2A01F061801F
:10D4D000204603F057F90346524620463521FAF715
:10D4E000E7FFE268137882464C2B00F00382542B4E
:10D4F00000F06782732B00F06081662B00F088815A
:10D50000A3F13001092940F209816F2B00F000815D
:10D51000692B00F0D881742B00F012832046FFF7AE
:10D520008DFB8146002800F0AA820378312B00F0A1
:10D53000E682322B00F05182332B40F0E781E36822
:10D540001A785F2A00F08B87204603F01BF9034608
:10D550004A4620463521FAF7ABFFE3681A78814640
:10D560004C2A00F0CE81542A00F03282732A00F057
:10D570001081662A00F06281A2F13001092940F28F
:10D5800091806F2A00F08880692A00F0C681742A91
:10D5900000F00E822046FFF751FB834600283FF43F
:10D5A0001BAF0378312B00F04884322B00F0A683A8
:10D5B000332B40F08381E3681A785F2A00F0BD8640
:10D5C000204603F0DFF85A46034635212046FAF795
:10D5D0006FFF834600E70246E36883E5002281E5AA
:10D5E000E3681A784C2A00F0E484542A00F0C484DA
:10D5F000732A00F0C981662A00F0A481A2F13001EB
:10D60000092932D96F2A2BD0692A00F01086742A92
:10D6100000F00E852046FFF711FB8246002800F03F
:10D6200069830378312B00F06D84322B00F0A885DC
:10D63000332B40F05F83E3681A785F2A00F050874D
:10D64000204603F09FF85246034635212046FAF75C
:10D650002FFF82460AE60133E3604FF0000BBBE682
:10D660005A786E2AD6D10233E3602046FFF768FB72
:10D670008246002800F03E83E3681B78492B7FF444
:10D68000F5AD2046FFF79CFC524603460421204698
:10D69000FAF70EFF8246E9E55A786E2A7FF47AAFF0
:10D6A0000233E3602046FFF74BFB834600283FF43C
:10D6B00093AEE3681B78492B7FF48EAE2046FFF7CC
:10D6C0007FFC5A46034604212046FAF7F1FE8346C2
:10D6D00082E65A786E2A7FF4E5AE0233E360204694
:10D6E000FFF72EFBE2688246137800283FF4FCAE79
:10D6F000492B7FF4F9AE2046FFF762FC5246034601
:10D7000004212046FAF7D4FEE26882461378EBE65D
:10D7100053786E2B7FF402AF931CE3602046FFF733
:10D720000FFBE36881461A7800283FF419AF492AB5
:10D730007FF416AF2046FFF743FC4A460346042118
:10D740002046FAF7B5FEE36881461A7808E75A786A
:10D75000692A7FF443AF0233E3602046452101F09C
:10D7600045FD834638E65A78722A00F04784702ACD
:10D770007FF498AE0233E360204603F003F84B4693
:10D78000024649212046FAF793FEE2688246137862
:10D79000AAE65A78722A00F0F583702A7FF4FAAE6E
:10D7A0000233E360204602F0EDFF492102460023E8
:10D7B0002046FAF77DFE83460EE65378722B00F082
:10D7C0006683702B7FF4AAAE931CE360204602F0C0
:10D7D000D9FF4921024620460023FAF769FEE36893
:10D7E00081461A78BCE65A78702A7FF45BAE9A1CA0
:10D7F000E2609A78542A40F0F683DA1CE2606369AA
:10D80000A1698B42C0F2DB8313784FF0000A6BE60C
:10D810005378702B7FF482AE931CE3609378542B83
:10D8200040F0FA84D31CE36000206269A1698A4257
:10D83000C0F2DE841A784FF0000991E65A78702A17
:10D840007FF4A8AE9A1CE2609A78542A40F01683BE
:10D850000333E36000206369A26993422EDA2269F0
:10D86000591C03EB430312EB830B61613FF4B4AD2E
:10D87000062102F82310CBF80400ADE52046FDF7A1
:10D8800089FFE268824613782EE65A786C2A7FF484
:10D8900009AE0233E3604521204601F0A7FC4A4669
:10D8A000034630212046FAF703FEE26882461378E9
:10D8B0001AE6E2684FF0000A137815E64FF0000B05
:10D8C0008AE54FF0000A53786C2B7FF427AE4FF0B7
:10D8D0000009E3680233E3604521204601F086FC3D
:10D8E0004A46034630212046FAF7E2FDE3688146C6
:10D8F0001A7835E62046FDF74DFFE36881461A7831
:10D900002EE62046FDF746FF834665E5E3684FF0C7
:10D9100000091A7824E64FF000095B786C2B7FF43D
:10D9200039AE4FF0000BE3680233E3604521204637
:10D9300001F05CFC5A46034630212046FAF7B8FD58
:10D94000834649E55A78702A7FF464AE9A1CE260F7
:10D950009A78542A40F0C8810333E360002062695A
:10D96000A3699A4280F2C6810C23216903FB02F36A
:10D9700011EB030A02F1010262613FF477AC062267
:10D98000CA54CAF8040071E45A78722A00F06F850C
:10D99000702A7FF43FAE0233E360204602F0F2FECD
:10D9A0004921024600232046FAF782FD82465DE4C3
:10D9B0005B786C2B7FF4EEAD2046FDF74BFF834682
:10D9C000B1E72046FAF7C2FFE36881461A78C7E557
:10D9D0002046FAF7BBFF8346FEE4D9F80430032B58
:10D9E00094D801A252F823F0F7DA010049D50100DA
:10D9F00085DA0100F9D901004FF0000B5846C749FC
:10DA000003F0AEFB002800F0A4859BF800206E2AEE
:10DA10007FF47CAF9BF80130772B02D0612B7FF431
:10DA200075AF5F21204601F0E1FB00902046FDF735
:10DA300011FFE3681A78452A834600F07985702A39
:10DA400000F06F85692A40F068855A786C2A7FF467
:10DA500062AF204602F096FE03465A463A2120461F
:10DA6000FAF726FD009A034639212046FAF720FDF1
:10DA70004A46034638212046FAF71AFD8146E368F4
:10DA80001A786DE54FF0000BD9F804201268517830
:10DA9000632900F02D85204602F074FE0090584660
:10DAA0009F4903F05DFB002800F06C8558469D49B6
:10DAB00003F056FB30B158469B4903F051FB002858
:10DAC00040F025852046FFF73BF9E3681B78492B9A
:10DAD000834600F03285009A5B4637212046FAF7EC
:10DAE000E7FC4A46034636212046FAF7E1FCE368A4
:10DAF00081461A7834E54A46204634216CE643686C
:10DB0000206B9A68D3F800B088490093023A104419
:10DB10002063584603F024FB009B002800F02E856C
:10DB2000DA68032A3FF6F2AE01A353F822F000BFF1
:10DB3000F7DA01003BDF010089DA0100FDD90100BD
:10DB400053786C2B7FF4EAAC2046FDF783FE8146C8
:10DB5000BFE62046FAF7FAFEE26882461378C3E48D
:10DB60005B786C2B7FF49EAC2046FDF773FEE36878
:10DB700081468EE6DAF80430032B3FF69AAE01A216
:10DB800052F823F093DC0100D1D4010021DC010024
:10DB900095DB01004FF000094846604903F0E0FAC8
:10DBA000002800F0708399F800306E2B7FF481AE6E
:10DBB00099F80130772B02D0612B7FF47AAE5F2188
:10DBC000204601F013FB81462046FDF743FEE26844
:10DBD0001378452B834600F09A83702B00F09083D6
:10DBE000692B40F0898353786C2B7FF46AAE204612
:10DBF00002F0C8FD03465A463A212046FAF758FC7F
:10DC00004A46034639212046FAF752FC524603465B
:10DC100038212046FAF74CFC8246E268137863E428
:10DC20004FF00009DAF804301B685A78632A00F0D4
:10DC30001C83204602F0A6FD83464846384903F07F
:10DC40008FFA002800F00B834846364903F088FA23
:10DC500030B14846344903F083FA002840F01F836E
:10DC60002046FFF76DF8E3681B78492B814600F0EA
:10DC700059835A464B4637212046FAF719FC52463B
:10DC8000034636212046FAF713FCE26882461378F1
:10DC90002AE45246002320463421FAF709FCE268C0
:10DCA0008246137820E4D0F804B0226BDBF8083009
:10DCB000DBF800901D49023B13442363484603F000
:10DCC0004FFA002800F0BA82DBF80C30032B3FF645
:10DCD000F0AD01A252F823F093DC0100A1E10100B4
:10DCE00025DC010099DB01002046FAF717FE013020
:10DCF0007FF435AE4FF0000AFFF7B8BADBF8043016
:10DD0000032B3FF6DBAD01A252F823F029DE010020
:10DD1000C1D50100B9DD010031DD0100682B020031
:10DD2000602B0200342C0200382C0200282E020046
:10DD3000002300930098CA4903F012FA002800F06B
:10DD4000C28200990A786E2A7FF4B8AD4B78772B9F
:10DD500002D0612B7FF4B2AD5F21204601F046FA7C
:10DD600000902046FDF776FDE36801901A78452A79
:10DD700000F0A582702A00F09782692A7FF49EAD98
:10DD80005B786C2B7FF49AAD204602F0FBFC0346D7
:10DD9000019A3A212046FAF78BFB009A0346392173
:10DDA0002046FAF785FB5A46034638212046FAF703
:10DDB0007FFB8346FFF710BB00230093DBF80420B2
:10DDC00012685178632900F01B83204602F0DAFCC8
:10DDD00001900098A34903F0C3F9002800F05E8386
:10DDE0000098A14903F0BCF930B100989F4903F0B5
:10DDF000B7F9002840F02A832046FEF7A1FFE36828
:10DE00001B78492B014600F06A820B46019A3721A4
:10DE10002046FAF74DFB5A46034636212046FAF7CC
:10DE200047FB8346FFF7D8BA5A46204634210023E1
:10DE3000FAF73EFB8346FFF7CFBA4368206B9A6838
:10DE400019680193023A0B461044009120638849F7
:10DE5000184603F085F9019B002800F07682DA6805
:10DE6000032A3FF62BAD01A353F822F029DE01006F
:10DE7000C3DE0100BDDD010035DD01002046FAF7FB
:10DE80004DFD01307FF4E7AC8346FFF7A5BA931C44
:10DE9000E3602046FDF7DEFC81462046FEF750FF9A
:10DEA000E3681B78492B834600F0538203464A46B9
:10DEB00020460121FAF7FCFAE36881461A78FFF759
:10DEC0004FBB009B1A78702A02D06D2A7FF478AB82
:10DED000009B5B7893427FF473ABE3681A785F2A08
:10DEE00000F0E282204602F04DFC02461346204636
:10DEF0003721FAF7DDFA03465A4620463521FAF76C
:10DF0000D7FAC1E74368206B9A68D3F800B0584944
:10DF10000093023A10442063584603F021F9009B15
:10DF2000002800F04D83DA68032A3FF6E3AEDFE80D
:10DF300012F056014502E800A3009BF80020702A69
:10DF400002D06D2A7FF400AB9BF8013093427FF43E
:10DF5000FBAAE3681A785F2A00F06082204602F08C
:10DF600011FC0246134620463721FAF7A1FA034670
:10DF70004A462046FFF7EEBA2046FAF7E7FC82460B
:10DF8000FFF774B90233E3602046FDF763FC834674
:10DF90002046FEF7D5FEE3681B78492B00F042824D
:10DFA0005A46034601212046FAF782FA8346FFF7D4
:10DFB00013BA2046FDF7EEFB8246FFF757B92169F9
:10DFC00003F1010E03EB430311EB830AC4F814E0E1
:10DFD0003FF424AE4FF0060E01F823E0CAF8040027
:10DFE0001378FFF781BA2046FAF798FC0130E2680F
:10DFF0007FF405AC82461378FFF776BA0233E3600C
:10E000002046FDF727FC81462046FEF799FEE3688F
:10E010001B78492B824600F0158103464A4620466C
:10E020000121FAF745FAE26882461378FFF75CBAF5
:10E030005B786C2B7FF4EEAA2046FDF70BFCE368BF
:10E0400082460233E3604521204601F0CFF8524674
:10E05000034630212046FAF72BFA8246FFF706B92D
:10E06000682B0200602B0200342C0200382C0200C6
:10E07000282E02004FF0000B5846CC4903F070F8F0
:10E08000002800F086819BF800206E2A7FF432AED3
:10E090009BF80130772B02D0612B7FF42BAE5F21F0
:10E0A000204601F0A3F800902046FDF7D3FBE3687B
:10E0B0001A78452A834600F07F82702A00F0718228
:10E0C000692A7FF417AE5B786C2B7FF413AE204681
:10E0D00002F058FB03465A463A212046FAF7E8F97F
:10E0E000009A034639212046FAF7E2F952460346E0
:10E0F00038212046FAF7DCF98246FFF7B7B84FF02F
:10E10000000BDAF8042012685178632900F02E81A0
:10E11000204602F037FB00905846A54903F020F84E
:10E12000002800F0D7815846A24903F019F830B111
:10E130005846A14903F014F8002840F025812046F4
:10E14000FEF7FEFDE3681B78492B834609D1204684
:10E15000FEF736FF5A46034604212046FAF7A8F98F
:10E160008346009A5B4637212046FAF7A1F95246CA
:10E17000034636212046FAF79BF98246FFF776B828
:10E18000DAF80430032B3FF6B5AD01A252F823F0C4
:10E19000DFE1010041D60100FFE0010075E0010070
:10E1A00099F80030702B02D06D2B7FF491A999F86B
:10E1B00001209A427FF48CA9E3681A785F2A00F064
:10E1C0000382204602F0DEFA02461346204637213B
:10E1D000FAF76EF9034652462046FFF77FB95246DA
:10E1E000204634210023FAF763F98246FFF73EB850
:10E1F000216902F1010E02EB420211EB8209C4F81F
:10E2000014E03FF43DAC4FF0060E01F822E0C9F8EF
:10E2100004001A78FFF7A4B92046FAF77FFB013013
:10E22000E3687FF402AB81461A78FFF799B95A7810
:10E230006C2A7FF4EFA94FF0000A02E72046FDF7B1
:10E2400009FBC7E72046FEF7BBFE52460346042102
:10E250002046FAF72DF94A4603462046E0E62046D6
:10E26000452100F0C3FF814603E51B78A3F163025B
:10E27000012A03D9723B012B3FF6DBAC2046FDF7A8
:10E28000E9FA8346D9E4204602F07CFA814620462A
:10E2900002F078FA8346204602F074FAAAE4204697
:10E2A00002F070FA8146E4E45A78692A7FF406ABFA
:10E2B0000233E3602046452100F098FF67E5013313
:10E2C000E360002063E5204602F05CFA00902046FF
:10E2D00002F058FA0190204602F054FA57E50090F7
:10E2E0002046FEF76DFE009903460A4620460421AB
:10E2F000FAF7DEF8014688E54FF0000AFFF7F4B8B8
:10E300005378692B07D04FF0000AFFF707B9531C69
:10E31000E36000206EE4931CE3602046452100F09A
:10E3200065FF67E42046FEF74BFE4A46034604219C
:10E330002046FAF7BDF881469BE40133E3602046AE
:10E34000452100F053FFFFF73EB92046FDF782FA62
:10E35000D1E52046FEF734FE5A4603460421204606
:10E36000FAF7A6F84A4603462046A2E51278A2F13B
:10E370006301012903D9723A012A3FF6C9AE20464A
:10E38000FDF768FA0090C7E6204602F0FBF98346E5
:10E39000E7E6204602F0F6F90090204602F0F2F996
:10E3A0008346204602F0EEF994E600BF682B020097
:10E3B000602B0200342C0200382C02009BF8002055
:10E3C000702A02D06D2A7FF43BA99BF8013093425A
:10E3D0007FF436A9E3681A785F2A3CD0204602F021
:10E3E000D1F90246134620463721FAF761F8034671
:10E3F000524620463521FAF75BF88246FEF736BFD3
:10E400001278A2F16301012903D9723A012A3FF679
:10E41000DCAC2046FDF71EFA0190DAE40133E3603C
:10E42000FFF792B800902046FEF7CAFD0099034618
:10E430000A4620460421FAF73BF85A4603460121D2
:10E440002046FAF735F88346FEF7C6BF204602F0AD
:10E4500099F90146D9E40133E360FFF7F1B80133DC
:10E46000E3602046452100F0C1FEFFF770B802339B
:10E47000E3602046FDF7EEF982462046FEF760FC99
:10E48000E3681B78492B834612D05246034601218C
:10E490002046FAF70DF88246FEF7E8BE45212046F1
:10E4A00000F0A4FE0146B0E40133E360FFF788B852
:10E4B0002046FEF785FD5A46034604212046F9F71B
:10E4C000F7FF5246034601212046F9F7F1FF824645
:10E4D000FEF7CCBE2046452100F088FE834640E68C
:10E4E0000133E3602046452100F080FEFFF7ABB822
:10E4F0001278A2F16301012903D9723A012A3FF689
:10E50000CAAA2046FDF7A6F90090FFF7C8BA204630
:10E5100002F038F98346FFF7DEBA4FF00009FFF743
:10E520001FB85A78692A21D04FF00009FFF732B896
:10E530000133E3600020FFF78FBA2046FEF740FD6D
:10E540005A46034604212046F9F7B2FF8346FFF7F7
:10E55000C2BA204602F016F90090204602F012F9E5
:10E560008346204602F00EF9FFF776BA0233E360E5
:10E570002046452100F03AFEFFF76EBA2046FDF72F
:10E5800069F9F4E42046452100F030FE8346FFF7A8
:10E59000A2BA0133E3602046452100F027FEFEF7D2
:10E5A0009ABF5A78692A7FF4A5AB0233E36020460C
:10E5B000452100F01BFE8DE50133E360002089E575
:10E5C0002046FDF747F912E70133E360FEF780BF0D
:10E5D0002DE9F041C26813784E3B84B005460C2B00
:10E5E0006CD8DFE803F01B6B6B6B6B5C6B166B6BB3
:10E5F0006B6B07000132C260002100F069F9EB6823
:10E600001A78452A064600F0E780002004B0BDE8ED
:10E61000F081FEF795FB04B0BDE8F0810132C260E5
:10E6200003A90122F9F7AAFF07460028EDD02846E2
:10E630000021F9F7FBFFEA68147880460026002CD9
:10E6400000F0B480442C00F09B80A4F13003DBB2D6
:10E65000092B76D9A4F16103DBB2192B71D9432CB4
:10E6600000F09F80552C00F09C804C2C00F099808D
:10E67000532C00F0A780492C00F09D80542C00F012
:10E68000C280452C00F00A814D2C40F08F80002E76
:10E6900000F08C80531CEB6054781A46CFE7537817
:10E6A000742B1FD00021F9F7DBFFEB681B78492B97
:10E6B00004463CD0204604B0BDE8F081FEF740FBA4
:10E6C000EB681B78492B0446F4D100289DD02B6AB7
:10E6D0006A6A934299DAE9695A1C41F8230028468C
:10E6E0002A6225E002327849C2600322F9F72CFF42
:10E6F00004462846FEF724FB22460346012128460D
:10E70000F9F7D6FE2B6BEA6803332B631378492B9A
:10E710000446CFD100283FF478AF2B6A6A6A93424F
:10E72000BFF673AFE9695A1C41F823002A622846F4
:10E73000FEF746FC2246034604212846F9F7B8FEB8
:10E7400069E72846FEF7FCFA4EB30121324603463C
:10E750002846F9F7ADFE0646532C1DD0EA6814781A
:10E76000452C3FF472AF0EB32B6A6A6A93421DDAEE
:10E77000EA6942F823600133EA682B6214785EE7A5
:10E78000537803F0DF03542B28460CD0FEF7D8FA59
:10E79000002EDAD10646E1E7EA6814784FE706462C
:10E7A000DAE72846F2E7FDF755F8F1E70020386090
:10E7B00004B0BDE8F081002EF8D02846FEF700FC3A
:10E7C0000421C3E728460121F9F74AFF002EBCD1F6
:10E7D000EA680646147832E75A1CEA605A78732AC7
:10E7E00048D0642A13D02846FFF7F2FE034620B132
:10E7F0000278442A01D0462A34D1284632460221E2
:10E80000F9F756FE07E72846FAF7A0F8C0E7023303
:10E81000EB602846FAF782F8071EFFF6F6AE2846A8
:10E82000FFF7D6FE044620B10378442B01D0462BD7
:10E8300012D16B69AA6993420CDA03EB430229698E
:10E84000013392006B618B18D7D0452088549F60AC
:10E850005C60D2E70023D0E72846FAF799F8002851
:10E86000E7D1D2E601902846FAF792F8019B0028FA
:10E87000C3D1CAE60233EB602846FAF789F80028CC
:10E880003FF4C3AE284611490E22F9F75DFE324629
:10E89000034602212846F9F70BFEBCE63E60002E37
:10E8A0003FF4B3AEB8F1000F04D0039BC8F80430B6
:10E8B000CDF80C80EB681A78452A7FF4A6AE0133B8
:10E8C000EB600398A7E600BF582C0200482C02001A
:10E8D0002DE9F047C3681A78472A05463BD0542AE9
:10E8E00039D00E46FFF774FE044688B316B1AB6804
:10E8F000DB071FD5EB681B7823B3452B22D02146BD
:10E900000B78042BA3F11C0200F01A81C0F01681D1
:10E91000042A00F2138149680029F1D12846FEF744
:10E920004FF92246034603212846BDE8F047F9F790
:10E93000BFBD64682378A3F11C02042AF9D9022B15
:10E9400000F06E812046BDE8F087EB680233EB6093
:10E950000020BDE8F087296B01F114022A631A78C0
:10E96000542A73D0472AF3D15A1CEA605A78002AF5
:10E97000EED09A1CEA605A78413A312AE8D801A1CF
:10E9800051F822F011ED010051E9010051E90100B7
:10E9900051E9010051E9010051E9010051E901008B
:10E9A00051E9010051E9010051E9010051E901007B
:10E9B00051E9010051E9010051E9010051E901006B
:10E9C00051E9010051E90100F3EC010051E90100B6
:10E9D00029ED010051E90100DDEC010051E90100E0
:10E9E00051E9010051E9010051E9010051E901003B
:10E9F00051E9010051E9010051E9010051E901002B
:10EA000051E9010051E9010051E9010051E901001A
:10EA100051E9010051E9010051E9010051E901000A
:10EA200051E9010051E9010051E9010051E90100FA
:10EA300051E9010051E9010051E9010051E90100EA
:10EA400051E9010051E9010043EC01005A1CEA6060
:10EA50005A78002A3FF47CAF9A1CEA605B78433B0B
:10EA6000332B3FF675AF01A252F823F0A7ED01005A
:10EA700051E9010051E9010091ED010051E9010066
:10EA80007BED0100B7EE0100A1EE010051E90100AC
:10EA900051E9010051E9010051E9010051E901008A
:10EAA00051E9010051E9010051E901008BEE01003B
:10EAB00071EE010051E9010057EE010041EE010045
:10EAC00051E9010051E9010051E9010051E901005A
:10EAD00051E9010051E9010051E9010051E901004A
:10EAE00051E9010051E9010051E901000DEE010079
:10EAF00051E9010051E9010051E9010051E901002A
:10EB0000E7ED010051E9010051E9010051E901007F
:10EB100051E9010051E9010051E9010051E9010009
:10EB200051E9010051E9010051E9010051E90100F9
:10EB300051E9010051E9010055ED01000021EDE628
:10EB40004A68002A7BD01378013B322B77D801A189
:10EB500051F823F039EC010039EC01003FEC0100E1
:10EB60003FEC01003FEC01003FEC01003DEB0100F8
:10EB70003DEB01003FEC01003FEC01003FEC0100E8
:10EB80003FEC01003FEC01003FEC01003FEC0100D5
:10EB90003FEC01003FEC01003FEC01003FEC0100C5
:10EBA0003FEC01003FEC01003FEC01003FEC0100B5
:10EBB0003FEC01003FEC01003FEC01003FEC0100A5
:10EBC0003FEC01003FEC01003FEC01003FEC010095
:10EBD0003FEC01003FEC01003FEC01003FEC010085
:10EBE0003FEC01003FEC01003FEC01003FEC010075
:10EBF0003FEC01003FEC01003FEC01003FEC010065
:10EC00003FEC01003FEC01003FEC01003FEC010054
:10EC10003FEC01003FEC01003FEC01003DEB010047
:10EC2000A26813781C3B042B04D8526813781C3B51
:10EC3000042BFAD9A26085E69268002A83D10121CB
:10EC40006CE605F10C00F9F725FE01287FF780AE90
:10EC5000EB681A78002A3FF47BAE5F1CEF601B78EC
:10EC60005F2B7FF475AE461E4FF000084FF03F0952
:10EC70003B78002B3FF46CAE242B00F027813A4602
:10EC8000002404E012F8013F23B1242B02D0013408
:10EC9000B442F7DB394628462246F9F755FCEF68BF
:10ECA0002744361BEF6000283FF452AEB8F1000F46
:10ECB00000F02B81424603463E212846F9F7F8FB37
:10ECC000804600283FF444AE002ED1DC2846424660
:10ECD0003D210023BDE8F047F9F7EABB2846FFF7DE
:10ECE00077FC1321024600232846BDE8F047F9F7D8
:10ECF000DFBB2846FFF76CFC04462846F9F7F2FD17
:10ED00002246034616212846BDE8F047F9F7D0BB56
:10ED100028460021FFF7DCFD172102460023284684
:10ED2000BDE8F047F9F7C4BB9A7828460021002ACD
:10ED300000F0ED80DA1CEA609B786E2B40F0E780F3
:10ED4000FFF7C6FD4821024600232846BDE8F047EC
:10ED5000F9F7AEBB28467621F9F76CFE00283FF4A0
:10ED6000F7AD28460021FFF7B3FD1021024600232E
:10ED70002846BDE8F047F9F79BBB2846FFF728FC7B
:10ED80001421024600232846BDE8F047F9F790BB5E
:10ED90002846FCF75FFD0E21024600232846BDE809
:10EDA000F047F9F785BB2846FCF754FD044605F10A
:10EDB0000C00F9F76FFD0028FFF6CAADEB681A7872
:10EDC0005F2A7FF4C5AD0133EB602846FCF742FDB6
:10EDD0002B6B591D29630246234628460B21BDE8AB
:10EDE000F047F9F765BB28466821F9F723FE0028AC
:10EDF0003FF4AEAD28460021FFF76AFD0F21024621
:10EE000000232846BDE8F047F9F752BB2846002109
:10EE1000F9F710FE00283FF49BAD28460021F9F7D2
:10EE200009FE00283FF494AD28460021FFF750FD6D
:10EE30001121024600232846BDE8F047F9F738BB08
:10EE40002846FFF7C5FB1521024600232846BDE8EA
:10EE5000F047F9F72DBB0F3129632846FCF7FAFC80
:10EE60000921024600232846BDE8F047F9F720BBF8
:10EE70000A3129632846FCF7EDFC0A2102460023EB
:10EE80002846BDE8F047F9F713BB2846FCF7E2FC3B
:10EE90000D21024600232846BDE8F047F9F708BBDC
:10EEA0002846FCF7D7FC1221024600232846BDE87D
:10EEB000F047F9F7FDBA2846FCF7CCFC0C210246D6
:10EEC00000232846BDE8F047F9F7F2BA7B78532BC8
:10EED00029D05F2B25D0242B7FF43AAD1A466B69DD
:10EEE000A9698B42BFF631AD2969581C03EB430376
:10EEF000686111EB83003FF428AD01F82390426074
:10EF0000EF680237023EEF60D0E68046DCE6FFF7AE
:10EF1000DFFC4721024600232846BDE8F047F9F709
:10EF2000C7BA2E22DBE72F22D9E700BF2DE9F04335
:10EF3000E1B090F80080B8F15F0F00AF06460D46D3
:10EF4000144600F0D2803046A749082202F01AF990
:10EF500078B9337A2E2B05D05F2B03D0242B01D028
:10EF6000814608E0737A442B00F0CF80492B00F0F3
:10EF7000CC804FF00009304602F0FCF841008300DD
:10EF80005A18920008320A33ADEB020D23F0070342
:10EF9000EC4606EB000EADEB030D11220023B9F198
:10EFA000010FC7F814C0C7F820D0F9617E603E6138
:10EFB000B862C7F808E0FA60BB617B62FB623B6342
:10EFC0007B63BB63FB6300F09780C0F0A980B9F15D
:10EFD000030F00F2A580F27AB9F1020F06F10B08D7
:10EFE0000CBF4FF042094FF043095F2AC7F8108069
:10EFF00003D1327B5A2A00F0EE80404602F0BAF884
:10F0000041460246381DF9F79FFA02464946002359
:10F01000381DF9F74DFAD7F810800646404602F041
:10F02000A9F808EB00033B6118F80090B9F1000F54
:10F0300065D1002E00F0CD8007F1400807F5BC70C7
:10F0400007F5B6713246C8F80851C8F80C41C8F83F
:10F05000009188F80491C8F81091C8F81491C8F884
:10F060001C91C8F82091C8F81891C8F82491C8F8E4
:10F070002891C8F82C91C8F83091C8F83491C8F894
:10F080003891F9F793FBD8F82C11D8F83831C8F833
:10F090003C9103FB01F3CA000832D9006C460831E9
:10F0A000ADEB020D6D463246ADEB010D4046112130
:10F0B000C8F83831C8F830D1C8F82451FAF770F8D8
:10F0C000D8F80011D8F8083108F801904046A54654
:10F0D000D8F80C219847D8F81801B0FA80F007F555
:10F0E000C2774009BD46BDE8F08343785A2B7FF4D0
:10F0F0002AAF4FF001093EE7B8F15F0F18D00020AA
:10F1000007F5C277BD46BDE8F083B27A5F2A7FF487
:10F1100030AF492B0CBF4FF002094FF003092AE72B
:10F12000381DFCF797FB3B69064693F800907DE796
:10F1300073785A2BE3D102364946381D3E61FFF7FA
:10F14000C7FBFB68DB0706460FD43B6993F80090CA
:10F150006CE75A1A381D3B61F9F7F6F93246034657
:10F160004B21381DF9F7A4F90646396991F800904A
:10F17000B9F12E0F7FF45AAF4B78A3F16102192A2F
:10F180001AD95F2B18D0303B092BDED80A780B46F2
:10F190002E2ADED15A78303A092ADAD89A78A2F1A2
:10F1A0003000092803F10203F2D813F8012FA2F16D
:10F1B00030000928F9D9EBE7881C0278A2F1610E2A
:10F1C000BEF1190F034600F10100F6D95F2AF4D011
:10F1D000DEE7304694E70D361946381D3E61FFF7ED
:10F1E00077FB024612E700BF3C2902002DE9F04FF1
:10F1F000C268157887B000238D420446059300F05D
:10F20000D5820F4605AE4FF00108656BC4F8348017
:10F2100013784C2B00F09080542B00F0A980732BB6
:10F2200052D0662B63D0A3F1300109292BD96F2B63
:10F2300024D0692B00F08880742B00F0B780204622
:10F24000FDF7FCFC8046002871D00378312B00F0DC
:10F250009480322B00F0B480332B68D1E3681A78A5
:10F260005F2A00F0E882204601F08CFA424603460D
:10F2700035212046F9F71CF9024661E053786E2BE0
:10F28000DDD10232E2602046FDF75AFD80460028BB
:10F290004DD0E3681B78492B00F0A28002466563DD
:10F2A00020462E210023F9F703F9306000283FD0D3
:10F2B000E2681378BB4200F10806A4D10598013238
:10F2C000E26007B0BDE8F08F5378722B00F03D810B
:10F2D000702BB4D10232E260204601F053FA49218A
:10F2E000024600232046F9F7E3F8024628E0537867
:10F2F000702BA4D1931CE3609378542B7BD02046D1
:10F30000F9F70CFB013012D06369A26993420EDA5F
:10F310002269591C03EB4303616112EB830106D0A0
:10F320004FF0060E02F823E00A464860B7E765632F
:10F33000002007B0BDE8F08F2046FCF72BFA02460C
:10F340006563002AACD1F3E753786C2B7FF477AF79
:10F350004FF00008931CE36045212046FFF746FF6D
:10F360004246034630212046F9F7A2F80246E7E775
:10F370002046F9F7EBFA0246E2E7D0F804A0226B48
:10F38000DAF80830DAF800908649023B1344236328
:10F39000484601F0E5FE002800F0F380DAF80C3072
:10F3A000032BC4D8DFE803F02BB6833553786C2BDE
:10F3B0007FF445AF2046FCF74DFAE2688046C9E786
:10F3C000D8F80430032BB2D801A252F823F000BFC2
:10F3D000FFF3010067F20100ABF401000FF401003C
:10F3E0002046FDF7EDFD4246034604212046F9F78D
:10F3F0005FF80246A4E70332E260002084E7424659
:10F40000204634210023F9F753F8024698E74FF0DD
:10F4100000094846644901F0A3FE8246002800F036
:10F42000CB8099F800306E2B81D199F80130772B81
:10F4300002D0612B7FF47BAF5F212046FFF7D6FE21
:10F4400082462046FCF706FAE3681A78452A814688
:10F4500000F0B581702A00F05482692A7FF467AF0A
:10F460005A786C2A7FF463AF0233E360452120466B
:10F47000FFF7BCFE3021034600222046F9F718F8BA
:10F4800083464A465B463A212046F9F711F8524630
:10F49000034639212046F9F70BF842460346382146
:10F4A0002046F9F705F802464AE74FF00009D8F878
:10F4B00004301B685A78632A00F05981204601F015
:10F4C00061F982464846394901F04AFE002863D076
:10F4D0004846374901F044FE28B14846354901F015
:10F4E0003FFE002848D12046FDF72AFCE3681B7840
:10F4F000492B814600F0688152464B463721204611
:10F50000F8F7D6FF4246034636212046F8F7D0FFEB
:10F51000024615E799F80030702B02D06D2B7FF46E
:10F52000A2AE99F801209A427FF49DAEE3681A7862
:10F530005F2A00F07C82204601F024F9024613463F
:10F5400020463721F8F7B4FF1EE00232E260204681
:10F55000FCF780F981462046FDF7F2FBE3681B7853
:10F56000492B824600F011814A4603464146204617
:10F57000F8F79EFF0246E3E6204601F003F98146D4
:10F58000BAE72046FCF766F9034642462046352195
:10F59000F8F78EFF0246D3E620464521FFF726FE08
:10F5A0008146A9E7282E0200682B0200602B02008A
:10F5B000342C0200382C0200E26813784C2B00F047
:10F5C0005482542B00F05882732B00F0D081662BAC
:10F5D00000F03881A3F13001092900F200812046B2
:10F5E000FDF7AEFBE2688246137810B1492B00F0BC
:10F5F000F5844C2B00F02682542B00F07982732B7B
:10F6000000F08B81662B00F0C881A3F1300109293D
:10F6100040F25E816F2B00F05581692B00F0518222
:10F62000742B00F0A1842046FDF708FB81460028DA
:10F6300000F0D7820378312B00F07582322B00F076
:10F64000AD84332B40F0F681E3681A785F2A00F02E
:10F650002287204601F096F803464A462046352187
:10F66000F8F726FFE268137881464C2B00F0F8810A
:10F67000542B00F01F82732B00F06581662B00F085
:10F68000B181A3F13001092940F205816F2B00F00F
:10F69000FC80692B00F0F981742B00F05C8420461B
:10F6A000FDF7CCFA0090002800F0F38590F800C038
:10F6B000BCF1310F00F08C83BCF1320F00F05D849F
:10F6C000BCF1330F40F0BB81E3681A785F2A00F089
:10F6D0006A85002102914C2A00F09186542A00F09C
:10F6E0008886732A00F0C085662A00F09B85A2F107
:10F6F0003001092940F271856F2A00F06885692A76
:10F7000001F00780742A00F0EC872046FDF796FA96
:10F710000190002800F003870378312B00F0E28687
:10F72000322B01F00180332B40F04A87E3681A78CE
:10F730005F2A00F0A886204601F024F80346019ACB
:10F7400020463521F8F7B4FE8346029B002B00F0DB
:10F750003185204637215A465B46F8F7A9FE034615
:10F76000009A20463521F8F7A3FE834689E61B78E8
:10F77000A3F16302012A03D9723B012B3FF69EAE2F
:10F780002046FCF767F882469CE62046FDF718FC09
:10F790005246034604212046F8F78AFE4A460346AD
:10F7A00041462046F8F784FE0246C9E50132C260B0
:10F7B0002E211A4607B0BDE8F04FF8F779BE0133A5
:10F7C000E3604FF0000B5CE62046FDF7F9FB4A468C
:10F7D000034604212046F8F76BFE81468CE66F2B2A
:10F7E00000F03781692B00F08A81742B00F0A98327
:10F7F0002046FDF723FA8246002800F09A8203781B
:10F80000312B00F03782322B00F0D883332B40F0BD
:10F810000981E3681A785F2A00F04586204600F0E7
:10F82000B1FF0346524620463521F8F741FEE26813
:10F8300082461378DDE60133E36020464521FFF779
:10F84000D5FC13E55378702BD2D1931CE3609378E9
:10F85000542B40F08A840332E2606369A1698B42D1
:10F8600080F20C84216903F1010E03EB430311EBD9
:10F87000830AC4F814E000F05D824FF0060E01F830
:10F8800023E0CAF804001378B3E653786E2B7FF4B4
:10F8900006AF0232E2602046FDF752FA83460028A6
:10F8A0003FF4EFADE3681B78492B7FF4EAAD2046C7
:10F8B000FDF786FB5A46034604212046F8F7F8FD7B
:10F8C0008346DEE553786E2B7FF4ADAE0232E26004
:10F8D0002046FDF735FAE2688146137800283FF4A8
:10F8E000C4AE492B7FF4C1AE2046FDF769FB4A4602
:10F8F000034604212046F8F7DBFDE26881461378D1
:10F90000B3E65A78692A7FF412AD0233E3602046E9
:10F910004521FFF76BFC8346B3E55378722B00F06B
:10F92000E683702B7FF47FAE0232E260204600F067
:10F9300029FF4921024620460023F8F7B9FDE26875
:10F940008146137891E65378722B00F0B983702BBF
:10F950007FF4A5AE0232E260204600F013FF492199
:10F96000024600232046F8F7A3FD834689E5537835
:10F97000722B00F06983702B7FF43AAF0232E260A1
:10F98000204600F0FFFE5346024649212046F8F784
:10F990008FFDE268824613782BE65378702B7FF454
:10F9A00042AE931CE3609378542B40F0F183033212
:10F9B000E26000206369A1698B4280F2B283216911
:10F9C00003F1010E03EB430311EB8309C4F814E0C8
:10F9D00000F008814FF0060E01F823E0C9F804009A
:10F9E000137842E65378702B7FF459AE931CE36092
:10F9F0009378542B40F01F830332E2600020636948
:10FA0000A26993421BDA2269591C03EB430312EBF0
:10FA1000830B61613FF435AD062102F82310CBF86A
:10FA200004002EE5E2684FF0000A1378E1E50133A7
:10FA3000E36018E4E2684FF00009137815E64FF030
:10FA4000000B1EE52046FBF7A5FEE2688146137811
:10FA50000BE653786E2B7FF4CBAE0232E260BEE54C
:10FA60002046FBF797FE83460BE52046FBF792FE08
:10FA7000E26882461378BCE52046F8F767FFE26843
:10FA800082461378B5E54FF0000953786C2B7FF46C
:10FA900006AE4FF0000BE3680233E36045212046D9
:10FAA000FFF7A4FB5A46034630212046F8F700FD35
:10FAB0008346E6E42046F8F749FF8346E1E44FF049
:10FAC000000A53786C2B7FF4AEAD4FF00009E36869
:10FAD0000233E36045212046FFF788FB4A46034690
:10FAE00030212046F8F7E4FCE26881461378BCE553
:10FAF0002046F8F72BFFE26881461378B5E5537886
:10FB00006C2B7FF475AE0232E26045212046FFF790
:10FB10006DFB5246034630212046F8F7C9FCE268E7
:10FB20008246137865E54368206B9A68D3F800B085
:10FB3000B7490093023A10442063584601F010FB85
:10FB4000009B002800F03F83DA68032A3FF672AF7B
:10FB5000DFE812F08C00EC024C0006004FF0000BC6
:10FB60005846AC4901F0FCFA002800F0D6839BF817
:10FB700000206E2A7FF45EAF9BF80130772B02D015
:10FB8000612B7FF457AF5F212046FFF72FFB0090DA
:10FB90002046FBF75FFEE2681378452B834600F0B2
:10FBA0003D83702B00F09684692B40F08F8453784E
:10FBB0006C2B7FF468AF204600F0E4FD03465A4604
:10FBC0003A212046F8F774FC009A03463921204672
:10FBD000F8F76EFC4A46034638212046F8F768FCE1
:10FBE0008146E268137840E54FF0000BD9F8042015
:10FBF00012685178632900F0E283204600F0C2FDCC
:10FC000000905846844901F0ABFA002800F07F8349
:10FC10005846824901F0A4FA30B15846804901F0B3
:10FC20009FFA002840F0D9832046FDF789F8E36861
:10FC30001B78492B834609D12046FDF7C1F95A4666
:10FC4000034604212046F8F733FC8346009A5B46BE
:10FC500037212046F8F72CFC4A4603463621204639
:10FC6000F8F726FCE26881461378FEE44A4620460F
:10FC7000342161E6D0F804B0226BDBF80830DBF801
:10FC800000906349023B13442363484601F068FA3D
:10FC9000002800F0BF82DBF80C30032B3FF6C2AE29
:10FCA000DFE813F08C00AA014C0006004FF00009B9
:10FCB0004846584901F054FA002800F0708399F83A
:10FCC00000306E2B7FF4AEAE99F80130772B02D066
:10FCD000612B7FF4A7AE5F212046FFF787FA8146AC
:10FCE0002046FBF7B7FDE2681378452B834600F00A
:10FCF0006283702B00F07683692B40F0AC835378DD
:10FD00006C2B7FF4DCAE204600F03CFD03465A46E7
:10FD10003A212046F8F7CCFB4A46034639212046D3
:10FD2000F8F7C6FB5246034638212046F8F7C0FBD9
:10FD30008246E26813785CE44FF00009DAF8043098
:10FD40001B685A78632A00F0A882204600F01AFD4A
:10FD500083464846304901F003FA002800F0C48287
:10FD600048462E4901F0FCF930B148462C4901F0D3
:10FD7000F7F9002840F09F822046FCF7E1FFE36896
:10FD80001B78492B814609D12046FDF719F94A46CF
:10FD9000034604212046F8F78BFB81465A464B4622
:10FDA00037212046F8F784FB524603463621204689
:10FDB000F8F77EFBE268824613781AE45246002385
:10FDC00020463421F8F774FBE2688246137810E489
:10FDD0004368206B9A68D3F800B00D49CDF808C08D
:10FDE000023A024422635846019301F0B9F9019B9B
:10FDF000DDF808C0002800F00882DB68032B3FF61E
:10FE00001EAEDFE813F095004A015600110000BF56
:10FE1000282E0200682B0200602B0200342C020006
:10FE2000382C02004FF0000B5846D54901F098F9E4
:10FE3000002800F096829BF800306E2B7FF4FFAD17
:10FE40009BF80130772B02D0612B7FF4F8AD5F2156
:10FE50002046FFF7CBF901902046FBF7FBFCE36857
:10FE60001A78452A834600F07882702A00F06C8464
:10FE7000692A7FF4E4AD5B786C2B7FF4E0AD20461B
:10FE800000F080FC5A4603463A212046F8F710FB62
:10FE9000019A034639212046F8F70AFB009A0346E7
:10FEA00038212046F8F704FB8346FFF7EABA4FF003
:10FEB000000B009B5B681B685A78632A00F03F8246
:10FEC000204600F05FFC01905846AE4901F048F929
:10FED000002800F02E825846AB4901F041F930B1BC
:10FEE0005846AA4901F03CF9002840F046822046D5
:10FEF000FCF726FFE3681B78492B834609D120468F
:10FF0000FDF75EF85A46034604212046F8F7D0FA7A
:10FF100083465B46019A37212046F8F7C9FA009AD2
:10FF2000034636212046F8F7C3FA8346FFF7A9BAFD
:10FF3000009A204634210023F8F7BAFA8346FFF7E7
:10FF4000A0BA53786C2B7FF453AC2046FBF782FCAD
:10FF5000E2688246D7E553786C2B7FF4A0AB20464D
:10FF6000FBF778FC834696E553786C2B7FF45BAB0C
:10FF70002046FBF76FFC8146A9E5009B5B68032BDD
:10FF80003FF65DAD01A252F823F000BF31FF010042
:10FF900087000200AFFE010025FE0100D9F8043001
:10FFA000032B3FF647AD01A252F823F06DFC010090
:10FFB00053F60100E9FB01005DFB0100DAF80430B3
:10FFC000032B3FF62FAD01A252F823F0BDFD010037
:10FFD0001DF8010039FD0100ADFC01002046FCF7D1
:10FFE000EFFF5246034604212046F8F761FAE26823
:10FFF00082461378FFF7FDBA99F80030702B02D0D3
:020000022000DC
:100000006D2B7FF40BAC99F801209A427FF406AC7B
:10001000E3681A785F2A00F04E82204600F0B2FBB7
:100020000246134620463721F8F742FA0346524665
:100030002046FFF7F9BB2046F8F770FC01307FF44B
:10004000DEAC8346FFF71DBA0232E2602046FBF7C2
:1000500001FC81462046FCF773FEE3681B78492BC0
:10006000824600F0478103464A4620460121F8F7C0
:100070001FFAE26882461378FFF7BBBA13784FF095
:10008000000AFFF7B6BABCF1330FE3683FF41DABCB
:1000900000211A780291FFF71EBB9BF80030702BED
:1000A00001D06D2BEFD19BF801209A42EBD1E36890
:1000B0001A785F2A00F0078201210291FFF70BBB3B
:1000C0000232E2602046FBF7C5FB83462046FCF780
:1000D00037FEE3681B78492B00F0F2805A4603464E
:1000E00001212046F8F7E4F98346FFF7CAB9023246
:1000F000E2602046FBF7AEFB81462046FCF720FE7F
:10010000E3681B78492B834600F03C8103464A464E
:1001100020460121F8F7CCF9E26881461378FFF711
:10012000A4BA13784FF00009FFF79FBA9BF800209C
:10013000702A02D06D2A7FF48CAA9BF8013093427A
:100140007FF487AAE3681A785F2A00F0B881204616
:1001500000F018FB0246134620463721F8F7A8F9AD
:1001600003464A462046FFF77ABA2046F8F7D6FB00
:100170000130E2687FF471AB82461378FFF739BA39
:10018000682B0200602B0200342C0200382C020085
:100190002046F8F7C3FB0130E2687FF40BAC8146E0
:1001A0001378FFF762BA0133E36020464521FFF779
:1001B0001DF883465B46009A20463521F8F778F90A
:1001C0008346FFF75EB92046FBF744FBC8E75A7841
:1001D0006E2A7FF49AAA0233E3602046FCF7B0FD52
:1001E000834600283FF4B1AAE3681B78492B7FF4CB
:1001F000ACAA2046FCF7E4FE5A46034604212046FA
:10020000F8F756F98346FFF7A0BA2046FBF722FB22
:10021000FFF7A5BA2046FBF71DFB07E70132E260B6
:100220000020CBE45A78702A7FF46FAA9A1CE2600F
:100230009A78542A40F0FF800333E360002063691A
:10024000A269934280F2BC812269591C03EB4303EB
:1002500012EB830B61613FF478AA062102F82310A8
:10026000CBF80400FFF771BA5A78722A00F0CD80FB
:10027000702A7FF44AAA0233E360204600F082FA33
:100280004921024600232046F8F712F98346FFF77A
:100290005CBADDF800B0FFF7F4B81B78A3F1630295
:1002A000012A03D9723B012B3FF64FAD2046FBF7E5
:1002B000D1FA83464DE5204600F064FA81466DE5AB
:1002C00000902046FCF77CFE009903460A46204633
:1002D0000421F8F7EDF85A46034601212046F8F7C5
:1002E000E7F88346FFF7CDB820464521FEF77EFFAD
:1002F000814653E52046FCF763FE5246034604213F
:100300002046F8F7D5F84A4603462046AEE6204692
:100310004521FEF76BFF834698E4204600F032FA51
:100320000090204600F02EFA8346204600F02AFA7C
:1003300044E420464521FEF759FF8346E9E51B7852
:10034000A3F16302012A03D9723B012B3FF6B8AD3A
:100350002046FBF77FFA0190B6E50133E360002009
:1003600090E5204600F00EFA0190204600F00AFACF
:100370008346204600F006FA84E5204600F002FAA3
:100380008346C6E52046FCF71BFE5A460346042179
:100390002046F8F78DF84A4603462046B9E620463F
:1003A00000F0F0F98146204600F0ECF98346204643
:1003B00000F0E8F9AAE40132E2600020A6E4127835
:1003C000A2F16301012903D9723A012A3FF615AC63
:1003D0002046FBF73FFA009013E4204600F0D2F9E4
:1003E000834633E45378692B2ED04FF0000AFFF791
:1003F0001AB92046F8F7AAFA8346FFF7A6B92046AD
:10040000FBF7C8F98346FFF7A0B90233E360204643
:10041000FBF720FA83462046FCF792FCE3681B7842
:10042000492B1CD05A46034601212046F8F740F8D4
:100430008346FFF78AB92046F8F770FA01307FF457
:10044000FEAE8346FFF781B90232E26020464521C5
:10045000FEF7CCFE5AE44FF0000AFFF7CAB801904D
:100460002046FCF7ADFD019903460A4620460421CB
:10047000F8F71EF85A46034601212046F8F718F807
:100480008346FFF762B90133E36020464521FEF75A
:10049000ADFEFFF753B90133E36020464521FEF777
:1004A000A5FEFFF7D9B80133E36020464521FEF7EA
:1004B0009DFEFFF7B6B90133E360FFF7AFB9013333
:1004C000E360FFF7C6B80133E360E1E54FF00009F0
:1004D000FFF7CBB85378692B00F042814FF0000949
:1004E000FFF7DDB8D0F804C0226BDCF80830DCF888
:1004F00000B09F49CDF80CC0023B1A442263584615
:1005000000F02EFEDDF80CC0002800F0E680DCF8DC
:100510000C30032B54D8DFE803F0D7AE6008DDF8C9
:1005200004B0FFF712B94FF0000B5846914900F0A4
:1005300017FEB0B39BF800306E2B41D19BF8013011
:10054000772B01D0612B3BD15F212046FEF74EFE79
:1005500003902046FBF77EF9E3681A78452A834624
:1005600000F0DE80702A28D0692A29D15B786C2BB4
:1005700026D1204600F006F95A4603463A21204685
:10058000F7F796FF039A034639212046F7F790FFC5
:10059000019A034638212046F7F78AFF8346FFF782
:1005A000D4B8204600F0EEF80390204600F0EAF8B8
:1005B0008346204600F0E6F8DEE75A78692A03D041
:1005C0004FF0000BFFF7C1B80233E360204645212E
:1005D000FEF70CFED0E74FF0000B019B5B681B6839
:1005E0005A78632A3AD0204600F0CCF80390584657
:1005F000614900F0B5FD58B35846604900F0B0FDC0
:1006000028B158465E4900F0ABFD002853D1204682
:10061000FCF796FBE3681B78492B834609D12046FB
:10062000FCF7CEFC5A46034604212046F7F740FF6C
:1006300083465B46039A37212046F7F739FF019A34
:10064000034636212046F7F733FF8346FFF77DB890
:1006500020464521FEF7CAFD8346EAE71B78A3F151
:100660006302012A02D9723B012BBCD82046FBF75A
:10067000F1F80390BBE79BF80030702B02D06D2B94
:100680007FF459A89BF801209A427FF454A8E368AC
:100690001A785F2A14D0204600F074F802461346F8
:1006A00020463721F7F704FF0346019A20463521FB
:1006B000F7F7FEFEC5E6204600F064F88346B8E78B
:1006C0000133E360FFF737B8019A20463421002355
:1006D000F7F7EEFE8346FFF738B82046FBF7BAF887
:1006E000E2E75B786C2B7FF410A82046FBF7B2F8AA
:1006F000E36883460233E36045212046FEF776FD3A
:100700005A46034630212046F7F7D2FE8346FFF7CC
:100710001CB85A786C2A7EF4F8AF4FF0000BE9E76A
:100720000133E360002027E7019B5B68032B3FF662
:1007300047AF01A252F823F0C906020037F70100C3
:10074000D7050200270502005A78692A7FF477A9A5
:100750000233E36020464521FEF748FDFFF792BBD8
:100760000232E26020464521FEF740FDFFF726BA3F
:10077000282E0200682B0200602B0200342C02009D
:10078000382C02002DE9F041C1680B784C2B04464F
:1007900000F09980542B00F09A80732B58D0662B70
:1007A00037D0A3F13002092A0CD82046FCF7C8FA4A
:1007B000054600287ED0E3681B78492B00F0A08016
:1007C000BDE8F0816F2B78D0692B52D0742B03D108
:1007D0004B786C2B00F02F812046FCF72FFA054652
:1007E000002867D00378312B75D0322B53D0332BB0
:1007F00060D1E3681A785F2A00F022812046FFF773
:10080000C1FF034620462A463521BDE8F041F7F7EF
:100810004FBE4B78702BDFD18B1CC3608B78542B71
:1008200000F08F80F8F77AF8451C43D06369A2691D
:1008300093423FDA03EB4302216901339200636183
:100840008B1837D0062088545D601846BDE8F081CB
:100850004B78722B5FD0702BBED10231C160FFF795
:1008600091FF4921024600232046BDE8F041F7F7F9
:100870001FBE4B786C2BAFD100250231E1602046C2
:100880004521FEF7B3FC2A46034630212046BDE849
:10089000F041F7F70DBE6B68032B0BD801A252F89D
:1008A00023F000BF4B090200FD070200D50902003A
:1008B0005B0902000020BDE8F0814B786E2B8BD1E4
:1008C0000231C16071E7BDE8F041FAF763BFBDE8EE
:1008D000F041F8F73BB84768226BBB683E68954922
:1008E000023B13442363304600F03AFC002800F03A
:1008F000C880FB68032BDDD8DFE803F027AA6D3042
:100900002046FCF75DFB2A46034604212046BDE84D
:10091000F041F7F7CDBD0231C160FAF79BFF054604
:100920002046FCF70DFAE3681B78492B0646204663
:1009300000F0CC802A4633460121BDE8F041F7F7AC
:10094000B7BD0331C160002570E720462A46342137
:100950000023BDE8F041F7F7ABBD002630467649ED
:1009600000F0FEFB002800F0978033786E2BA1D1B9
:100970007378772B01D0612B9CD15F212046FEF745
:1009800035FC06462046FAF765FFE36819784529E5
:10099000074600F0B080702900F0BC80692989D139
:1009A0005B786C2B86D12046FFF7ECFE03463A4677
:1009B00020463A21F7F77CFD32460346392120468E
:1009C000F7F776FD2A46034638212046BDE8F04178
:1009D000F7F76EBD00266B681B685A78632A68D0EB
:1009E0002046FFF7CFFE07463046544900F0B8FBDB
:1009F00000284BD03046524900F0B2FB28B13046B7
:100A0000504900F0ADFB002870D12046FCF798F962
:100A1000E3681B78492B064671D03A463346204698
:100A20003721F7F745FD2A46034636212046BDE823
:100A3000F041F7F73DBDFAF70DFFE16805461CE709
:100A40000133E36020464521FEF7D0FB0346D9E69B
:100A50003378702B02D06D2B7FF4D0AE72789A422F
:100A60007FF4CCAEE3681A785F2A5FD02046FFF7A8
:100A700089FE0246134620463721F7F719FD034643
:100A8000C0E62046FAF7E6FE0346BBE620464521CF
:100A9000FEF7ACFB0646C0E72046FFF773FE0646AE
:100AA0002046FFF76FFE07462046FFF76BFE034622
:100AB0007DE71B78A3F16302012A02D9723B012B67
:100AC0008ED82046FAF7C6FE07468DE7FCF778FA7F
:100AD0003246034604212046F7F7EAFC2A4603463D
:100AE00001212046BDE8F041F7F7E2BC2046FFF7C0
:100AF00049FE064691E70133E360002357E72046AD
:100B0000FCF75EFA3246034604212046F7F7D0FC94
:100B1000064682E75A78692A7FF4CCAE0233E36056
:100B200020464521FEF762FB034640E70133E360C0
:100B300064E600BF282E0200682B0200602B020032
:100B4000342C0200382C02002DE9F04184B078B337
:100B500001B16AB3002417460D466A46294900943C
:100B60001E46019402940394FEF7E0F900283DD05C
:100B7000039BD3B14FF00108009C3CB39DB32046CA
:100B800000F0F8FA3B6898421AD2421C21462846E7
:100B900000F0B6F9204600F09BF92C460EB3002376
:100BA0002046336004B0BDE8F081DDF80880E3E75B
:100BB0009BB16FF0020200201A6004B0BDE8F08122
:100BC000284600F085F9C7F80080E7E72EB1B8F1B4
:100BD000010F11D06FF001033360002004B0BDE8B5
:100BE000F0812046DEE7002FEDD1D7E7009800F036
:100BF0006FF9002EEED1F0E74FF0FF33204633605F
:100C0000D0E700BF558B010060B108B539B1FEF7E0
:100C10008DF900280CBF6FF00100002008BD6FF0B7
:100C2000020008BD6FF00200704700BF10B5034B13
:100C300003600446F7F7ECFB204610BD3831020094
:100C400010B50446FFF7F2FF2046F6F767FF20468F
:100C500010BD2DE9F041069E964280460F4615468E
:100C60001C4603D1194600F075F858B9D8F80800A9
:100C7000036806961E6A39462A462346B446BDE8EE
:100C8000F04160470620BDE8F0812DE9F14F0E46A6
:100C900019468346174699460A9CDDF82CA0DDF8D4
:100CA00030800D9D00F056F878B1002E2C602F7129
:100CB00006DB3444A0450CBF06240124AC711EE0C1
:100CC00002361CD10123AB7119E0444504D15846CA
:100CD000514600F03FF888B9DBF8080003680A9431
:100CE000CDF82CA0CDF830800D95DC6931463A4620
:100CF0004B46A44601B0BDE8F04F60476F7100203D
:100D000001B0BDE8F08F2DE9F04104460F461646CC
:100D10001D46F7F790FB48B9A06803689C693946FF
:100D200032462B46A446BDE8F0416047BDE8F0815D
:100D300008B5F7F7FDFA006830B190F82730012BBD
:100D400004BF00687838006808BD7047002070470D
:100D500000207047814208B50ED0406803782A2BE6
:100D60000CD049680B782A2B08BF013100F0F8F944
:100D7000B0FA80F0400908BD012008BD002008BD80
:100D800008B5062000F0ACF9012001F0CFF8000012
:100D900008B5074B044613B10021AFF30080054BA3
:100DA0001868836A03B19847204601F0BFF800BF76
:100DB00000000000A831020070B50D46144606463A
:100DC00018B183690BB900F0B7FB224B9C4201D1EB
:100DD000746808E0204B9C4201D1B46803E01F4BCB
:100DE0009C4208BFF468A3891A0701D523699BB9FF
:100DF0003046214600F046FA70B14FF0FF3070BD2A
:100E0000A368013B002BA3600BDB236815F8012CC2
:100E10001A7023680133236015F8010B0028EFD105
:100E200016E0A269934209DB236815F8012C1A70B9
:100E3000236819780A29EDD1304602E015F8011C23
:100E40003046224600F0B8F9431C58425841D3E7D7
:100E500070BD00BFAC310200CC310200EC310200A9
:100E60000A460349034608681946FFF7A5BF00BFB5
:100E70004C01002070B50E4B0E4CE41AA410002556
:100E80001E46A54204D056F8253098470135F8E7AC
:100E900001F04EF8084C094BE41AA41000251E4638
:100EA000A54204D056F8253098470135F8E770BDC3
:100EB000500100205001002084010020500100203A
:100EC000024B0146186800F073B800BF4C010020C7
:100ED000024B0146186800F027B800BF4C01002003
:100EE00010B50A44441E914208D014F8013F087816
:100EF000834201D0181A10BD0131F4E7002010BD63
:100F000010B5431E0A44914204D011F8014B03F876
:100F1000014FF8E710BD02440346934202D003F8A4
:100F2000011BFAE77047000030B500293DD051F8A9
:100F3000042C0B1F1D49002AB8BF9B180A680C46D9
:100F400012B95A600B6030BD93420DD2196858181F
:100F5000904201BF5A5852181A6042685A60236082
:100F600030BD994203D80A4651680029F9D1146866
:100F700015199D420AD11B682344D018884213607A
:100F800013D10868034413604B680DE002D90C23A9
:100F9000036030BD1C681819884204BF086849689E
:100FA000596004BF00191860536030BD200B002049
:100FB00070B5CC1C24F0030408340C2C38BF0C246E
:100FC000002C064603DA0C233360002070BD8C42EF
:100FD000F9D3204A136810461946A1B10A68121BBA
:100FE0000ED40B2A03D90A608B188C501FE08B4259
:100FF0000DBF5A684A685A60026018BF0B4616E077
:101000000B464968E9E7144D2B681BB9304600F0E0
:101010002FF828603046214600F02AF8421C03468B
:10102000D1D0C51C25F0030585420AD11C6003F10F
:101030000B001A1D20F00700821A0AD05142995065
:1010400070BD3046E91A00F013F80130BBD02B46D2
:10105000ECE770BD200B00201C0B00200A46034962
:1010600003460868194600F03DBB00BF4C01002054
:1010700038B5064C002305460846236000F040FFC3
:10108000431C02D1236803B12B6038BD280B00201C
:101090001F2938B504460D4604D9162303604FF0C6
:1010A000FF3038BD426C12B152F821304BB92046A6
:1010B00000F030F82A4601462046BDE8384000F0EE
:1010C00017B8012B0AD0591C03D116230360012045
:1010D00038BD002442F8254028469847002038BDF6
:1010E000024B01461868FFF7D3BF00BF4C01002038
:1010F00038B5074C0023054608461146236000F02A
:10110000E7FE431C02D1236803B12B6038BD00BF4A
:10111000280B002000F0CCBE0EB400B59CB04FF4FC
:101120000271ADF814106FF00041049107914FF671
:10113000FF711DABADF81610084953F8042B02904F
:1011400006900868019302A900F04CFB029B002264
:101150001A701CB05DF804EB03B070474C0100201E
:1011600010F8012B11F8013B012A28BF9A42F7D051
:10117000D01A7047034613F8012B002AFBD1181A26
:101180000138704770B5AAB1451E01396B7811F866
:10119000014FA34205F1010606D16FF00104641B63
:1011A0001444E04202D11C46181B70BD3546002B8A
:1011B000ECD1F8E7104670BD70B50D4614460646F2
:1011C00018B183690BB900F0B7F9224B9C4201D1E9
:1011D000746808E0204B9C4201D1B46803E01F4BC7
:1011E0009C4208BFF468A369A360A3891A0709D5C4
:1011F00023693BB123682069181A63699842EDB2EC
:101200000FDB08E03046214600F03CF80028F1D022
:101210004FF0FF3070BD3046214600F023F9002822
:10122000F6D1A368013BA36023685A1C22601D709D
:1012300063690130984204D0A389DB0707D50A2DE2
:1012400005D13046214600F00DF90028E0D12846AE
:1012500070BD00BFAC310200CC310200EC310200A5
:1012600038B5074C054600202060084611461A464E
:1012700000F054FE431C02D1236803B12B6038BD3B
:10128000280B0020314B70B51D6806460C4625B171
:10129000AB6913B9284600F04FF92D4B9C4201D1A0
:1012A0006C6808E02B4B9C4201D1AC6803E02A4BF0
:1012B0009C4208BFEC68A3899AB211071DD4D506D9
:1012C00002D40922326038E0500712D5616B41B177
:1012D00004F14403994202D03046FFF725FE002373
:1012E0006363A38923F02403A3810023636023693C
:1012F0002360A38943F00803A38123694BB9A38921
:1013000003F42073B3F5007F03D03046214600F08C
:101310009BF9A38913F0010205D00022A260626943
:101320005242A26103E0990758BF6269A260226934
:101330004AB903F0800080B230B143F04003A3818A
:101340004FF0FF3070BD002070BD00BF4C01002089
:10135000AC310200CC310200EC3102008A892DE967
:10136000F041054610070C4657D44B68002B02DCB1
:101370000B6C002B18DDE66AB6B102F48052002334
:1013800092B22F682B600AB1626D10E0216A284684
:101390000123B047411C024609D12B683BB11D2BEC
:1013A00001D0162B47D12F600020BDE8F081A38922
:1013B0005B0705D56368D21A636B0BB1236CD21A35
:1013C000E66A216A00232846B047461CA38905D156
:1013D0002A681AB11D2A01D0162A19D1002262608A
:1013E000D9042269226004D5421C01D12B6803B9BB
:1013F0006065616B2F600029D6D004F144039942E7
:1014000002D02846FFF790FD00206063BDE8F08120
:1014100043F04003A381BDE8F0810F69002FC3D0E2
:1014200093070E6808BF4B690F6018BF0023C7EB16
:1014300006088B6012E0A38943F04003A3814FF0BC
:10144000FF30BDE8F0812846216AA66A3A46434645
:10145000B0470028EFDD0744C0EB0808B8F1000FE3
:10146000F1DCA1E738B50B6905460C46DBB118B1D4
:1014700083690BB900F060F80C4B9C4201D16C6899
:1014800008E00B4B9C4201D1AC6803E0094B9C4245
:1014900008BFEC68B4F90C302BB128462146BDE8F2
:1014A0003840FFF75BBF002038BD00BFAC31020001
:1014B000CC310200EC310200014900F0A7B800BFB6
:1014C00065140200002310B5044603604360836086
:1014D00081814366C28103614361836119465C3047
:1014E0000822FFF718FD054B6362054BA362054B0D
:1014F000E362054B2462236310BD00BFF51C0200AC
:10150000171D02004F1D0200731D020070B56823F5
:101510004D1E5D430E4605F17401FFF749FD04467B
:1015200040B1002180E842000C30A06005F1680263
:10153000FFF7F1FC204670BD836910B5044633BB4C
:101540008364C3640365124B124A1B68826298422B
:1015500004BF0123836100F01FF86060204600F0A3
:101560001BF8A060204600F017F80421E06000227C
:101570006068FFF7A7FFA06809210122FFF7A2FF1B
:10158000E06812210222FFF79DFF0123A36110BD35
:10159000A8310200B9140200F8B51B4B1E68B369EC
:1015A000074613B93046FFF7C7FF4836B46873687B
:1015B000013B04D4B4F90C5075B16834F8E73368D2
:1015C0002BB938460421FFF7A1FF306008B1366817
:1015D000ECE70C233B60F8BD4FF6FF73E38101237A
:1015E000A38165662560A560656025616561A5616B
:1015F00004F15C0029460822FFF78DFC6563A563B2
:10160000A564E5642046F8BDA83102002DE9F84341
:101610008046894600F14804002694B1A5686768B1
:10162000013F0CD4AB89012B07D9B5F90E3001333A
:1016300003D040462946C84706436835F0E724688A
:10164000EBE73046BDE8F883F0B58B899D0791B094
:1016500006460C4626D4B1F90E10002909DAA389F2
:1016600013F0800F4FF0000514BF40274FF4806740
:101670000DE001AA00F092FB0028F0DB029D05F4CA
:101680007045A5F500514D424D414FF480673046FD
:101690003946FFF78DFC60B9A3899A051DD443F044
:1016A0000203A38104F147032360236101236361E3
:1016B00013E00B4BB362A389206043F08003A38146
:1016C000206167614DB13046B4F90E1000F078FB2F
:1016D00018B1A38943F00103A38111B0F0BD00BF8D
:1016E000B9140200F8B5074615460E4621B9114651
:1016F000BDE8F840FFF75CBC1AB9FFF715FC2846B7
:10170000F8BD00F0A9FBA8420ED238462946FFF7E3
:101710004FFC044650B131462A46FFF7F1FB3846EC
:101720003146FFF701FC01E03046F8BD2046F8BD28
:101730002DE9F0478E68B34282460C4690469946A2
:1017400040D38A8912F4906F3AD0256809696F1ADC
:101750006569022305EB450595FBF3F57B1C4B44BE
:101760009D4238BF1D4653050FD52946FFF720FC83
:10177000064698B121693A46FFF7C2FBA38923F4D4
:10178000906343F08003A38113E02A46FFF7AAFF8A
:10179000064670B950462169FFF7C6FB0C23CAF80C
:1017A0000030A38943F04003A3814FF0FF30BDE830
:1017B000F087266165613E44ED1B2660A5604E46BC
:1017C000B14500D24E4632462068414600F029FB22
:1017D000A3689B1BA36023681E4426600020BDE80D
:1017E000F08700002DE9F0439DB0064603938B89F6
:1017F0001C060D4690460CD50B6953B94021FFF7E6
:10180000D7FB2860286110B90C233360CCE040235B
:101810006B610023099320238DF8293030238DF844
:101820002A3043461C4613F8012B1AB9B4EB0809B9
:101830000FD002E0252AF5D1F8E730462946424686
:101840004B46FFF775FF013000F0A980099B4B4420
:1018500009932378002B00F0A28000234FF0FF3281
:1018600004930793059206938DF853301A9304F16D
:1018700001084446DFF8489121784846052200F0E7
:10188000C1FA08F10108049B30B1C9EB0000012244
:10189000824013430493ECE7D80644BF20228DF81E
:1018A0005320190744BF2B228DF8532022782A2A6F
:1018B00002D0079923460EE0039A111D1268039186
:1018C000002ABBBF524243F0020307920792B8BFFF
:1018D000049301340AE01C4601332278303A092A85
:1018E00003D80A2000FB0121F5E7079123782E2B6E
:1018F0001AD163782A2B0AD1039B1A1D1B68039205
:10190000002BB8BF4FF0FF33023405930CE0611C8D
:1019100000220C4601312378303B092B03D80A20E2
:1019200000FB0232F5E70592DFF898802178404607
:10193000032200F067FA38B1049AC8EB0000402394
:10194000834013430493013421781A488DF82810FA
:10195000062204F1010800F055FA88B1164B33B99C
:10196000039B073323F007030833039313E003AB10
:101970000093304604A92A46104BAFF3008007E0DD
:1019800003AB0093304604A92A460C4B00F092F8B2
:10199000421C074603D0099B3B44099341E7AB89AE
:1019A0005B0601D4099801E04FF0FF301DB0BDE89F
:1019B000F08300BF16320200000000003117020061
:1019C0000C320200123202002DE9F84391461F4604
:1019D0008A680B69DDF820809342B8BF1346C9F8C6
:1019E000003091F8432006460C4612B10133C9F885
:1019F00000302368990642BFD9F800300233C9F895
:101A00000030256815F006051CD094F84330226894
:101A1000003318BF012392061FD5E1185A1C30204D
:101A200081F84300224494F8451082F843100233B1
:101A300013E03046394604F119020123C047013052
:101A400007D00135E368D9F800209B1A9D42F0DBEE
:101A5000DBE74FF0FF30BDE8F8833046394604F14C
:101A60004302C0470130F4D02268D9F80050E3683F
:101A700002F00602042A08BF5D1B2269A3680CBF9E
:101A800025EAE57500259342C4BF9B1AED184FF077
:101A90000009A9450ADA3046394604F11A02012341
:101AA000C0470130D5D009F10109F2E70020BDE8B7
:101AB000F88300002DE9FF410C461746227E6E2A6E
:101AC000984606460A9B01F1430100F0AF8012D808
:101AD000632A23D00AD8002A00F0BC80582A40F09C
:101AE000CB8084F84520DFF804E257E0642A1ED05A
:101AF000692A1CD0C0E0732A00F0B08009D86F2A90
:101B00002ED0702A40F0B880226842F02002226075
:101B10003FE0752A24D0782A3BD0ADE01A68111D29
:101B20001960136884F8423004F14205A8E0206887
:101B30001A6810F0800F02D0101D186008E010F035
:101B4000400F02F10400186002D0B2F9003000E04A
:101B50001368002B3EDA2D225B4284F8432039E0E3
:101B600020681A6810F0800F02D0101D186007E07E
:101B700010F0400F02F10400186001D0138800E05B
:101B80001368227EDFF864E16F2A0CBF08220A2264
:101B90001CE07822DFF858E184F8452022681868B4
:101BA00012F0800F00F104051D6003D1550601D528
:101BB000038800E00368D00744BF42F0200222609F
:101BC0001BB9226822F0200222601022002084F833
:101BD000430002E0DFF814E10A226568A560002DE9
:101BE000A2BF206820F00400206003B965B10D4653
:101BF000B3FBF2F002FB10331EF8033005F8013D91
